S00C00006C6162322E73726563B7
S11300000C943E000C945B000C945B000C945B001D
S11300100C945B000C945B000C945B000C945B00F0
S11300200C945B000C945B000C945B000C94BB017F
S11300300C945B000C945B000C945B000C945B00D0
S11300400C945B000C945B000C945B000C945B00C0
S11300500C945B000C945B000C945B000C945B00B0
S11300600C945B000C945B0087089B0889088B0840
S11300708D088F08910893089508970811241FBECE
S1130080CFEFD8E0DEBFCDBF11E0A0E0B1E0E0ECFF
S1130090FFE102C005900D92A631B107D9F727E020
S11300A0A6E1B1E001C01D92A837B207E1F70E94B2
S11300B08F0D0C94DE0F0C940000109289008CE7D5
S11300C0809388008BE080938100EFE6F0E08081EC
S11300D082608083089531E1FC013083319722E20C
S11300E020833197A3E3A083319760833197708392
S11300F031971082319760E860833197108231978D
S113010062E06083319763E06083319764E06083E9
S1130110319765E06083319766E06083319767E0EB
S11301206083319768E06083319769E06083319739
S113013060E1608331973083319732E130833197C6
S113014033E13083319734E13083319735E13083C3
S1130150319736E13083319737E13083319738E195
S11301603083319739E13083319730E230833197EE
S113017031E2308331972083319723E22083319712
S1130180408331975083319726E22083319727E2C9
S11301902083319728E22083319729E22083319705
S11301A020E32083319721E32083869708950E94DA
S11301B05D00A0915707B0915807CD91CDBFDD9157
S11301C0DEBFFF91EF91DF91CF91BF91AF919F91EE
S11301D08F917F916F915F914F913F912F911F91DB
S11301E00F91FF90EF90DF90CF90BF90AF909F90D2
S11301F08F907F906F905F904F903F902F901F90C3
S11302000F900FBE0F90089581E008950F920FB6DE
S1130210F8940F921F9211242F923F924F925F9263
S11302206F927F928F929F92AF92BF92CF92DF9202
S1130230EF92FF920F931F932F933F934F935F93EC
S11302406F937F938F939F93AF93BF93CF93DF93DA
S1130250EF93FF93A0915707B09158070DB60D92F5
S11302600EB60D920E946007A0915707B0915807EF
S1130270CD91CDBFDD91DEBFFF91EF91DF91CF91A5
S1130280BF91AF919F918F917F916F915F914F91AA
S11302903F912F911F910F91FF90EF90DF90CF909E
S11302A0BF90AF909F908F907F906F905F904F9092
S11302B03F902F901F900F900FBE0F9008950F92B4
S11302C00FB6F8940F921F9211242F923F924F92DF
S11302D05F926F927F928F929F92AF92BF92CF92D2
S11302E0DF92EF92FF920F931F932F933F934F93BD
S11302F05F936F937F938F939F93AF93BF93CF93AA
S1130300DF93EF93FF93A0915707B09158070DB671
S11303100D920EB60D920E945B0581110E9460073A
S1130320A0915707B0915807CD91CDBFDD91DEBFA5
S1130330FF91EF91DF91CF91BF91AF919F918F91F9
S11303407F916F915F914F913F912F911F910F91E9
S1130350FF90EF90DF90CF90BF90AF909F908F90E1
S11303607F906F905F904F903F902F901F900F90D1
S11303700FBE0F9008950E945F011895ABE1B1E0A4
S1130380EFE1F1E01196FC93EE9313961C921E920A
S11303901297A7E1B1E08BED95E013969C938E93B1
S11303A0129711961C921E9293838283B183A08329
S11303B00895EF92FF920F931F93CF93DF93EC0175
S11303C00E94550580911601811105C00E94BE014D
S11303D081E080931601209771F0CE010496C8172E
S11303E0D90738F425968C179D0728F0C0E0D0E093
S11303F002C0C0E0D0E0209709F45EC02091000163
S1130400309101012C173D0708F459C0E0911B01FC
S1130410F0911C01ABE1B1E002C0DF01FC0182817B
S113042093818C179D0720F4808191810097A9F70F
S113043081E0E731F80709F445C00D911C9111974B
S11304400C5F1F4F808191818D939C938281938156
S11304508C1B9D0B8930910530F1BF016C0F7D1F02
S1130460DB0113969C938E931297D383C2831296C7
S11304704D915C9113970F2EFBE1EF2EF1E0FF2ECF
S1130480F02D01C07D01E701A881B98112968D91FB
S11304909C91139784179507A8F3EB01B983A8835C
S11304A0D7016D937C9382819381281B390B309300
S11304B001012093000108C000E010E005C000E045
S11304C010E002C000E010E00E947506C801DF9150
S11304D0CF911F910F91FF90EF9008950F931F9369
S11304E0CF93DF93009741F1EC018C010450110983
S11304F00E945505F80142815381ABE1B1E001C08E
S1130500DF01ED91FC911197228133812417350786
S1130510B8F32497F983E8830D931C938A819B8114
S11305202091000130910101820F931F90930101EA
S1130530809300010E947506DF91CF911F910F9166
S11305400895FC010396928381832FEF3FEF348358
S11305502383968385839087878310820895FC0183
S1130560118610860895CF93DF93EB01488159815A
S11305704F3F2FEF520721F4FC01A781B0850DC036
S1130580DC01139601C0DF011296ED91FC911397E3
S11305902081318142175307B0F71296ED91FC91F7
S11305A01397FB83EA83D583C483BD83AC831396FB
S11305B0DC93CE93129799878887FC0120812F5F63
S11305C02083DF91CF910895CF93DF93FC01A08521
S11305D0B185C281D381848195819D838C83C481BB
S11305E0D581828193819B838A8311968D919C917D
S11305F01297E817F90731F48481958112969C9338
S11306008E931197118610868C9181508C938C91C6
S1130610DF91CF910895E0911F07F0912007808129
S1130620811107C08FEF9FEF9093FF068093FE0622
S11306300895E0911F07F09120070580F681E02DD1
S1130640808191819093FF068093FE060895CF9355
S1130650DF93EC018F89988D0E946E02CE010E9477
S11306606E02DF91CF9108956F927F928F929F9245
S1130670AF92BF92CF92DF92EF920F931F93CF93DB
S1130680DF93CDB7DEB74C01D50157968D919C9180
S11306905897215031093C01620E731E6115710592
S11306A089F416C0822F90E0FB01E80FF91F308116
S11306B0D501A80FB91F59963C938081882329F04E
S11306C02F5F01C020E0283068F3F50110A203C0B9
S11306D0D50159961C92B3E0BE1520F40F2EF3E019
S11306E0EF2EF02DF501E68AC50102960E94AF02B5
S11306F0C5010C960E94AF02D5011996BC92AE9228
S1130700189784E090E08E1991091D969C938E931E
S11307101C975396BC92AE92529784E0F501B19621
S1130720DF011D928A95E9F7F50115A2A801B4012C
S1130730C3010E946B00D5018D939C93C114D10415
S113074019F0F601B182A082DF91CF911F910F9130
S1130750EF90DF90CF90BF90AF909F908F907F905D
S11307606F900895CF93C0E010C08C2F90E09C014F
S1130770220F331F220F331F220F331F820F931FA9
S11307808D5C984F0E94A102CF5FC43070F38AE25F
S113079097E00E94A10281E297E00E94A10284E115
S11307A097E00E94A1028BE097E00E94A1028AE2F6
S11307B097E09093200780931F0781E297E090933E
S11307C01E0780931D07CF910895CF93DF93EC010B
S11307D00FB6F8940F92809109078F5F80930907F1
S11307E08091570790915807892B59F4D093580753
S11307F0C093570780910907813099F40E94B2038E
S113080010C08091050781110CC0E0915707F09149
S1130810580796898E89891720F0D0935807C0937A
S11308205707809100078F5F809300078E8990910E
S11308300607981710F48093060790E0FC01EE0F6A
S1130840FF1FEE0FFF1FEE0FFF1F8E0F9F1FFC01F8
S1130850ED5CF84F0180F281E02DFD83EC8384810F
S113086095819F838E83A481B581CE0102961396D0
S11308709C938E93129795838483EE89F0E0CF0145
S1130880880F991F880F991F880F991FE80FF91F68
S1130890ED5CF84FFB87EA8780818F5F80830F9040
S11308A00FBE80910507882351F0E0915707F0911E
S11308B0580796898E89981710F40E940601DF91D3
S11308C0CF910895CF93DF931CC00FB6F8940F9285
S11308D0E0911007F0911107C681D781CE010296ED
S11308E00E94E40280910907815080930907809156
S11308F00A07815080930A070F900FBECE010E9411
S1130900270380910A078111E0CFDF91CF910895E9
S11309100E946204809133078230D0F30E94060162
S1130920F7CF0F931F93CF93DF93EC010091070749
S113093010910807809157079091580702960E94DA
S1130940E402C00FD11FE0915707F0915807D383F9
S1130950C283C017D10768F4609157077091580794
S113096080911D0790911E076E5F7F4F0E94B30216
S113097017C0609157077091580780911F07909195
S113098020076E5F7F4F0E94B3028091FE06909114
S1130990FF06C817D90720F4D093FF06C093FE06BC
S11309A0DF91CF911F910F9108952F923F924F9213
S11309B05F926F927F928F929F92AF92BF92CF92EB
S11309C0DF92EF92FF920F931F93CF93DF933C013B
S11309D01B015A012901CA010E94D9016C01892B0A
S11309E071F086E290E00E94D901EC01892B19F0A4
S11309F0D88ECF8A06C0C6010E946E0202C0C0E033
S1130A00D0E0209791F0950140E050E0812C912CAA
S1130A105E016701E02E8201B101C3010E9434032B
S1130A20CE010E94E50381E001C08FEFDF91CF91F9
S1130A301F910F91FF90EF90DF90CF90BF90AF90F8
S1130A409F908F907F906F905F904F903F902F90EA
S1130A500895EF92FF920F930F2EFCEFEF2EF6E026
S1130A60FF2EF02D00E020E030E045E550E063E0AB
S1130A7071E088E894E00E94D504813081F4F89410
S1130A808FEF9FEF9093FF068093FE0681E08093A3
S1130A90050710920807109207070E94D70080915B
S1130AA002010F91FF90EF9008958091FB068F5FF4
S1130AB08093FB0608950F931F93CF93DF93809148
S1130AC0FB06811101C1C0910707D09108078E016F
S1130AD00F5F1F4F109308070093070701151105B7
S1130AE0B9F480911F079091200720911D07309140
S1130AF01E073093200720931F0790931E078093AF
S1130B001D07809101078F5F809301070E940B03EB
S1130B108091FE069091FF060817190720F480E0E3
S1130B20B8C081E001C080E0E0911F07F091200788
S1130B309081911107C02FEF3FEF3093FF06209370
S1130B40FE06A7C0E0911F07F09120070580F681FB
S1130B50E02D0680F781E02D2281338102171307EF
S1130B6028F43093FF062093FE0693C0A285B38534
S1130B702481358146815781E9015D834C83268137
S1130B80378144815581E9015B834A8311962D9114
S1130B903C911297AF014E5F5F4F2417350731F434
S1130BA02681378112963C932E93119713861286D1
S1130BB09C9191509C93A489B589109719F126852D
S1130BC0378560897189E9017D836C832089318946
S1130BD066857785E9017B836A8311966D917C91A3
S1130BE012979F01245F3F4F6217730731F42089E6
S1130BF0318912963C932E931197158A148A9C91ED
S1130C0091509C93268990910607921710F4209393
S1130C10060730E0D901AA0FBB1FAA0FBB1FAA0FFA
S1130C20BB1F2A0F3B1FD901AD5CB84F11960D9025
S1130C30BC91A02DB583A48314962D913C91159756
S1130C403783268314962D913C911597E9015B8394
S1130C504A8315965C934E931497A689B0E09D0140
S1130C60220F331F220F331F220F331FA20FB31F74
S1130C70AD5CB84FB387A2879C919F5F9C932689F4
S1130C80E0915707F09158079689291708F049CF42
S1130C904BCFE0915707F0915807268930E0F901CE
S1130CA0EE0FFF1FEE0FFF1FEE0FFF1F2E0F3F1F54
S1130CB0F901ED5CF84F9081923008F081E0909159
S1130CC0020791110CC00CC0809103079091040796
S1130CD00196909304078093030780E001C081E0AC
S1130CE0DF91CF911F910F910895CF93DF930FB6AA
S1130CF0F8940F928091FB0681508093FB068091BB
S1130D00FB068111BFC080910907811196C0BDC047
S1130D10E0911907F0911A070680F781E02DA48964
S1130D20B589C685D785808991899D838C83C0893F
S1130D30D189868597859B838A8311962D913C91D1
S1130D401297CF010C962817390731F480899189BD
S1130D5012969C938E931197158A148A8C918150C4
S1130D608C93A285B385C481D581868197819D8327
S1130D708C83C681D781848195819B838A831196D4
S1130D808D919C9112979F012E5F3F4F821793077D
S1130D9031F48681978112969C938E9311971386D2
S1130DA012868C9181508C938689909106079817AE
S1130DB010F48093060790E0DC01AA0FBB1FAA0F72
S1130DC0BB1FAA0FBB1F8A0F9B1FDC01AD5CB84F72
S1130DD011960D90BC91A02DB583A48314968D918A
S1130DE09C911597978386831496CD91DC911597E2
S1130DF03B832A8315963C932E931497A689B0E0DF
S1130E00CD01880F991F880F991F880F991FA80F6C
S1130E10B91FAD5CB84FB387A2878C918F5F8C9359
S1130E209689A0915707B091580756968C919817B8
S1130E3030F081E08093020702C0E0E0F0E08091AE
S1130E401407811165CFEF2B11F00E940B03C091A1
S1130E500307D0910407209769F00E945B0588235B
S1130E6019F081E0809302072197B9F710920407E3
S1130E701092030780910207882331F00E94060133
S1130E8081E003C080E001C080E00F900FBEDF91DD
S1130E90CF910895CF93DF93EC01892B49F00E9401
S1130EA0550560E0CE010E9491040E94750601C0C0
S1130EB080E0811102C00E940601DF91CF91089564
S1130EC08091FB06882321F081E080930207089536
S1130ED0109202072091060701C02150822F90E052
S1130EE0FC01EE0FFF1FEE0FFF1FEE0FFF1FE80FB9
S1130EF0F91FED5CF84F3081332379F3AC01440FD3
S1130F00551F440F551F440F551F480F591FDF012C
S1130F100180F281E02D0280F381E02D1296FC9392
S1130F20EE9311974A5C584FE417F50729F4428170
S1130F305381FD0152834183FC01EE0FFF1FEE0F2D
S1130F40FF1FEE0FFF1F8E0F9F1FFC01ED5CF84F7C
S1130F500180F281E02D86819781909358078093D8
S1130F605707209306070895E9E5F7E024E230E007
S1130F703183208385E290E09783868348E0448729
S1130F80338322839187808744E045873583248394
S1130F909387828782E086871786108A118A84B1B4
S1130FA08E6084B925B1286088E893E105C0E0E942
S1130FB0F1E03197F1F701970097C9F7246088E8C9
S1130FC093E105C0E0E9F1E03197F1F7019700976B
S1130FD0C9F7226088E893E105C0E0E9F1E03197C0
S1130FE0F1F701970097C9F72D7F88E893E105C0D1
S1130FF0E0E9F1E03197F1F701970097C9F72B7F0A
S113100088E893E105C0E0E9F1E03197F1F7019751
S11310100097C9F7822F877F85B988E893E105C0D7
S1131020E0E9F1E03197F1F701970097C9F70895E6
S1131030EBE6F7E08AE290E0918380838BE290E034
S11310409383828387E290E09583848388E290E0AF
S11310509783868388E0808784E081878FEF8AB9CD
S11310601BB8128687B18C6087B920E030E013C0CA
S113107081E0022E01C0880F0A94EAF78BB988EE4A
S113108093E005C0E0E9F1E03197F1F701970097AB
S1131090C9F72F5F3F4F2830310554F384EF91E0B7
S11310A005C0E0E9F1E03197F1F701970097C9F73E
S11310B084E088B920E030E013C081E0022E01C052
S11310C0880F0A94EAF78BB988EE93E005C0E0E94B
S11310D0F1E03197F1F701970097C9F72F5F3F4F80
S11310E02830310554F384EF91E005C0E0E9F1E0E4
S11310F03197F1F701970097C9F7089590E08A3086
S11311009105B8F4FC01EC5CFF4F0C94BE0F8FE327
S113111008958BE508958FE4089586E608958DE695
S113112008958DE7089587E008958FE708958FE681
S113113008958CEF089586E008950E941808C12C44
S1131140D12C3BC0CBE6D7E0EE81FF81888580833C
S1131150AA80BB800F2EFAE0EF2EF12CF02DC601F1
S1131160B7010E94880F0E947E08F50180838AE0FF
S113117090E00E944A07EE81FF81898580830A807E
S1131180DB81C02DC60164E670E00E94880FB701C0
S11311900E94880F862F0E947E0888838AE090E050
S11311A00E944A070F5F1F4F02C000E010E00233A5
S11311B0110544F2FFEFCF1ADF0A84E6C816D10402
S11311C0A4F3BDCF2F923F924F925F926F927F9282
S11311D08F929F92AF92BF92CF92DF92EF92FF9243
S11311E00F931F93CF93DF93CDB7DEB729970FB635
S11311F0F894DEBF0FBECDBF082F162FBA0180E0D2
S113120090E00E94500E9B01AC0160E070E080E829
S11312109FE30E94AF0D20E034E244E759E40E94CA
S1131220070F0E94210E6B017C0124E6029FC0017E
S113123011246FEF70E00E94880FA62FB0E0A70181
S113124096010E94C40F24E630E040E050E00E9482
S11312509C0FC21AD30AE40AF50A113009F43DC1FD
S113126020F0123009F46DC29FC3A9E5B7E01696C9
S1131270ED91FC9117971C961C918081812B8083A2
S1131280CA01B9010E94500E4B015C012BEA3AEAF3
S11312904AEA50E40E94070F2B013C0120E030E0B1
S11312A040E850E4C501B4010E94070F69837A83C2
S11312B08B839C8320E030E040E85FE3C301B2010C
S11312C00E94AA0D88230CF46BC020E03FEF4FE787
S11312D057E469817A818B819C810E94020F1816E0
S11312E00CF044C020E030E04AE754E4C501B40106
S11312F00E94AF0D2B013C0120E030E04AE755E4A9
S11313000E94070F4B015C0120E030E040E85FE3FE
S11313100E94AA0D882324F120E03FEF4FE757E411
S1131320C501B4010E94020F1816ACF420E030E0AD
S113133040E251E4C301B2010E94070F0E94210E52
S113134006C080E991E00197F1F7615071096115D8
S11313507105B9F727C0C501B4010E94210E02C06E
S113136061E070E0CB010197F1F71CC020E030E0B0
S11313704FE753E4C301B2010E94020F181654F45C
S113138069817A818B819C810E94210ECB01019716
S1131390F1F70BC0C301B2010E94210E698702C09C
S11313A081E0898799859A95F1F7E0916307F09137
S11313B064071095808118231083C701B6010E9429
S11313C0500E6B017C012BEA3AEA4AEA50E40E948F
S11313D0070F4B015C0120E030E040E850E4C70116
S11313E0B6010E94070F2B013C0120E030E040E8E9
S11313F05FE3C501B4010E94AA0D88230CF467C001
S113140020E03FEF4FE757E4C301B2010E94020F0F
S113141018160CF044C020E030E04AE754E4C70159
S1131420B6010E94AF0D4B015C0120E030E04AE7B9
S113143055E40E94070F6B017C0120E030E040E896
S11314405FE30E94AA0D882324F120E03FEF4FE7D9
S113145057E4C701B6010E94020F1816ACF420E04D
S113146030E040E251E4C501B4010E94070F0E943C
S1131470210E06C080E991E00197F1F761507109EE
S113148061157105B9F725C0C701B6010E94210E87
S113149002C061E070E0CB010197F1F71AC020E0CF
S11314A030E04FE753E4C501B4010E94020F18165F
S11314B044F4C301B2010E94210ECB010197F1F75C
S11314C073C2C501B4010E94210E6F8302C0E1E022
S11314D0EF83FF81FA95F1F767C2E9E5F7E08085CC
S11314E0918598878F831585FC010081012B0083EA
S11314F0CA01B9010E94500E4B015C012BEA3AEA81
S11315004AEA50E40E94070F2B013C0120E030E03E
S113151040E850E4C501B4010E94070F69837A834F
S11315208B839C8320E030E040E85FE3C301B20199
S11315300E94AA0D88230CF46BC020E03FEF4FE714
S113154057E469817A818B819C810E94020F18166D
S11315500CF044C020E030E04AE754E4C501B40193
S11315600E94AF0D2B013C0120E030E04AE755E436
S11315700E94070F4B015C0120E030E040E85FE38C
S11315800E94AA0D882324F120E03FEF4FE757E49F
S1131590C501B4010E94020F1816ACF420E030E03B
S11315A040E251E4C301B2010E94070F0E94210EE0
S11315B006C080E991E00197F1F761507109611566
S11315C07105B9F727C0C501B4010E94210E02C0FC
S11315D061E070E0CB010197F1F71CC020E030E03E
S11315E04FE753E4C301B2010E94020F181654F4EA
S11315F069817A818B819C810E94210ECB010197A4
S1131600F1F70BC0C301B2010E94210E6D8302C029
S1131610F1E0FD838D818A95F1F710950123EF8127
S1131620F8850083C701B6010E94500E6B017C014E
S11316302BEA3AEA4AEA50E40E94070F4B015C01A4
S113164020E030E040E850E4C701B6010E94070FF3
S11316502B013C0120E030E040E85FE3C501B40128
S11316600E94AA0D88230CF467C020E03FEF4FE7E7
S113167057E4C301B2010E94020F18160CF044C0D3
S113168020E030E04AE754E4C701B6010E94AF0D00
S11316904B015C0120E030E04AE755E40E94070F6B
S11316A06B017C0120E030E040E85FE30E94AA0D7A
S11316B0882324F120E03FEF4FE757E4C701B60148
S11316C00E94020F1816ACF420E030E040E251E42E
S11316D0C501B4010E94070F0E94210E06C080E9D3
S11316E091E00197F1F76150710961157105B9F73E
S11316F025C0C701B6010E94210E02C061E070E05E
S1131700CB010197F1F71AC020E030E04FE753E432
S1131710C501B4010E94020F181644F4C301B201BA
S11317200E94210ECB010197F1F73EC1C501B4011E
S11317300E94210E262E02C0222423942A94F1F71B
S113174033C1E9E5F7E08285938598878F83168511
S1131750FC010081012B0083CA01B9010E94500ED3
S11317604B015C012BEA3AEA4AEA50E40E94070F73
S11317702B013C0120E030E040E850E4C501B40115
S11317800E94070F69837A838B839C8320E030E077
S113179040E85FE3C301B2010E94AA0D88230CF460
S11317A06BC020E03FEF4FE757E469817A818B817A
S11317B09C810E94020F18160CF044C020E030E017
S11317C04AE754E4C501B4010E94AF0D2B013C016A
S11317D020E030E04AE755E40E94070F4B015C012A
S11317E020E030E040E85FE30E94AA0D882324F162
S11317F020E03FEF4FE757E4C501B4010E94020F18
S11318001816ACF420E030E040E251E4C301B20128
S11318100E94070F0E94210E06C080E991E0019703
S1131820F1F76150710961157105B9F727C0C50158
S1131830B4010E94210E02C061E070E0CB01019767
S1131840F1F71CC020E030E04FE753E4C301B201DC
S11318500E94020F181654F469817A818B819C814D
S11318600E94210ECB010197F1F70BC0C301B20115
S11318700E94210E6E8302C0F1E0FE838E818A9560
S1131880F1F710950123EF81F8850083C701B601B4
S11318900E94500E6B017C012BEA3AEA4AEA50E4BA
S11318A00E94070F4B015C0120E030E040E850E467
S11318B0C701B6010E94070F2B013C0120E030E074
S11318C040E85FE3C501B4010E94AA0D88230CF42B
S11318D067C020E03FEF4FE757E4C301B2010E9425
S11318E0020F18160CF044C020E030E04AE754E43C
S11318F0C701B6010E94AF0D4B015C0120E030E04E
S11319004AE755E40E94070F6B017C0120E030E0B8
S113191040E85FE30E94AA0D882324F120E03FEF12
S11319204FE757E4C701B6010E94020F1816ACF442
S113193020E030E040E251E4C501B4010E94070F09
S11319400E94210E06C080E991E00197F1F76150F1
S1131950710961157105B9F725C0C701B6010E9467
S1131960210E02C061E070E0CB010197F1F71AC0CB
S113197020E030E04FE753E4C501B4010E94020FB8
S1131980181644F4C301B2010E94210ECB01019741
S1131990F1F70AC0C501B4010E94210E362E02C01F
S11319A0332433943A94F1F729960FB6F894DEBFB2
S11319B00FBECDBFDF91CF911F910F91FF90EF909C
S11319C0DF90CF90BF90AF909F908F907F906F905B
S11319D05F904F903F902F9008950E94B40700E0CD
S11319E010E00FC048EE53E060E0802F0E94E20850
S11319F0219602C0C0E0D0E0C530D1059CF30F5F52
S1131A001F4F0F3F1105B1F3ACF300E011E00FC01D
S1131A1048EE53E060E0802F0E94E208219602C065
S1131A20C0E0D0E0C530D1059CF301501109101677
S1131A301106B4F380E197E205C0E0E9F1E03197E3
S1131A40F1F701970097C9F700E010E00FC048EEE6
S1131A5053E061E0802F0E94E208219602C0C0E0BA
S1131A60D0E0C530D1059CF30F5F1F4F0F3F110528
S1131A70B1F3ACF30FEF10E00FC048EE53E061E0B8
S1131A80802F0E94E208219602C0C0E0D0E0C53059
S1131A90D1059CF30150110910161106B4F380E12D
S1131AA097E205C0E0E9F1E03197F1F7019700977B
S1131AB0C9F700E010E00FC048EE53E062E0802F69
S1131AC00E94E208219602C0C0E0D0E0C530D105F2
S1131AD09CF30F5F1F4F0F3F1105B1F3ACF30FEFF2
S1131AE010E00FC048EE53E062E0802F0E94E2084D
S1131AF0219602C0C0E0D0E0C530D1059CF301506E
S1131B00110910161106B4F380E197E205C0E0E96B
S1131B10F1E03197F1F701970097C9F760CFE12C15
S1131B20F12C02E020E030E046E950E068E071E0AA
S1131B308DE998E00E94D50401E020E030E04CE219
S1131B4051E06EE071E08DEE9CE00E94D5040E94AD
S1131B502905FFCF0E948D0E08F481E008950E94AC
S1131B60C30D0C94C80E0E94C10E58F00E94BA0E08
S1131B7040F029F45F3F29F00C94B10E51110C94FC
S1131B80FC0E0C94B70E0E94D90E68F39923B1F39E
S1131B90552391F3951B550BBB27AA27621773078F
S1131BA0840738F09F5F5F4F220F331F441FAA1F23
S1131BB0A9F335D00E2E3AF0E0E832D091505040DF
S1131BC0E695001CCAF72BD0FE2F29D0660F771F8D
S1131BD0881FBB1F261737074807AB07B0E809F073
S1131BE0BB0B802DBF01FF2793585F4F3AF09E3FF8
S1131BF0510578F00C94B10E0C94FC0E5F3FE4F3A5
S1131C00983ED4F3869577956795B795F7959F5F3A
S1131C10C9F7880F911D9695879597F90895E1E086
S1131C20660F771F881FBB1F621773078407BA07E5
S1131C3020F0621B730B840BBA0BEE1F88F7E09540
S1131C4008950E94E10E88F09F5798F0B92F9927C4
S1131C50B751B0F0E1F0660F771F881F991F1AF093
S1131C60BA95C9F714C0B13091F00E94FB0EB1E0EF
S1131C7008950C94FB0E672F782F8827B85F39F0EE
S1131C80B93FCCF3869577956795B395D9F73EF42C
S1131C9090958095709561957F4F8F4F9F4F0895D4
S1131CA0E89409C097FB3EF49095809570956195F2
S1131CB07F4F8F4F9F4F9923A9F0F92F96E9BB27A8
S1131CC09395F695879577956795B795F111F8CF24
S1131CD0FAF4BB0F11F460FF1BC06F5F7F4F8F4F8F
S1131CE09F4F16C0882311F096E911C0772321F085
S1131CF09EE8872F762F05C0662371F096E8862F1D
S1131D0070E060E02AF09A95660F771F881FDAF773
S1131D10880F9695879597F90895990F0008550FA0
S1131D20AA0BE0E8FEEF16161706E807F907C0F05D
S1131D3012161306E407F50798F0621B730B840B65
S1131D40950B39F40A2661F0232B242B252B21F43F
S1131D5008950A2609F4A140A6958FEF811D811DDF
S1131D60089597F99F6780E870E060E008959FEF19
S1131D7080EC089500240A9416161706180609061E
S1131D80089500240A9412161306140605060895ED
S1131D90092E0394000C11F4882352F0BB0F40F475
S1131DA0BF2B11F460FF04C06F5F7F4F8F4F9F4FB5
S1131DB0089557FD9058440F551F59F05F3F71F037
S1131DC04795880F97FB991F61F09F3F79F087959E
S1131DD00895121613061406551FF2CF4695F1DF27
S1131DE008C0161617061806991FF1CF86957105B7
S1131DF0610508940895E894BB2766277727CB01EB
S1131E0097F908950E948D0E08F48FEF08950E94AB
S1131E101A0F0C94C80E0E94BA0E38F00E94C10E1C
S1131E2020F0952311F00C94B10E0C94B70E1124EC
S1131E300C94FC0E0E94D90E70F3959FC1F3950F7C
S1131E4050E0551F629FF001729FBB27F00DB11D3A
S1131E50639FAA27F00DB11DAA1F649F6627B00DCA
S1131E60A11D661F829F2227B00DA11D621F739FB3
S1131E70B00DA11D621F839FA00D611D221F749FC1
S1131E803327A00D611D231F849F600D211D822F08
S1131E90762F6A2F11249F5750409AF0F1F088232F
S1131EA04AF0EE0FFF1FBB1F661F771F881F91505C
S1131EB05040A9F79E3F510580F00C94B10E0C944C
S1131EC0FC0E5F3FE4F3983ED4F3869577956795CF
S1131ED0B795F795E7959F5FC1F7FE2B880F911D86
S1131EE09695879597F90895AA1BBB1B51E107C0E6
S1131EF0AA1FBB1FA617B70710F0A61BB70B881F96
S1131F00991F5A95A9F780959095BC01CD01089524
S1131F1097FB072E16F4009407D077FD09D00E9492
S1131F20740F07FC05D03EF4909581959F4F08955A
S1131F30709561957F4F0895A1E21A2EAA1BBB1BD1
S1131F40FD010DC0AA1FBB1FEE1FFF1FA217B30781
S1131F50E407F50720F0A21BB30BE40BF50B661F97
S1131F60771F881F991F1A9469F76095709580955B
S1131F7090959B01AC01BD01CF010895EE0FFF1FA9
S1131F800590F491E02D09940E94CF0FA59F900D28
S1131F90B49F900DA49F800D911D11240895A29FBC
S1131FA0B001B39FC001A39F700D811D1124911D29
S1131FB0B29F700D811D1124911D0895F894FFCFD7
S1131FC0DB050349444C4500736576656E00726712
S1091FD06272656400006A
S9030000FC
