S00C00006C6162312E73726563B8
S11300000C9434000C9451000C9451000C94510045
S11300100C9451000C9451000C9451000C94510018
S11300200C9451000C9451000C9451000C94B101A7
S11300300C9451000C9451000C9451000C945100F8
S11300400C9451000C9451000C9451000C945100E8
S11300500C9451000C9451000C9451000C945100D8
S11300600C9451000C94510011241FBECFEFD8E022
S1130070DEBFCDBF11E0A0E0B1E0EEEBFEE002C0D8
S113008005900D92AE30B107D9F727E0AEE0B1E0AC
S113009001C01D92A135B207E1F70E9439070C9403
S11300A05D070C940000109289008CE7809388000F
S11300B08BE080938100EFE6F0E0808182608083B2
S11300C0089531E1FC013083319722E22083319796
S11300D0A3E3A083319760833197708331971082B3
S11300E0319760E8608331971082319762E06083D2
S11300F0319763E06083319764E06083319765E012
S11301006083319766E06083319767E0608331975D
S113011068E06083319769E06083319760E16083D0
S113012031973083319732E13083319733E1308333
S1130130319734E13083319735E13083319736E1BB
S11301403083319737E13083319738E13083319709
S113015039E13083319730E23083319731E23083B3
S113016031972083319723E220833197408331975D
S11301705083319726E22083319727E220833197F9
S113018028E22083319729E22083319720E32083DA
S1130190319721E32083869708950E945300A0910C
S11301A04F07B0915007CD91CDBFDD91DEBFFF91D8
S11301B0EF91DF91CF91BF91AF919F918F917F91FB
S11301C06F915F914F913F912F911F910F91FF90EC
S11301D0EF90DF90CF90BF90AF909F908F907F90E3
S11301E06F905F904F903F902F901F900F900FBE95
S11301F00F90089581E008950F920FB6F8940F922E
S11302001F9211242F923F924F925F926F927F928E
S11302108F929F92AF92BF92CF92DF92EF92FF9212
S11302200F931F932F933F934F935F936F937F93FA
S11302308F939F93AF93BF93CF93DF93EF93FF93EA
S1130240A0914F07B09150070DB60D920EB60D92C6
S11302500E94CB06A0914F07B0915007CD91CDBF1E
S1130260DD91DEBFFF91EF91DF91CF91BF91AF910F
S11302709F918F917F916F915F914F913F912F91BA
S11302801F910F91FF90EF90DF90CF90BF90AF90B0
S11302909F908F907F906F905F904F903F902F90A2
S11302A01F900F900FBE0F9008950F920FB6F89401
S11302B00F921F9211242F923F924F925F926F924E
S11302C07F928F929F92AF92BF92CF92DF92EF92E2
S11302D0FF920F931F932F933F934F935F936F93CB
S11302E07F938F939F93AF93BF93CF93DF93EF93BA
S11302F0FF93A0914F07B09150070DB60D920EB623
S11303000D920E94DC0481110E94CB06A0914F073C
S1130310B0915007CD91CDBFDD91DEBFFF91EF913C
S1130320DF91CF91BF91AF919F918F917F916F9109
S11303305F914F913F912F911F910F91FF90EF90FB
S1130340DF90CF90BF90AF909F908F907F906F90F1
S11303505F904F903F902F901F900F900FBE0F9083
S113036008950E9455011895A3E1B1E0E7E1F1E099
S11303701196FC93EE9313961C921E921297AFE083
S1130380B1E08BED95E013969C938E9312971196A2
S11303901C921E9293838283B183A0830895EF926B
S11303A0FF920F931F93CF93DF93EC010E94D60427
S11303B080910E01811105C00E94B40181E08093F7
S11303C00E01209771F0CE010496C817D90738F4AE
S11303D025968C179D0728F0C0E0D0E002C0C0E04D
S11303E0D0E0209709F45EC0209100013091010112
S11303F02C173D0708F459C0E0911301F091140142
S1130400A3E1B1E002C0DF01FC01828193818C177A
S11304109D0720F4808191810097A9F781E0EF3056
S1130420F80709F445C00D911C9111970C5F1F4FFB
S1130430808191818D939C93828193818C1B9D0BF0
S11304408930910530F1BF016C0F7D1FDB011396DC
S11304509C938E931297D383C28312964D915C9191
S113046013970F2EF3E1EF2EF1E0FF2EF02D01C0D4
S11304707D01E701A881B98112968D919C91139712
S113048084179507A8F3EB01B983A883D7016D936B
S11304907C9382819381281B390B30930101209333
S11304A0000108C000E010E005C000E010E002C058
S11304B000E010E00E94F605C801DF91CF911F9182
S11304C00F91FF90EF9008950F931F93CF93DF93B5
S11304D0009741F1EC018C01045011090E94D604EB
S11304E0F80142815381A3E1B1E001C0DF01ED9144
S11304F0FC9111972281338124173507B8F324978F
S1130500F983E8830D931C938A819B8120910001D8
S113051030910101820F931F909301018093000198
S11305200E94F605DF91CF911F910F910895FC0170
S11305300396928381832FEF3FEF34832383968343
S113054085839087878310820895FC011186108625
S11305500895CF93DF93FC01A085B185C281D38137
S1130560848195819D838C83C481D581828193818B
S11305709B838A8311968D919C911297E817F907B2
S113058031F48481958112969C938E9311971186F0
S113059010868C9181508C938C91DF91CF9108952A
S11305A0E0911707F09118078081811107C08FEF40
S11305B09FEF9093F7068093F6060895E09117074E
S11305C0F09118070580F681E02D80819181909348
S11305D0F7068093F6060895CF93DF93EC018F8995
S11305E0988D0E946402CE010E946402DF91CF9133
S11305F008956F927F928F929F92AF92BF92CF9203
S1130600DF92EF920F931F93CF93DF93CDB7DEB7B3
S11306104C01D50157968D919C91589721503109E1
S11306203C01620E731E6115710589F416C0822F98
S113063090E0FB01E80FF91F3081D501A80FB91F25
S113064059963C938081882329F02F5F01C020E0D4
S1130650283068F3F50110A203C0D50159961C9205
S1130660B3E0BE1520F40F2EF3E0EF2EF02DF501CC
S1130670E68AC50102960E94A502C5010C960E9455
S1130680A502D5011996BC92AE92189784E090E029
S11306908E1991091D969C938E931C975396BC9228
S11306A0AE92529784E0F501B196DF011D928A95CE
S11306B0E9F7F50115A2A801B401C3010E94610084
S11306C0D5018D939C93C114D10419F0F601B18224
S11306D0A082DF91CF911F910F91EF90DF90CF9087
S11306E0BF90AF909F908F907F906F900895CF931D
S11306F0C0E010C08C2F90E09C01220F331F220F0A
S1130700331F220F331F820F931F855D984F0E9462
S11307109702CF5FC43070F382E297E00E949702A1
S113072089E197E00E9497028CE097E00E9497028B
S113073083E097E00E94970282E297E09093180783
S11307408093170789E197E0909316078093150724
S1130750CF910895CF93DF93EC010FB6F8940F92E5
S1130760809101078F5F8093010780914F079091DB
S11307705007892B59F4D0935007C0934F078091A9
S11307800107813099F40E94770310C08091FD061F
S113079081110CC0E0914F07F091500796898E8922
S11307A0891720F0D0935007C0934F078091F80623
S11307B08F5F8093F8068E899091FE06981710F447
S11307C08093FE0690E0FC01EE0FFF1FEE0FFF1F6B
S11307D0EE0FFF1F8E0F9F1FFC01E55DF84F018098
S11307E0F281E02DFD83EC83848195819F838E8348
S11307F0A481B581CE01029613969C938E93129791
S113080095838483EE89F0E0CF01880F991F880FC8
S1130810991F880F991FE80FF91FE55DF84FFB87B3
S1130820EA8780818F5F80830F900FBE8091FD06E1
S1130830882351F0E0914F07F091500796898E89F3
S1130840981710F40E94FC00DF91CF910895CF9384
S1130850DF931CC00FB6F8940F92E0910807F09153
S11308600907C681D781CE0102960E94A902809110
S11308700107815080930107809102078150809382
S113088002070F900FBECE010E94EC028091020776
S11308908111E0CFDF91CF9108950E9427048091C8
S11308A02B078230D0F30E94FC00F7CF2F923F92A7
S11308B04F925F926F927F928F929F92AF92BF926C
S11308C0CF92DF92EF92FF920F931F93CF93DF9318
S11308D03C011B015A012901CA010E94CF016C018C
S11308E0892B71F086E290E00E94CF01EC01892B04
S11308F019F0D88ECF8A06C0C6010E94640202C0D5
S1130900C0E0D0E0209791F0950140E050E0812CC8
S1130910912C5E016701E02E8201B101C3010E94A6
S1130920F902CE010E94AA0381E001C08FEFDF919A
S1130930CF911F910F91FF90EF90DF90CF90BF90D8
S1130940AF909F908F907F906F905F904F903F906B
S11309502F900895EF92FF920F930F2EF4EFEF2E46
S1130960F6E0FF2EF02D00E020E030E045E550E019
S113097063E071E08DE494E00E945604813081F4D8
S1130980F8948FEF9FEF9093F7068093F60681E03B
S11309908093FD06109200071092FF060E94CD007E
S11309A0809102010F91FF90EF9008958091F306DA
S11309B08F5F8093F30608950F931F93CF93DF9374
S11309C08091F306811101C1C091FF06D091000707
S11309D08E010F5F1F4F109300070093FF06011550
S11309E01105B9F480911707909118072091150704
S11309F03091160730931807209317079093160722
S1130A00809315078091F9068F5F8093F9060E9401
S1130A10D0028091F6069091F7060817190720F482
S1130A2080E0B8C081E001C080E0E0911707F09158
S1130A3018079081911107C02FEF3FEF3093F7060D
S1130A402093F606A7C0E0911707F09118070580D8
S1130A50F681E02D0680F781E02D22813381021793
S1130A60130728F43093F7062093F60693C0A28563
S1130A70B3852481358146815781E9015D834C83A7
S1130A802681378144815581E9015B834A8311962C
S1130A902D913C911297AF014E5F5F4F241735079C
S1130AA031F42681378112963C932E931197138645
S1130AB012869C9191509C93A489B589109719F141
S1130AC02685378560897189E9017D836C83208956
S1130AD0318966857785E9017B836A8311966D91F7
S1130AE07C9112979F01245F3F4F6217730731F483
S1130AF02089318912963C932E931197158A148A72
S1130B009C9191509C9326899091FE06921710F423
S1130B102093FE0630E0D901AA0FBB1FAA0FBB1F0A
S1130B20AA0FBB1F2A0F3B1FD901A55DB84F119611
S1130B300D90BC91A02DB583A48314962D913C9166
S1130B4015973783268314962D913C911597E901C7
S1130B505B834A8315965C934E931497A689B0E001
S1130B609D01220F331F220F331F220F331FA20FA9
S1130B70B31FA55DB84FB387A2879C919F5F9C93D9
S1130B802689E0914F07F09150079689291708F0BC
S1130B9049CF4BCFE0914F07F0915007268930E0C1
S1130BA0F901EE0FFF1FEE0FFF1FEE0FFF1F2E0FB9
S1130BB03F1FF901E55DF84F9081923008F081E024
S1130BC09091FA0691110CC00CC08091FB06909193
S1130BD0FC0601969093FC068093FB0680E001C01E
S1130BE081E0DF91CF911F910F910895CF93DF930F
S1130BF00FB6F8940F928091F30681508093F30618
S1130C008091F3068111BFC080910107811196C0C4
S1130C10BDC0E0911107F09112070680F781E02D25
S1130C20A489B589C685D785808991899D838C835C
S1130C30C089D189868597859B838A8311962D9156
S1130C403C911297CF010C962817390731F480890B
S1130C50918912969C938E931197158A148A8C917C
S1130C6081508C93A285B385C481D5818681978177
S1130C709D838C83C681D781848195819B838A835C
S1130C8011968D919C9112979F012E5F3F4F821771
S1130C90930731F48681978112969C938E931197D2
S1130CA0138612868C9181508C9386899091FE06CE
S1130CB0981710F48093FE0690E0DC01AA0FBB1F86
S1130CC0AA0FBB1FAA0FBB1F8A0F9B1FDC01A55DC8
S1130CD0B84F11960D90BC91A02DB583A4831496A2
S1130CE08D919C911597978386831496CD91DC9171
S1130CF015973B832A8315963C932E931497A689C4
S1130D00B0E0CD01880F991F880F991F880F991F94
S1130D10A80FB91FA55DB84FB387A2878C918F5FC9
S1130D208C939689A0914F07B091500756968C9159
S1130D30981730F081E08093FA0602C0E0E0F0E01A
S1130D4080910C07811165CFEF2B11F00E94D00226
S1130D50C091FB06D091FC06209769F00E94DC0448
S1130D60882319F081E08093FA062197B9F710924D
S1130D70FC061092FB068091FA06882331F00E944B
S1130D80FC0081E003C080E001C080E00F900FBE52
S1130D90DF91CF9108958091F306882321F081E0BB
S1130DA08093FA0608951092FA062091FE0601C077
S1130DB02150822F90E0FC01EE0FFF1FEE0FFF1F6A
S1130DC0EE0FFF1FE80FF91FE55DF84F3081332365
S1130DD079F3AC01440F551F440F551F440F551FA1
S1130DE0480F591FDF010180F281E02D0280F38159
S1130DF0E02D1296FC93EE931197425D584FE41741
S1130E00F50729F442815381FD0152834183FC019A
S1130E10EE0FFF1FEE0FFF1FEE0FFF1F8E0F9F1F22
S1130E20FC01E55DF84F0180F281E02D8681978118
S1130E309093500780934F072093FE06089515B8AA
S1130E402FEF89E698E1215080409040E1F700C0FF
S1130E50000080E385B92FEF89E698E121508040B6
S1130E609040E1F700C0000008958FEF84B915B8F1
S1130E700895EF92FF920F93CF93DF9300D0CDB7F5
S1130E80DEB70E943507CE0101967C0101E020E027
S1130E9030E046E950E068E071E08FE197E00E94BD
S1130EA056040E94AA0480E090E00F900F90DF9116
S1110EB0CF910F91FF90EF900895F894FFCF2B
S1110EBEDB050349444C4500626C6E6B00007A
S9030000FC
