S00C00006C6162342E73726563B5
S11300000C9434000C9451000C9451000C94510045
S11300100C9451000C9451000C9451000C94510018
S11300200C9451000C9451000C9451000C94EB026C
S11300300C9451000C9451000C9451000C945100F8
S11300400C9451000C9451000C9451000C945100E8
S11300500C9451000C9451000C9451000C945100D8
S11300600C9451000C94510011241FBECFEFD8E022
S1130070DEBFCDBF11E0A0E0B1E0E8EFFAE102C0DD
S113008005900D92AE34B107D9F727E0AEE4B1E0A4
S113009001C01D92A539B207E1F70E94170D0C9417
S11300A07A0D0C9400002AE030E06AC0A901F9013D
S11300B072973A97F0F4E82FF0E02E173F07C9F44F
S11300C0245134B181E090E002C0880F991F2A9531
S11300D0E2F7232F282B24B9683611F0683421F471
S11300E095B1892B85B9089595B18095892385B9F2
S11300F00895FA017C973A97F0F4E82FF0E02E1770
S11301003F07C9F42E5137B181E090E002C0880F57
S1130110991F2A95E2F7232F282B27B9683611F067
S1130120683421F498B1892B88B9089598B18095E1
S1130130892388B90895465251094A305105F0F48B
S1130140482F50E024173507C9F428523AB181E00A
S113015090E002C0880F991F2A95E2F7232F282BDD
S11301602AB9683611F0683421F49BB1892B8BB914
S113017008959BB1809589238BB908952F5F3F4FD4
S1130180203331050CF492CF08952AE030E04AC0C0
S1130190A901B901625171096A30710590F4682F9F
S11301A070E02617370769F4ECEEE20F94B161E0D2
S11301B070E002C0660F771FEA95E2F76095692345
S11301C064B9BA016C5171096A30710590F4682FF1
S11301D070E02617370769F4E2EEE20F97B161E0A9
S11301E070E002C0660F771FEA95E2F76095692315
S11301F067B9465251094A30510590F4482F50E0EE
S11302002417350769F468ED620F9AB141E050E0B4
S113021002C0440F551F6A95E2F7409549234AB935
S11302202F5F3F4F203331050CF4B2CF08952AE0FD
S113023030E054C0A901B901625171096A307105F5
S1130240A0F4682F70E02617370779F4245183B19E
S113025090E0AC0102C0559547952A95E2F7CA0192
S11302608170992740FD3FC00895BA016C5171090E
S11302706A307105B0F4682F70E02617370789F4E7
S11302802E5186B190E0AC0102C0559547952A9550
S1130290E2F7CA018170992740FF27C081E090E00E
S11302A00895465251094A305105B0F4482F50E0A0
S11302B02417350789F4285289B190E0AC0102C0B3
S11302C0559547952A95E2F7CA018170992740FF11
S11302D00CC081E090E008952F5F3F4F203331053B
S11302E00CF4A8CF089581E090E00895E2ECF0E0EA
S11302F080818660808387E68093C4001092C50065
S1130300E1ECF0E080818861808308959091C000E1
S113031095FFFCCF8093C6000895109289008CE766
S1130320809388008BE080938100EFE6F0E0808189
S113033082608083089531E1FC013083319722E2A9
S113034020833197A3E3A08331976083319770832F
S113035031971082319760E860833197108231972A
S113036062E06083319763E06083319764E0608387
S1130370319765E06083319766E06083319767E089
S11303806083319768E06083319769E060833197D7
S113039060E1608331973083319732E13083319764
S11303A033E13083319734E13083319735E1308361
S11303B0319736E13083319737E13083319738E133
S11303C03083319739E13083319730E2308331978C
S11303D031E2308331972083319723E220833197B0
S11303E0408331975083319726E22083319727E267
S11303F02083319728E22083319729E220833197A3
S113040020E32083319721E32083869708950E9477
S11304108D01A0918F07B0919007CD91CDBFDD9153
S1130420DEBFFF91EF91DF91CF91BF91AF919F918B
S11304308F917F916F915F914F913F912F911F9178
S11304400F91FF90EF90DF90CF90BF90AF909F906F
S11304508F907F906F905F904F903F902F901F9060
S11304600F900FBE0F90089581E008950F920FB67C
S1130470F8940F921F9211242F923F924F925F9201
S11304806F927F928F929F92AF92BF92CF92DF92A0
S1130490EF92FF920F931F932F933F934F935F938A
S11304A06F937F938F939F93AF93BF93CF93DF9378
S11304B0EF93FF93A0918F07B09190070DB60D9223
S11304C00EB60D920E94010BA0918F07B091900778
S11304D0CD91CDBFDD91DEBFFF91EF91DF91CF9143
S11304E0BF91AF919F918F917F916F915F914F9148
S11304F03F912F911F910F91FF90EF90DF90CF903C
S1130500BF90AF909F908F907F906F905F904F902F
S11305103F902F901F900F900FBE0F9008950F9251
S11305200FB6F8940F921F9211242F923F924F927C
S11305305F926F927F928F929F92AF92BF92CF926F
S1130540DF92EF92FF920F931F932F933F934F935A
S11305505F936F937F938F939F93AF93BF93CF9347
S1130560DF93EF93FF93A0918F07B09190070DB69F
S11305700D920EB60D920E94120981110E94010B78
S1130580A0918F07B0919007CD91CDBFDD91DEBFD3
S1130590FF91EF91DF91CF91BF91AF919F918F9197
S11305A07F916F915F914F913F912F911F910F9187
S11305B0FF90EF90DF90CF90BF90AF909F908F907F
S11305C07F906F905F904F903F902F901F900F906F
S11305D00FBE0F9008950E948F021895A3E5B1E015
S11305E0E7E5F1E01196FC93EE9313961C921E92AC
S11305F01297AFE4B1E08BED95E013969C938E9344
S1130600129711961C921E9293838283B183A083C6
S11306100895EF92FF920F931F93CF93DF93EC0112
S11306200E940C0980914E01811105C00E94EE02C6
S113063081E080934E01209771F0CE010496C81793
S1130640D90738F425968C179D0728F0C0E0D0E030
S113065002C0C0E0D0E0209709F45EC02091000100
S1130660309101012C173D0708F459C0E091530162
S1130670F0915401A3E5B1E002C0DF01FC018281E5
S113068093818C179D0720F4808191810097A9F7AD
S113069081E0EF34F80709F445C00D911C911197DE
S11306A00C5F1F4F808191818D939C9382819381F4
S11306B08C1B9D0B8930910530F1BF016C0F7D1FA0
S11306C0DB0113969C938E931297D383C283129665
S11306D04D915C9113970F2EF3E5EF2EF1E0FF2E71
S11306E0F02D01C07D01E701A881B98112968D9199
S11306F09C91139784179507A8F3EB01B983A883FA
S1130700D7016D937C9382819381281B390B30939D
S113071001012093000108C000E010E005C000E0E2
S113072010E002C000E010E00E942C0AC801DF9132
S1130730CF911F910F91FF90EF9008950F931F9306
S1130740CF93DF93009741F1EC018C010450110920
S11307500E940C09F80142815381A3E5B1E001C074
S1130760DF01ED91FC911197228133812417350724
S1130770B8F32497F983E8830D931C938A819B81B2
S11307802091000130910101820F931F9093010188
S1130790809300010E942C0ADF91CF911F910F9149
S11307A00895FC010396928381832FEF3FEF3483F6
S11307B02383968385839087878310820895FC0121
S11307C0118610860895CF93DF93EB0148815981F8
S11307D04F3F2FEF520721F4FC01A781B0850DC0D4
S11307E0DC01139601C0DF011296ED91FC91139781
S11307F02081318142175307B0F71296ED91FC9195
S11308001397FB83EA83D583C483BD83AC83139698
S1130810DC93CE93129799878887FC0120812F5F00
S11308202083DF91CF910895CF93DF93FC01A085BE
S1130830B185C281D381848195819D838C83C48158
S1130840D581828193819B838A8311968D919C911A
S11308501297E817F90731F48481958112969C93D5
S11308608E931197118610868C9181508C938C9164
S1130870DF91CF9108950FB6F8940F92FC01828D09
S1130880811102C081E001C080E00F900FBE089585
S11308900FB6F8940F92FC01228D838D281302C0A9
S11308A081E001C080E00F900FBE08950F931F9365
S11308B0CF93DF93EC01042F1A8D4C8D4423B9F1AF
S11308C0011116C050E08A819B810E94710D2C8D0C
S11308D08A819B81820F911D9B838A832C813D8118
S11308E08217930720F1888199819B838A831FC093
S11308F050E08E819F810E94710D8C8D90E09195C6
S1130900819591092E813F81280F391F3F832E83C2
S1130910488159812417350730F42C813D81820F99
S1130920931F9F838E83023011F4111111501F5FA6
S11309301A8F80E0DF91CF911F910F910895FC01F0
S1130940448D4423A9F050E026813781240F351FBC
S113095037832683848195812817390720F0808185
S1130960918197838683CB01668177810E94710D83
S113097008951F93CF93DF93EC010FB6F8940F9271
S11309801E8D0BC08989882351F0CE0141960E94A7
S1130990670B81110E94610C115011169CF38FEFAB
S11309A08E8F0F900FBE0FB6F8940F921D8D0BC053
S11309B08885882351F0CE0108960E94670B811127
S11309C00E94610C115011169CF38FEF8D8F0F90C4
S11309D00FBEDF91CF911F9108950F931F93CF9373
S11309E0DF93FC01362F892B09F44DC0238D22237C
S11309F009F44BC0022F10E08FEF9FEFB8010E9463
S1130A005D0D448D842F90E06817790708F43FC08A
S1130A10EF010FB6F8940F9260817181FB01249F5E
S1130A20E00DF11D1124FD83EC831A8E7B836A8310
S1130A3001501109809FA001819F500D909F500D7E
S1130A401124CB01840F951F9F838E838FEF8D8F8D
S1130A508E8F31110CC08885882389F0CE010896C9
S1130A600E94670B882359F00E94360208C0CE0109
S1130A7008960E94D103CE0141960E94D1030F90A3
S1130A800FBE81E005C080E003C080E001C080E0CB
S1130A90DF91CF911F910F9108950F931F93F80148
S1130AA0611103C01183008302C051834083838F8B
S1130AB0648F61E0CF010E94ED041F910F910895AE
S1130AC0DF92EF92FF920F931F93CF93DF93382F10
S1130AD0E62F882329F1682F70E08FEF9FEF0E94A3
S1130AE05D0D8E2F90E068177907E8F03E9FC001F6
S1130AF01124813E2FEF9207C8F4D42EDE2FC32F8A
S1130B004F960E9409037C01009791F08C012D2DD2
S1130B10AC01415E5F4F6D2F8C2F0E944D0508C0C4
S1130B20E12CF12C05C0E12CF12C02C0E12CF12CBC
S1130B30C701DF91CF911F910F91FF90EF90DF904C
S1130B400895CF92DF92EF92FF920F931F93CF936A
S1130B50DF9300D000D01F92CDB7DEB78C017B01AC
S1130B605D834C83C22ED12C0FB6F8940F92F801FA
S1130B70928D838D981718F0F2E0CF1219C04C2D86
S1130B80B701C8010E945604F8019189992349F0DC
S1130B90C80141960E94670B882331F00E943602F7
S1130BA003C081110E9436020F900FBE81E04DC038
S1130BB08C819D81892B21F40F900FBE80E045C06C
S1130BC0D11006C0CE0101960E94240CDD24D394DA
S1130BD00F900FBE0E940C090FB6F8940F92F80103
S1130BE0858D8F3F09F4158EF801868D8F3F09F4AA
S1130BF0168E0F900FBEBE016C5F7F4FCE01019623
S1130C000E942F0C81111BC0C8010E944804882334
S1130C1081F06C817D81C80108960E94550BC80142
S1130C200E94B9040E942C0A81119ECF0E943602B0
S1130C309BCFC8010E94B9040E942C0A95CFC80119
S1130C400E94B9040E942C0A80E00F900F900F902C
S1130C500F900F90DF91CF911F910F91FF90EF9024
S1130C60DF90CF900895CF92DF92EF92FF920F938F
S1130C701F93CF93DF9300D000D01F92CDB7DEB780
S1130C808C016B015D834C83E12C0FB6F8940F92B9
S1130C90F801F28CFF20A9F0B601C8010E949F045C
S1130CA0FA94F801F28E8085882339F0C8010896F9
S1130CB00E94670B81110E9436020F900FBE81E0E3
S1130CC053C08C819D81892B21F40F900FBE80E04D
S1130CD04BC0E11006C0CE0101960E94240CEE2404
S1130CE0E3940F900FBE0E940C090FB6F8940F9274
S1130CF0F801858D8F3F09F4158EF801868D8F3F9D
S1130D0009F4168E0F900FBEBE016C5F7F4FCE01AB
S1130D1001960E942F0C81111BC0C8010E943B0444
S1130D20882381F06C817D81C80141960E94550B16
S1130D30C8010E94B9040E942C0A8111A6CF0E9406
S1130D403602A3CFC8010E94B9040E942C0A9DCF89
S1130D50C8010E94B9040E942C0AC8010E943B04E5
S1130D60882309F492CF80E00F900F900F900F909A
S1130D700F90DF91CF911F910F91FF90EF90DF9033
S1130D80CF900895E0915707F09158078081811121
S1130D9007C08FEF9FEF909337078093360708952E
S1130DA0E0915707F09158070580F681E02D808186
S1130DB0918190933707809336070895CF93DF93FB
S1130DC0EC018F89988D0E949E03CE010E949E03A0
S1130DD0DF91CF9108956F927F928F929F92AF92FD
S1130DE0BF92CF92DF92EF920F931F93CF93DF9333
S1130DF0CDB7DEB74C01D50157968D919C9158978C
S1130E00215031093C01620E731E6115710589F48C
S1130E1016C0822F90E0FB01E80FF91F3081D50145
S1130E20A80FB91F59963C938081882329F02F5F1E
S1130E3001C020E0283068F3F50110A203C0D501F9
S1130E4059961C92B3E0BE1520F40F2EF3E0EF2E5A
S1130E50F02DF501E68AC50102960E94DF03C50163
S1130E600C960E94DF03D5011996BC92AE92189796
S1130E7084E090E08E1991091D969C938E931C97A3
S1130E805396BC92AE92529784E0F501B196DF017D
S1130E901D928A95E9F7F50115A2A801B401C301D1
S1130EA00E949B01D5018D939C93C114D10419F028
S1130EB0F601B182A082DF91CF911F910F91EF9043
S1130EC0DF90CF90BF90AF909F908F907F906F9066
S1130ED00895CF93C0E010C08C2F90E09C01220FA6
S1130EE0331F220F331F220F331F820F931F855985
S1130EF0984F0E94D103CF5FC43070F382E697E02D
S1130F000E94D10389E597E00E94D1038CE497E025
S1130F100E94D10383E497E00E94D10382E697E024
S1130F20909358078093570789E597E09093560765
S1130F3080935507CF910895CF93DF93EC010FB6BB
S1130F40F8940F92809141078F5F809341078091BD
S1130F508F0790919007892B59F4D0939007C093F1
S1130F608F0780914107813099F40E94690710C06E
S1130F7080913D0781110CC0E0918F07F09190079B
S1130F8096898E89891720F0D0939007C0938F0794
S1130F90809138078F5F809338078E8990913E0740
S1130FA0981710F480933E0790E0FC01EE0FFF1FAA
S1130FB0EE0FFF1FEE0FFF1F8E0F9F1FFC01E55961
S1130FC0F84F0180F281E02DFD83EC8384819581CB
S1130FD09F838E83A481B581CE01029613969C9340
S1130FE08E93129795838483EE89F0E0CF01880F66
S1130FF0991F880F991F880F991FE80FF91FE5594A
S1131000F84FFB87EA8780818F5F80830F900FBE44
S113101080913D07882351F0E0918F07F09190076C
S113102096898E89981710F40E943602DF91CF9129
S11310300895CF93DF931CC00FB6F8940F92E091FC
S11310404807F0914907C681D781CE0102960E94D4
S11310501404809141078150809341078091420795
S11310608150809342070F900FBECE010E94DE068E
S1131070809142078111E0CFDF91CF9108950E94C2
S1131080190880916B078230D0F30E943602F7CFA3
S11310900F931F93CF93DF93EC0100913F071091BF
S11310A0400780918F079091900702960E94140444
S11310B0C00FD11FE0918F07F0919007D383C283B3
S11310C0C017D10768F460918F07709190078091E1
S11310D05507909156076E5F7F4F0E94E30317C038
S11310E060918F07709190078091570790915807EE
S11310F06E5F7F4F0E94E30380913607909137071C
S1131100C817D90720F4D0933707C0933607DF9167
S1131110CF911F910F9108952F923F924F925F921A
S11311206F927F928F929F92AF92BF92CF92DF92F3
S1131130EF92FF920F931F93CF93DF933C011B0118
S11311405A012901CA010E9409036C01892B71F01B
S113115086E290E00E940903EC01892B19F0D88EF5
S1131160CF8A06C0C6010E949E0302C0C0E0D0E040
S1131170209791F0950140E050E0812C912C5E0184
S11311806701E02E8201B101C3010E94EB06CE018A
S11311900E949C0781E001C08FEFDF91CF911F91E6
S11311A00F91FF90EF90DF90CF90BF90AF909F9002
S11311B08F907F906F905F904F903F902F90089505
S11311C0EF92FF920F930F2EF4E3EF2EF7E0FF2E32
S11311D0F02D00E020E030E045E550E065E171E00D
S11311E08FE398E00E948C08813081F4F8948FEFAB
S11311F09FEF909337078093360781E080933D07F4
S11312001092400710923F070E940702809102014A
S11312100F91FF90EF900895809133078F5F809333
S1131220330708950F931F93CF93DF938091330770
S1131230811101C1C0913F07D09140078E010F5F1A
S11312401F4F1093400700933F0701151105B9F490
S11312508091570790915807209155073091560770
S11312603093580720935707909356078093550758
S1131270809139078F5F809339070E94C20680915D
S11312803607909137070817190720F480E0B8C093
S113129081E001C080E0E0915707F0915807908108
S11312A0911107C02FEF3FEF309337072093360794
S11312B0A7C0E0915707F09158070580F681E02D0B
S11312C00680F781E02D228133810217130728F469
S11312D0309337072093360793C0A285B3852481C2
S11312E0358146815781E9015D834C8326813781AD
S11312F044815581E9015B834A8311962D913C9188
S11313001297AF014E5F5F4F2417350731F42681E2
S1131310378112963C932E931197138612869C91D3
S113132091509C93A489B589109719F12685378526
S113133060897189E9017D836C832089318966859F
S11313407785E9017B836A8311966D917C9112976D
S11313509F01245F3F4F6217730731F4208931895D
S113136012963C932E931197158A148A9C9191504E
S11313709C93268990913E07921710F420933E0780
S113138030E0D901AA0FBB1FAA0FBB1FAA0FBB1FB6
S11313902A0F3B1FD901A559B84F11960D90BC9146
S11313A0A02DB583A48314962D913C911597378372
S11313B0268314962D913C911597E9015B834A830A
S11313C015965C934E931497A689B0E09D01220F65
S11313D0331F220F331F220F331FA20FB31FA55930
S11313E0B84FB387A2879C919F5F9C932689E09115
S11313F08F07F09190079689291708F049CF4BCFB2
S1131400E0918F07F0919007268930E0F901EE0F03
S1131410FF1FEE0FFF1FEE0FFF1F2E0F3F1FF901DF
S1131420E559F84F9081923008F081E090913A07A5
S113143091110CC00CC080913B0790913C07019620
S113144090933C0780933B0780E001C081E0DF91EB
S1131450CF911F910F910895CF93DF930FB6F89416
S11314600F92809133078150809333078091330723
S11314708111BFC080914107811196C0BDC0E09128
S11314805107F09152070680F781E02DA489B589B0
S1131490C685D785808991899D838C83C089D189AC
S11314A0868597859B838A8311962D913C9112970B
S11314B0CF010C962817390731F480899189129647
S11314C09C938E931197158A148A8C9181508C93D6
S11314D0A285B385C481D581868197819D838C83C0
S11314E0C681D781848195819B838A8311968D914E
S11314F09C9112979F012E5F3F4F8217930731F4FF
S11315008681978112969C938E93119713861286E7
S11315108C9181508C93868990913E07981710F492
S113152080933E0790E0DC01AA0FBB1FAA0FBB1FEC
S1131530AA0FBB1F8A0F9B1FDC01A559B84F119638
S11315400D90BC91A02DB583A48314968D919C918C
S11315501597978386831496CD91DC9115973B83D9
S11315602A8315963C932E931497A689B0E0CD0157
S1131570880F991F880F991F880F991FA80FB91FEB
S1131580A559B84FB387A2878C918F5F8C939689A6
S1131590A0918F07B091900756968C91981730F0D0
S11315A081E080933A0702C0E0E0F0E080914C07CC
S11315B0811165CFEF2B11F00E94C206C0913B0749
S11315C0D0913C07209769F00E941209882319F0F2
S11315D081E080933A072197B9F710923C07109263
S11315E03B0780913A07882331F00E94360281E05C
S11315F003C080E001C080E00F900FBEDF91CF9167
S1131600089580913307882321F081E080933A077D
S1131610089510923A0720913E0701C02150822F6D
S113162090E0FC01EE0FFF1FEE0FFF1FEE0FFF1FF8
S1131630E80FF91FE559F84F3081332379F3AC01F2
S1131640440F551F440F551F440F551F480F591F72
S1131650DF010180F281E02D0280F381E02D1296FA
S1131660FC93EE9311974259584FE417F50729F468
S113167042815381FD0152834183FC01EE0FFF1F20
S1131680EE0FFF1FEE0FFF1F8E0F9F1FFC01E5598A
S1131690F84F0180F281E02D868197819093900725
S11316A080938F0720933E070895CF93DF93EB0138
S11316B060918F0770919007645F7F4F0E94E303EE
S11316C061E0CE010E944808DF91CF910895CF9345
S11316D0DF93DC011596ED91FC9116970680F78156
S11316E0E02DA489B589C685D785808991899D8394
S11316F08C83C089D189868597859B838A8311963B
S11317008D919C9112979F01245F3F4F82179307FD
S113171031F48089918912969C938E931197158A3E
S1131720148A8C9181508C9380913307811160C00D
S1131730A285B385C481D581868197819D838C835D
S1131740C681D781848195819B838A8311968D91EB
S11317509C9112979F012E5F3F4F8217930731F49C
S11317608681978112969C938E9311971386128685
S11317708C9181508C93868990913E07981710F430
S113178080933E0790E0DC01AA0FBB1FAA0FBB1F8A
S1131790AA0FBB1F8A0F9B1FDC01A559B84F1196D6
S11317A00D90BC91A02DB583A48314968D919C912A
S11317B01597978386831496CD91DC9115973B8377
S11317C02A8315963C932E931497A689B0E0CD01F5
S11317D0880F991F880F991F880F991FA80FB91F89
S11317E0A559B84FB387A2878C918F5F8C931CC087
S11317F04CE457E0DA011196CD91DC911297D7872A
S1131800C6878C819D81918B808B8C819D81DC012D
S113181013963C932E9312973D832C83558B448BC4
S1131820DA018C918F5F8C939689E0918F07F09108
S113183090078689891720F481E080933A0701C0D4
S113184080E0DF91CF91089520913907FC01208336
S113185020913F0730914007328321830895CF932D
S1131860DF930FB6F8940F9240913F0750914007D1
S1131870EC0129813A81DA01A21BB30BF881E091D2
S11318803907FE1741F04217530728F0FB01118274
S1131890108281E011C0EB0128813981A217B307BE
S11318A040F42A1B3B0B398328830E94240C80E0DC
S11318B003C01982188281E00F900FBEDF91CF918F
S11318C0089581E080933A070895CF93DF93CDB7CD
S11318D0DEB762970FB6F894DEBF0FBECDBF86E0C9
S11318E0E3E0F1E0DE01119601900D928A95E1F7B3
S11318F08CE0E9E0F1E0DE01179601900D928A9503
S1131900E1F7F12C01C0F12C84E10E941701019749
S1131910D9F72FEF82E597E0215080409040E1F71E
S113192000C000000F2D10E0B801660F771F87E09C
S113193090E08C0F9D1F680F791F20E048EE53E064
S113194080919307909194070E94A10561E070E053
S11319506C0F7D1F600F711F20E048EE53E08091F3
S11319609107909192070E94A105F39495E09F1529
S113197050F2CACF0F931F93CF93DF938C01C0E033
S1131980D0E003C00E9486012196F801EC0FFD1FF0
S113199080818111F7CF8AE00E948601DF91CF9187
S11319A01F910F910895CF93DF9300D01F92CDB76D
S11319B0DEB741E050E0BE016F5F7F4F8091910739
S11319C0909192070E94330641E050E0BE016E5FA1
S11319D07F4F80919307909194070E943306882348
S11319E021F08A819B810E94BA0C1BB868E6898128
S11319F00E9453002FEF89E698E1215080409040E7
S1131A00E1F700C000006CE689810E9453002FEFCB
S1131A1089E698E1215080409040E1F700C0000041
S1131A20C8CF84E10E94C5000E9476010895EF9218
S1131A30FF920F93CF93DF9300D000D0CDB7DEB7E2
S1131A400E94110D40E062E085E00E9460059093E1
S1131A5094078093930740E061E085E00E9460056D
S1131A609093920780939107CE0101967C0101E047
S1131A7020E030E046E950E06EE371E083ED9CE065
S1131A800E948C08CE0103967C0120E030E046E9F8
S1131A9050E066E471E085E69CE00E948C080E94B8
S1131AA0E00880E090E00F900F900F900F90DF918E
S1131AB0CF910F91FF90EF900895AA1BBB1B51E1AA
S1131AC007C0AA1FBB1FA617B70710F0A61BB70BAA
S1131AD0881F991F5A95A9F780959095BC01CD014F
S1131AE00895FB01DC0102C001900D924150504069
S10B1AF0D8F70895F894FFCF24
S1131AF8DB05032A2B2C2D2E2F1A01210127012B5C
S1131B08013001370149444C4500677265656E31FF
S1131B180077686974650072656400626C756500B5
S1131B28677265656E320079656C6C6F77007072E8
S1111B386F636573730068616E646C657200A0
S9030000FC
