:100000000C945A000C946C000C946C000C946C00D2
:100010000C946C000C946C000C946C000C946C00B0
:100020000C946C000C946C000C946C000C946C00A0
:100030000C946C000C946C000C946C000C946C0090
:100040000C946C000C946C000C946C000C946C0080
:100050000C946C000C946C000C946C000C946C0070
:100060000C946C000C946C000C946C000C946C0060
:100070000C946C000C946C000C946C000C946C0050
:100080000C946C000C946C000C946C000C946C0040
:100090000C946C000C946C000C946C000C946C0030
:1000A0000C946C000C946C000C946C000C946C0020
:1000B0000C946C0011241FBECFEFD8E0DEBFCDBF83
:1000C00021E0A0E0B1E001C01D92A231B207E1F74A
:1000D0000E94DD040C947D070C940000E0E0F1E048
:1000E00024E230E03183208385E290E097838683A9
:1000F00048E04487338322839187808744E04587A3
:10010000358324839387828782E086871786108AC7
:10011000118A84B18E6084B925B1286088E893E1A2
:1001200005C0E0E9F1E03197F1F701970097C9F7D1
:10013000246088E893E105C0E0E9F1E03197F1F748
:1001400001970097C9F7226088E893E105C0E0E9CC
:10015000F1E03197F1F701970097C9F72D7F88E813
:1001600093E105C0E0E9F1E03197F1F701970097DD
:10017000C9F72B7F88E893E105C0E0E9F1E031970A
:10018000F1F701970097C9F7822F877F85B988E833
:1001900093E105C0E0E9F1E03197F1F701970097AD
:1001A000C9F708952F923F924F925F926F927F927C
:1001B0008F929F92AF92BF92CF92DF92EF92FF9277
:1001C0000F931F93CF93DF93CDB7DEB729970FB669
:1001D000F894DEBF0FBECDBF082F162FBA0180E006
:1001E00090E00E94F5059B01AC0160E070E080E8C2
:1001F0009FE30E94540520E034E244E759E40E9462
:10020000AC060E94C6056B017C0124E6029FC0017A
:1002100011246FEF70E00E941907A62FB0E0A7012C
:1002200096010E944F0724E630E040E050E00E9433
:100230002D07C21AD30AE40AF50A113009F43DC1A8
:1002400020F0123009F46DC29FC3A0E0B1E0169611
:10025000ED91FC9117971C961C918081812B8083D6
:10026000CA01B9010E94F5054B015C012BEA3AEA8B
:100270004AEA50E40E94AC062B013C0120E030E049
:1002800040E850E4C501B4010E94AC0669837A835A
:100290008B839C8320E030E040E85FE3C301B20140
:1002A0000E944F0588230CF46BC020E03FEF4FE71E
:1002B00057E469817A818B819C810E94A706181678
:1002C0000CF044C020E030E04AE754E4C501B4013A
:1002D0000E9454052B013C0120E030E04AE755E440
:1002E0000E94AC064B015C0120E030E040E85FE397
:1002F0000E944F05882324F120E03FEF4FE757E4A9
:10030000C501B4010E94A7061816ACF420E030E045
:1003100040E251E4C301B2010E94AC060E94C6054E
:1003200006C080E991E00197F1F76150710961150C
:100330007105B9F727C0C501B4010E94C60502C006
:1003400061E070E0CB010197F1F71CC020E030E0E4
:100350004FE753E4C301B2010E94A706181654F4F4
:1003600069817A818B819C810E94C605CB010197AE
:10037000F1F70BC0C301B2010E94C605698702C034
:1003800081E0898799859A95F1F7E0910A01F091CA
:100390000B011095808118231083C701B6010E94BC
:1003A000F5056B017C012BEA3AEA4AEA50E40E9427
:1003B000AC064B015C0120E030E040E850E4C701AE
:1003C000B6010E94AC062B013C0120E030E040E881
:1003D0005FE3C501B4010E944F0588230CF467C098
:1003E00020E03FEF4FE757E4C301B2010E94A706A8
:1003F00018160CF044C020E030E04AE754E4C7018E
:10040000B6010E9454054B015C0120E030E04AE750
:1004100055E40E94AC066B017C0120E030E040E82E
:100420005FE30E944F05882324F120E03FEF4FE770
:1004300057E4C701B6010E94A7061816ACF420E0E5
:1004400030E040E251E4C501B4010E94AC060E94D4
:10045000C60506C080E991E00197F1F76150710986
:1004600061157105B9F725C0C701B6010E94C6051F
:1004700002C061E070E0CB010197F1F71AC020E003
:1004800030E04FE753E4C501B4010E94A7061816F7
:1004900044F4C301B2010E94C605CB010197F1F7F4
:1004A00073C2C501B4010E94C6056F8302C0E1E0BA
:1004B000EF83FF81FA95F1F767C2E0E0F1E0808514
:1004C000918598878F831585FC010081012B00831E
:1004D000CA01B9010E94F5054B015C012BEA3AEA19
:1004E0004AEA50E40E94AC062B013C0120E030E0D7
:1004F00040E850E4C501B4010E94AC0669837A83E8
:100500008B839C8320E030E040E85FE3C301B201CD
:100510000E944F0588230CF46BC020E03FEF4FE7AB
:1005200057E469817A818B819C810E94A706181605
:100530000CF044C020E030E04AE754E4C501B401C7
:100540000E9454052B013C0120E030E04AE755E4CD
:100550000E94AC064B015C0120E030E040E85FE324
:100560000E944F05882324F120E03FEF4FE757E436
:10057000C501B4010E94A7061816ACF420E030E0D3
:1005800040E251E4C301B2010E94AC060E94C605DC
:1005900006C080E991E00197F1F76150710961159A
:1005A0007105B9F727C0C501B4010E94C60502C094
:1005B00061E070E0CB010197F1F71CC020E030E072
:1005C0004FE753E4C301B2010E94A706181654F482
:1005D00069817A818B819C810E94C605CB0101973C
:1005E000F1F70BC0C301B2010E94C6056D8302C0C2
:1005F000F1E0FD838D818A95F1F710950123EF815C
:10060000F8850083C701B6010E94F5056B017C01E6
:100610002BEA3AEA4AEA50E40E94AC064B015C013C
:1006200020E030E040E850E4C701B6010E94AC068B
:100630002B013C0120E030E040E85FE3C501B4015C
:100640000E944F0588230CF467C020E03FEF4FE77E
:1006500057E4C301B2010E94A70618160CF044C06B
:1006600020E030E04AE754E4C701B6010E94540597
:100670004B015C0120E030E04AE755E40E94AC0603
:100680006B017C0120E030E040E85FE30E944F0511
:10069000882324F120E03FEF4FE757E4C701B6017C
:1006A0000E94A7061816ACF420E030E040E251E4C6
:1006B000C501B4010E94AC060E94C60506C080E9CF
:1006C00091E00197F1F76150710961157105B9F772
:1006D00025C0C701B6010E94C60502C061E070E0F6
:1006E000CB010197F1F71AC020E030E04FE753E467
:1006F000C501B4010E94A706181644F4C301B20153
:100700000E94C605CB010197F1F73EC1C501B401B6
:100710000E94C605262E02C0222423942A94F1F7B3
:1007200033C1E0E0F1E08285938598878F83168559
:10073000FC010081012B0083CA01B9010E94F5056B
:100740004B015C012BEA3AEA4AEA50E40E94AC060B
:100750002B013C0120E030E040E850E4C501B40149
:100760000E94AC0669837A838B839C8320E030E00F
:1007700040E85FE3C301B2010E944F0588230CF4F7
:100780006BC020E03FEF4FE757E469817A818B81AE
:100790009C810E94A70618160CF044C020E030E0AF
:1007A0004AE754E4C501B4010E9454052B013C0101
:1007B00020E030E04AE755E40E94AC064B015C01C2
:1007C00020E030E040E85FE30E944F05882324F1F9
:1007D00020E03FEF4FE757E4C501B4010E94A706B0
:1007E0001816ACF420E030E040E251E4C301B2015D
:1007F0000E94AC060E94C60506C080E991E0019700
:10080000F1F76150710961157105B9F727C0C5018C
:10081000B4010E94C60502C061E070E0CB010197FF
:10082000F1F71CC020E030E04FE753E4C301B20110
:100830000E94A706181654F469817A818B819C81E5
:100840000E94C605CB010197F1F70BC0C301B201AD
:100850000E94C6056E8302C0F1E0FE838E818A95F8
:10086000F1F710950123EF81F8850083C701B601E8
:100870000E94F5056B017C012BEA3AEA4AEA50E452
:100880000E94AC064B015C0120E030E040E850E4FF
:10089000C701B6010E94AC062B013C0120E030E00C
:1008A00040E85FE3C501B4010E944F0588230CF4C2
:1008B00067C020E03FEF4FE757E4C301B2010E9459
:1008C000A70618160CF044C020E030E04AE754E4D4
:1008D000C701B6010E9454054B015C0120E030E0E5
:1008E0004AE755E40E94AC066B017C0120E030E051
:1008F00040E85FE30E944F05882324F120E03FEFAA
:100900004FE757E4C701B6010E94A7061816ACF4DA
:1009100020E030E040E251E4C501B4010E94AC06A1
:100920000E94C60506C080E991E00197F1F7615089
:10093000710961157105B9F725C0C701B6010E949B
:10094000C60502C061E070E0CB010197F1F71AC063
:1009500020E030E04FE753E4C501B4010E94A70650
:10096000181644F4C301B2010E94C605CB010197D9
:10097000F1F70AC0C501B4010E94C605362E02C0B7
:10098000332433943A94F1F729960FB6F894DEBFE6
:100990000FBECDBFDF91CF911F910F91FF90EF90D0
:1009A000DF90CF90BF90AF909F908F907F906F908F
:1009B0005F904F903F902F9008950E946E00C0E08E
:1009C000D0E007C048EE53E060E08C2F0E94D200D8
:1009D0002196CF3FD105B1F3ACF3CFEFD0E007C004
:1009E00048EE53E060E08C2F0E94D20021971C1645
:1009F0001D06B4F388EE93E005C0E0E9F1E031971D
:100A0000F1F701970097C9F7C0E0D0E007C048EEC2
:100A100053E061E08C2F0E94D2002196CF3FD10598
:100A2000B1F3ACF3CFEFD0E007C048EE53E061E0A4
:100A30008C2F0E94D20021971C161D06B4F388EE5D
:100A400093E005C0E0E9F1E03197F1F701970097F5
:100A5000C9F7C0E0D0E007C048EE53E062E08C2F59
:100A60000E94D2002196CF3FD105B1F3ACF3CFEF76
:100A7000D0E007C048EE53E062E08C2F0E94D20025
:100A800021971C161D06B4F388EE93E005C0E0E93B
:100A9000F1E03197F1F701970097C9F790CF0E94E5
:100AA000320608F481E008950E9468050C946D06F2
:100AB0000E94660658F00E945F0640F029F45F3FEE
:100AC00029F00C94560651110C94A1060C945C0666
:100AD0000E947E0668F39923B1F3552391F3951B89
:100AE000550BBB27AA2762177307840738F09F5F4F
:100AF0005F4F220F331F441FAA1FA9F335D00E2EBC
:100B00003AF0E0E832D091505040E695001CCAF728
:100B10002BD0FE2F29D0660F771F881FBB1F2617EB
:100B200037074807AB07B0E809F0BB0B802DBF01C2
:100B3000FF2793585F4F3AF09E3F510578F00C9491
:100B400056060C94A1065F3FE4F3983ED4F38695D5
:100B500077956795B795F7959F5FC9F7880F911DB2
:100B60009695879597F90895E1E0660F771F881F9E
:100B7000BB1F621773078407BA0720F0621B730B51
:100B8000840BBA0BEE1F88F7E09508950E94860645
:100B900088F09F5798F0B92F9927B751B0F0E1F03E
:100BA000660F771F881F991F1AF0BA95C9F714C0EE
:100BB000B13091F00E94A006B1E008950C94A00617
:100BC000672F782F8827B85F39F0B93FCCF3869527
:100BD00077956795B395D9F73EF490958095709584
:100BE00061957F4F8F4F9F4F0895E89409C097FB01
:100BF0003EF490958095709561957F4F8F4F9F4FF4
:100C00009923A9F0F92F96E9BB279395F695879537
:100C100077956795B795F111F8CFFAF4BB0F11F4FA
:100C200060FF1BC06F5F7F4F8F4F9F4F16C08823A1
:100C300011F096E911C0772321F09EE8872F762FD7
:100C400005C0662371F096E8862F70E060E02AF018
:100C50009A95660F771F881FDAF7880F9695879504
:100C600097F90895990F0008550FAA0BE0E8FEEFD9
:100C700016161706E807F907C0F012161306E40760
:100C8000F50798F0621B730B840B950B39F40A2659
:100C900061F0232B242B252B21F408950A2609F437
:100CA000A140A6958FEF811D811D089597F99F673B
:100CB00080E870E060E008959FEF80EC08950024E4
:100CC0000A941616170618060906089500240A94B1
:100CD00012161306140605060895092E0394000C37
:100CE00011F4882352F0BB0F40F4BF2B11F460FFC6
:100CF00004C06F5F7F4F8F4F9F4F089557FD9058EF
:100D0000440F551F59F05F3F71F04795880F97FBCF
:100D1000991F61F09F3F79F0879508951216130689
:100D20001406551FF2CF4695F1DF08C016161706B8
:100D30001806991FF1CF86957105610508940895ED
:100D4000E894BB2766277727CB0197F908950E947F
:100D5000320608F48FEF08950E94BF060C946D06CA
:100D60000E945F0638F00E94660620F0952311F07D
:100D70000C9456060C945C0611240C94A1060E9457
:100D80007E0670F3959FC1F3950F50E0551F629F4B
:100D9000F001729FBB27F00DB11D639FAA27F00DD4
:100DA000B11DAA1F649F6627B00DA11D661F829FFB
:100DB0002227B00DA11D621F739FB00DA11D621FE0
:100DC000839FA00D611D221F749F3327A00D611DFD
:100DD000231F849F600D211D822F762F6A2F1124DF
:100DE0009F5750409AF0F1F088234AF0EE0FFF1F12
:100DF000BB1F661F771F881F91505040A9F79E3F69
:100E0000510580F00C9456060C94A1065F3FE4F364
:100E1000983ED4F3869577956795B795F795E795BE
:100E20009F5FC1F7FE2B880F911D9695879597F9C7
:100E3000089597FB072E16F4009407D077FD09D08C
:100E40000E945A0707FC05D03EF4909581959F4F6C
:100E50000895709561957F4F0895A1E21A2EAA1BFF
:100E6000BB1BFD010DC0AA1FBB1FEE1FFF1FA2175A
:100E7000B307E407F50720F0A21BB30BE40BF50B57
:100E8000661F771F881F991F1A9469F760957095E0
:100E9000809590959B01AC01BD01CF0108950E9402
:100EA0006E07A59F900DB49F900DA49F800D911D7E
:100EB00011240895AA1BBB1B51E107C0AA1FBB1F29
:100EC000A617B70710F0A61BB70B881F991F5A95D6
:100ED000A9F780959095BC01CD010895A29FB0011E
:100EE000B39FC001A39F700D811D1124911DB29F5E
:0E0EF000700D811D1124911D0895F894FFCFFF
:00000001FF
