S01700004763634170706C69636174696F6E312E737265635B
S11300000C9434000C943E000C943E000C943E007E
S11300100C943E000C943E000C943E000C943E0064
S11300200C943E000C943E000C943E000C943E0054
S11300300C943E000C943E000C943E000C943E0044
S11300400C943E000C943E000C943E000C943E0034
S11300500C943E000C943E000C943E000C943E0024
S11300600C943E000C943E0011241FBECFEFD8E048
S1130070DEBFCDBF0E9440000C945E000C940000D3
S11300808FEF84B915B824E535E885E491E0215073
S1130090304080409040D9F700C000C0000080E3A9
S11300A085B924E535E885E491E02150304080406D
S11300B09040D9F700C000C00000E4CFF894FFCF0F
S9030000FC
