S00C0000756172742E737265635C
S11300000C9434000C9451000C9451000C94510045
S11300100C9451000C9451000C9451000C94510018
S11300200C9451000C9451000C9451000C94510008
S11300300C9451000C9451000C9451000C945100F8
S11300400C9451000C9451000C9451000C945100E8
S11300500C9451000C9451000C9451000C945100D8
S11300600C9451000C94510011241FBECFEFD8E022
S1130070DEBFCDBF11E0A0E0B1E0E6E4F4E002C0F1
S113008005900D92A637B107D9F721E0A6E7B1E0B4
S113009001C01D92AA37B207E1F70E942B010C940C
S11300A021020C9400002AE030E06AC0A901F901A1
S11300B072973A97F0F4E82FF0E02E173F07C9F44F
S11300C0245134B181E090E002C0880F991F2A9531
S11300D0E2F7232F282B24B9683611F0683421F471
S11300E095B1892B85B9089595B18095892385B9F2
S11300F00895FA017C973A97F0F4E82FF0E02E1770
S11301003F07C9F42E5137B181E090E002C0880F57
S1130110991F2A95E2F7232F282B27B9683611F067
S1130120683421F498B1892B88B9089598B18095E1
S1130130892388B90895465251094A305105F0F48B
S1130140482F50E024173507C9F428523AB181E00A
S113015090E002C0880F991F2A95E2F7232F282BDD
S11301602AB9683611F0683421F49BB1892B8BB914
S113017008959BB1809589238BB908952F5F3F4FD4
S1130180203331050CF492CF08950F931F93CF932E
S11301908C01C0E004C090E00E941A02CF5FF80115
S11301A0EC0FF11D80818111F6CFCF911F910F913A
S11301B008951F93CF93DF93CDB7DEB72A970FB679
S11301C0F894DEBF0FBECDBF9AE0E0E0F1E0DE01BF
S11301D0119601900D929A95E1F73DEC839F912D34
S11301E01124969596959695990F292F220F220FF3
S11301F0920F282F291B922F29E2829F212D11244F
S113020022952F7044E6249F80191124839F812D09
S11302101124869586958695E1E0F0E0EC0FFD1FAC
S1130220E90FF11D1081E1E0F0E0EC0FFD1FE80F94
S1130230F11D808190E00E941A02812F90E00E94BB
S11302401A022A960FB6F894DEBF0FBECDBFDF9117
S1130250CF911F9108950E940A0280917801909194
S11302607901019690937901809378018AE091E075
S11302700E94C50081E491E00E94C500809178014C
S11302800E94D9008AE090E00E94C5008091760126
S1130290909177018230910508F444C0209178014F
S11302A03091790121153105E9F12150310930935B
S11302B079012093780102979093770180937601D6
S11302C081E291E00E94C5008AE391E00E94C500AA
S11302D0809176010E94D90080E491E00E94C500DB
S11302E0809178010E94D9008AE090E00E94C500C4
S11302F068E68CE20E9453002FEF89E698E12150D2
S113030080409040E1F700C000006CE68CE20E945F
S113031053002FEF89E698E1215080409040E1F7A7
S113032000C000002FEF8BE792E9215080409040FD
S1130330E1F700C000008091760190917701019669
S1130340909377018093760186E491E00E94C50042
S11303508BE391E00E94C500809176010E94D90050
S11303608AE090E00E94C500809176019091770127
S11303708230910508F444C02091780130917901CC
S113038021153105E9F12150310930937901209388
S11303907801029790937701809376018DE591E03F
S11303A00E94C5008AE391E00E94C5008091760115
S11303B00E94D90080E491E00E94C50080917801F8
S11303C00E94D9008AE090E00E94C50068E68CE2B1
S11303D00E9453002FEF89E698E12150804090401D
S11303E0E1F700C000006CE68CE20E9453002FEF9E
S11303F089E698E1215080409040E1F700C0000078
S11304002FEF83ED90E3215080409040E1F700C04E
S1130410000023CFE2ECF0E080818660808387E6F1
S11304208093C4001092C500E1ECF0E08081886103
S1130430808308959091C00095FFFCCF8093C600FF
S10904400895F894FFCFBB
S1130446303132333435363738396F2069732069A1
S11304566E6372656D656E746564202E2E2E200A99
S1130466006E6577207761746572206372656174C6
S11304766564202E2E2E2E200A002068203D2000A2
S1130486206F203D20006820697320696E637265C1
S11304966D656E746564202E2E2E200A006E6577B7
S11304A62077617465722063726561746564202EB9
S10904B62E2E2E0A0000A8
S9030000FC
