S00C0000377365672E73726563A2
S11300000C943E000C9450000C9450000C9450003E
S11300100C9450000C9450000C9450000C9450001C
S11300200C9450000C9450000C9450000C9450000C
S11300300C9450000C9450000C9450000C945000FC
S11300400C9450000C9450000C9450000C945000EC
S11300500C9450000C9450000C9450000C945000DC
S11300600C9450000C945000C000D400C200C40092
S1130070C600C800CA00CC00CE00D00011241FBEA8
S1130080CFEFD8E0DEBFCDBF21E0A0E0B1E001C0FA
S11300901D92AB30B207E1F70E94D6000C945401D4
S11300A00C940000E0E0F1E08AE290E09183808328
S11300B08BE290E09383828387E290E0958384834C
S11300C081E0868382E087838FEF8AB98BB91086BB
S11300D088E088B980E090E015C0E0910201F091D9
S11300E0030121E0082E01C0220F0A94EAF72083BD
S11300F02FEF31EE44E0215030404040E1F700C0A2
S1130100000001968830910544F38FEF90E722E0D8
S1130110815090402040E1F700C0000018B884E00E
S113012088B980E090E015C0E0910201F0910301EC
S113013021E0082E01C0220F0A94EAF720833FEF42
S113014041EE24E0315040402040E1F700C000007F
S113015001968830910544F33FEF40E782E0315047
S113016040408040E1F700C0000018B8089590E0D6
S11301708A309105B8F4FC01EC5CFF4F0C943A0111
S11301808FE308958BE508958FE4089586E6089536
S11301908DE608958DE7089587E008958FE7089523
S11301A08FE608958CEF089586E0089584B1806207
S11301B084B98CE087B915B888B90E945200C12C63
S11301C0D12C3FC088E088B90F2EF0E0EF2EF1E08B
S11301D0FF2EF02DF701A280B3800AE010E0C601E3
S11301E0B8010E9426010E94B700F50180838FEFB9
S11301F09CE70197F1F700C0000018B884E088B9C3
S1130200F701E280F380C60164E670E00E942601F3
S1130210B8010E942601862F0E94B700F70180834F
S11302208FEF9CE70197F1F700C0000018B8219602
S113023002C0C0E0D0E0C931D10524F29FEFC91A51
S1130240D90AE4E6CE16D104A4F3B9CF97FB072E5E
S113025016F4009407D077FD09D00E94400107FCF2
S113026005D03EF4909581959F4F089570956195C2
S11302707F4F0895EE0FFF1F0590F491E02D099430
S1130280AA1BBB1B51E107C0AA1FBB1FA617B707B8
S113029010F0A61BB70B881F991F5A95A9F78095D4
S10F02A09095BC01CD010895F894FFCFA7
S9030000FC
