S00C00006C6162382E73726563B1
S11300000C9434000C9451000C9451000C94510045
S11300100C9451000C9451000C9451000C94510018
S11300200C9451000C9451000C9451000C948A02CD
S11300300C9451000C9451000C9451000C945100F8
S11300400C9451000C9451000C9451000C945100E8
S11300500C9451000C9451000C9451000C945100D8
S11300600C9451000C94510011241FBECFEFD8E022
S1130070DEBFCDBF11E0A0E0B1E0E6E2F0E202C0F5
S113008005900D92AE31B107D9F727E0AEE1B1E0AA
S113009001C01D92AE36B207E1F70E94A10F0C9485
S11300A011100C9400002AE030E06AC0A901F901A3
S11300B072973A97F0F4E82FF0E02E173F07C9F44F
S11300C0245134B181E090E002C0880F991F2A9531
S11300D0E2F7232F282B24B9683611F0683421F471
S11300E095B1892B85B9089595B18095892385B9F2
S11300F00895FA017C973A97F0F4E82FF0E02E1770
S11301003F07C9F42E5137B181E090E002C0880F57
S1130110991F2A95E2F7232F282B27B9683611F067
S1130120683421F498B1892B88B9089598B18095E1
S1130130892388B90895465251094A305105F0F48B
S1130140482F50E024173507C9F428523AB181E00A
S113015090E002C0880F991F2A95E2F7232F282BDD
S11301602AB9683611F0683421F49BB1892B8BB914
S113017008959BB1809589238BB908952F5F3F4FD4
S1130180203331050CF492CF08952AE030E047C0C3
S1130190A901B901625171096A30710588F4682FA7
S11301A070E02617370761F4ECEEE20F95B161E0D9
S11301B070E002C0660F771FEA95E2F7692765B918
S11301C0BA016C5171096A30710588F4682F70E0C6
S11301D02617370761F4E2EEE20F98B161E070E0B0
S11301E002C0660F771FEA95E2F7692768B946529D
S11301F051094A30510588F4482F50E02417350737
S113020061F468ED620F9BB141E050E002C0440F1D
S1130210551F6A95E2F749274BB92F5F3F4F2033AB
S113022031050CF4B5CF0895E2ECF0E080818660EE
S1130230808387E68093C4001092C500E1ECF0E06F
S113024080818861808308958091C0008823E4F7C9
S11302508091C600089581E08093890083EF8093A4
S113026088008BE080938100EFE6F0E0808182607B
S11302708083089531E1FC013083319722E22083A9
S11302803197A3E3A08331976083319770833197CB
S11302901082319760E8608331971082319762E071
S11302A06083319763E06083319764E060833197C2
S11302B065E06083319766E06083319767E060832F
S11302C0319768E06083319769E06083319760E13A
S11302D0608331973083319732E13083319733E152
S11302E03083319734E13083319735E1308331976E
S11302F036E13083319737E13083319738E1308309
S1130300319739E13083319730E23083319731E2EC
S1130310308331972083319723E2208331974083C0
S113032031975083319726E22083319727E2208347
S1130330319728E22083319729E22083319720E303
S11303402083319721E32083869708950E942B010F
S1130350A0916807B0916907CD91CDBFDD91DEBF53
S1130360FF91EF91DF91CF91BF91AF919F918F91C9
S11303707F916F915F914F913F912F911F910F91B9
S1130380FF90EF90DF90CF90BF90AF909F908F90B1
S11303907F906F905F904F903F902F901F900F90A1
S11303A00FBE0F90089581E008950F920FB6F89450
S11303B00F921F9211242F923F924F925F926F924D
S11303C07F928F929F92AF92BF92CF92DF92EF92E1
S11303D0FF920F931F932F933F934F935F936F93CA
S11303E07F938F939F93AF93BF93CF93DF93EF93B9
S11303F0FF93A0916807B09169070DB60D920EB6F0
S11304000D920E94B50BA0916807B0916907CD9138
S1130410CDBFDD91DEBFFF91EF91DF91CF91BF9111
S1130420AF919F918F917F916F915F914F913F9188
S11304302F911F910F91FF90EF90DF90CF90BF907D
S1130440AF909F908F907F906F905F904F903F9070
S11304502F901F900F900FBE0F9008950F920FB61C
S1130460F8940F921F9211242F923F924F925F9211
S11304706F927F928F929F92AF92BF92CF92DF92B0
S1130480EF92FF920F931F932F933F934F935F939A
S11304906F937F938F939F93AF93BF93CF93DF9388
S11304A0EF93FF93A0916807B09169070DB60D9281
S11304B00EB60D920E94C60981110E94B50BA0913F
S11304C06807B0916907CD91CDBFDD91DEBFFF9183
S11304D0EF91DF91CF91BF91AF919F918F917F91D8
S11304E06F915F914F913F912F911F910F91FF90C9
S11304F0EF90DF90CF90BF90AF909F908F907F90C0
S11305006F905F904F903F902F901F900F900FBE71
S11305100F9008950E942E021895CF93DF938BE0DD
S113052090E00E942E03EC01009731F0FC0111923F
S11305301192CF010E94F603CE01DF91CF9108956D
S1130540FC010FB6F8940F928081918160957095AB
S113055068237923718360830F900FBE0895CF922F
S1130560DF92EF92FF920F931F93CF93DF937C015F
S11305708B01EC0125960E94C009D7011796ED91D5
S1130580FC9118978D919C911197082B192B0D9321
S11305901C9300E010E02DC0C280D3808081918143
S11305A09C01332792FD09C0D7014D915C914223F0
S11305B05323452B61F440E00DC0D7014D915C916C
S11305C0422353232417350721F040E003C041E0C0
S11305D001C041E0442359F090FF02C0022B132BC9
S11305E0D7016D917C917260CF010E94D80CEC2DE3
S11305F0FD2DEC17FD0781F600951095F70180811C
S1130600918108231923118300830E94E00AD701F2
S11306108D919C91DF91CF911F910F91FF90EF905D
S1130620DF90CF900895A3E2B1E0E7E2F1E0119604
S1130630FC93EE9313961C921E921297AFE1B1E0D5
S11306408BED95E013969C938E93129711961C92C2
S11306501E9293838283B183A0830895EF92FF92C5
S11306600F931F93CF93DF93EC010E94C0098091F5
S11306701E01811105C00E94130381E080931E01B5
S1130680209771F0CE010496C817D90738F425963F
S11306908C179D0728F0C0E0D0E002C0C0E0D0E095
S11306A0209709F45EC020910001309101012C17BC
S11306B03D0708F459C0E0912301F0912401A3E21D
S11306C0B1E002C0DF01FC01828193818C179D0798
S11306D020F4808191810097A9F781E0EF31F80738
S11306E009F445C00D911C9111970C5F1F4F808137
S11306F091818D939C93828193818C1B9D0B893076
S1130700910530F1BF016C0F7D1FDB0113969C93A3
S11307108E931297D383C28312964D915C91139753
S11307200F2EF3E2EF2EF1E0FF2EF02D01C07D013C
S1130730E701A881B98112968D919C911397841732
S11307409507A8F3EB01B983A883D7016D937C9334
S113075082819381281B390B30930101209300017E
S113076008C000E010E005C000E010E002C000E0B6
S113077010E00E94E00AC801DF91CF911F910F9110
S1130780FF90EF9008950F931F93CF93DF930097FB
S113079041F1EC018C01045011090E94C009F801D7
S11307A042815381A3E2B1E001C0DF01ED91FC91EC
S11307B011972281338124173507B8F32497F983DD
S11307C0E8830D931C938A819B81209100013091D1
S11307D00101820F931F90930101809300010E94F5
S11307E0E00ADF91CF911F910F910895FC010396C8
S11307F0928381832FEF3FEF348323839683858312
S11308009087878310820895FC01118610860895CD
S1130810CF93DF93EB01488159814F3F2FEF52076C
S113082021F4FC01A781B0850DC0DC01139601C041
S1130830DF011296ED91FC911397208131814217CB
S11308405307B0F71296ED91FC911397FB83EA835B
S1130850D583C483BD83AC831396DC93CE93129764
S113086099878887FC0120812F5F2083DF91CF91B6
S11308700895CF93DF93FC01A085B185C281D38114
S1130880848195819D838C83C481D5818281938168
S11308909B838A8311968D919C911297E817F9078F
S11308A031F48481958112969C938E9311971186CD
S11308B010868C9181508C938C91DF91CF91089507
S11308C0DC0151962C915197222341F05696ED91DB
S11308D0FC915797908184E0891B089580E00895E6
S11308E00FB6F8940F92FC01828D811102C081E051
S11308F001C080E00F900FBE08950FB6F8940F92D8
S1130900FC01228D838D281302C081E001C080E0A8
S11309100F900FBE08950F931F93CF93DF93EC01B5
S1130920042F1A8D4C8D41110CC088819981892B1B
S113093009F042C08C819D810E94600E1D821C8240
S113094042C0011117C050E08A819B810E940810A7
S11309502C8D8A819B81820F911D9B838A832C819C
S11309603D818217930750F1888199819B838A8303
S113097080E029C050E08E819F810E9408108C8DF8
S113098090E09195819591092E813F81280F391F1F
S11309903F832E83488159812417350730F42C81F5
S11309A03D81820F931F9F838E83023049F411236C
S11309B049F0115080E007C080E005C080E003C02A
S11309C080E001C080E01F5F1A8FDF91CF911F91FB
S11309D00F9108951F93CF93DF93EC010FB6F89412
S11309E00F921E8D0BC08989882351F0CE01419648
S11309F00E941B0C81110E94C80D115011169CF30A
S1130A008FEF8E8F0F900FBE0FB6F8940F921D8D3F
S1130A100BC08885882351F0CE0108960E941B0CD8
S1130A2081110E94C80D115011169CF38FEF8D8F08
S1130A300F900FBEDF91CF911F9108950F931F93D5
S1130A40CF93DF93FC01362F892B09F44DC0238DFE
S1130A50222309F44BC0022F10E08FEF9FEFB8015F
S1130A600E94F40F448D842F90E06817790708F4EE
S1130A703FC0EF010FB6F8940F9260817181FB01C2
S1130A80249FE00DF11D1124FD83EC831A8E7B83DA
S1130A906A8301501109809FA001819F500D909F8E
S1130AA0500D1124CB01840F951F9F838E838FEFEC
S1130AB08D8F8E8F31110CC08885882389F0CE01EB
S1130AC008960E941B0C882359F00E94D50108C087
S1130AD0CE0108960E94F603CE0141960E94F603C9
S1130AE00F900FBE81E005C080E003C080E001C02C
S1130AF080E0DF91CF911F910F9108950F931F9381
S1130B00F801611103C01183008302C05183408343
S1130B10838F648F61E0CF010E941E051F910F91A6
S1130B200895DF92EF92FF920F931F93CF93DF9379
S1130B30382FE62F882329F1682F70E08FEF9FEF7D
S1130B400E94F40F8E2F90E068177907E8F03E9F1B
S1130B50C0011124813E2FEF9207C8F4D42EDE2F5A
S1130B60C32F4F960E942E037C01009791F08C01B5
S1130B702D2DAC01415E5F4F6D2F8C2F0E947E05A1
S1130B8008C0E12CF12C05C0E12CF12C02C0E12CB1
S1130B90F12CC701DF91CF911F910F91FF90EF903E
S1130BA0DF900895CF92DF92EF92FF920F931F93FD
S1130BB0CF93DF9300D000D01F92CDB7DEB78C0166
S1130BC07B015D834C83C22ED12C0FB6F8940F9217
S1130BD0F801928D838D981718F0F2E0CF1219C0A6
S1130BE04C2DB701C8010E948B04F8019189992307
S1130BF049F0C80141960E941B0C882331F00E94E1
S1130C00D50103C081110E94D5010F900FBE81E070
S1130C104DC08C819D81892B21F40F900FBE80E003
S1130C2045C0D11006C0CE0101960E947E0DDD2480
S1130C30D3940F900FBE0E94C0090FB6F8940F9280
S1130C40F801858D8F3F09F4158EF801868D8F3F4D
S1130C5009F4168E0F900FBEBE016C5F7F4FCE015C
S1130C6001960E94890D81111BC0C8010E947D0458
S1130C70882381F06C817D81C80108960E94090C4B
S1130C80C8010E94EA040E94E00A81119ECF0E94DA
S1130C90D5019BCFC8010E94EA040E94E00A95CFC7
S1130CA0C8010E94EA040E94E00A80E00F900F90BD
S1130CB00F900F900F90DF91CF911F910F91FF90A4
S1130CC0EF90DF90CF900895009769F0FC011582B2
S1130CD0148211821082168220E040E050E060E02D
S1130CE070E00E94D2050895CF93DF93482F60E00F
S1130CF081E00E949105EC010E946406CE01DF911F
S1130D00CF910895EF92FF920F931F93CF93DF93A8
S1130D1000D000D01F92CDB7DEB78C017D836C83E9
S1130D20E12CF12C0FB6F8940F92F801828D8823F0
S1130D30D1F08150828F80819181892B29F40E9486
S1130D40360FF80195838483F8018085882339F070
S1130D50C80108960E941B0C81110E94D5010F90B6
S1130D600FBE81E074C08C819D81892B21F40F908A
S1130D700FBE80E06CC0F11006C0CE0101960E9447
S1130D807E0DFF24F3940F900FBE0E94C0090FB68E
S1130D90F8940F92F801858D8F3F09F4158EF801B0
S1130DA0868D8F3F09F4168E0F900FBEBE016C5FC7
S1130DB07F4FCE0101960E94890D81112AC0C8017E
S1130DC00E9470048823F9F0F80180819181892BB5
S1130DD051F40FB6F8940F92848195810E94CC0D42
S1130DE0E82E0F900FBE6C817D81C80141960E9450
S1130DF0090CC8010E94EA040E94E00A811192CF02
S1130E000E94D5018FCFC8010E94EA040E94E00A23
S1130E1089CFC8010E94EA040E94E00AC8010E9426
S1130E207004882309F47ECFEE2081F00FB6F89485
S1130E300F92C8010E946004682FF8018481958193
S1130E400E94C30E0F900FBE80E001C080E00F909F
S1130E500F900F900F900F90DF91CF911F910F91F2
S1130E60FF90EF900895E0913007F0913107808171
S1130E70811107C08FEF9FEF9093070780930607B8
S1130E800895E0913007F09131070580F681E02D57
S1130E908081918190930707809306070895CF93EB
S1130EA0DF93EC018F89988D0E94C303CE010E94C9
S1130EB0C303DF91CF9108956F927F928F929F9297
S1130EC0AF92BF92CF92DF92EF920F931F93CF9383
S1130ED0DF93CDB7DEB74C01D50157968D919C9128
S1130EE05897215031093C01620E731E611571053A
S1130EF089F416C0822F90E0FB01E80FF91F3081BE
S1130F00D501A80FB91F59963C938081882329F0F5
S1130F102F5F01C020E0283068F3F50110A203C060
S1130F20D50159961C92B3E0BE1520F40F2EF3E0C0
S1130F30EF2EF02DF501E68AE1A212A2C501029678
S1130F400E940404C5010C960E940404D50119965C
S1130F50BC92AE92189784E090E08E1991091D9688
S1130F609C938E931C975396BC92AE92529784E0B6
S1130F70F501B396DF011D928A95E9F7F50117A2F1
S1130F80A801B401C3010E943A01D5018D939C9339
S1130F90C114D10419F0F601B182A082DF91CF917E
S1130FA01F910F91EF90DF90CF90BF90AF909F90E3
S1130FB08F907F906F900895CF93C0E010C08C2FD6
S1130FC090E09C01220F331F220F331F220F331F87
S1130FD0820F931F8C5B984F0E94F603CF5FC4303F
S1130FE070F38BE397E00E94F60382E397E00E949C
S1130FF0F60385E297E00E94F6038CE197E00E94F5
S1131000F60382E197E00E94F6038BE397E0909366
S113101031078093300782E397E090932F07809302
S11310202E07CF910895CF93DF93EC010FB6F89478
S11310300F92809111078F5F809311078091680749
S113104090916907892B59F4D0936907C093680775
S113105080911107813099F40E94DC0710C08091BF
S11310600D0781110CC0E0916807F091690796891A
S11310708E89891720F0D0936907C09368078091FF
S113108008078F5F809308078E8990910E07981741
S113109010F480930E0790E0FC01EE0FFF1FEE0F9B
S11310A0FF1FEE0FFF1F8E0F9F1FFC01EC5BF84F1D
S11310B00180F281E02DFD83EC83848195819F83FF
S11310C08E83A481B581CE01029613969C938E9350
S11310D0129795838483EE89F0E0CF01880F991FDE
S11310E0880F991F880F991FE80FF91FEC5BF84FC1
S11310F0FB87EA8780818F5F80830F900FBE80918A
S11311000D07882351F0E0916807F09169079689EB
S11311108E89981710F40E94D501DF91CF9108951C
S1131120CF93DF931CC00FB6F8940F92E091210780
S1131130F0912207C681D781CE0102960E9439041C
S11311408091110781508093110780911B07815072
S113115080931B070F900FBECE010E944F07809112
S11311601B078111E0CFDF91CF9108950E94900871
S1131170809144078230D0F30E94D501F7CFFF92CB
S11311800F931F93CF93DF93EC01F62E00910F077B
S113119010911007809168079091690702960E9448
S11311A03904CF3F8FEFD807B1F5FF20A1F1E2E179
S11311B0F7E0A181B281C0916807D0916907BD832E
S11311C0AC83C0916807D091690714968D919C9166
S11311D015979F838E831496CD91DC9115978091FA
S11311E068079091690702969B838A8380916807B8
S11311F090916907029615969C938E931497A091EB
S11312006807B09169071B96FC93EE931A97808147
S11312108F5F80832FC0C00FD11FE0916807F091CA
S11312206907D383C283C017D10768F46091680744
S11312307091690780912E0790912F076E5F7F4F01
S11312400E94080417C06091680770916907809133
S11312503007909131076E5F7F4F0E9408048091A0
S1131260060790910707C817D90720F4D0930707FA
S1131270C0930607DF91CF911F910F91FF900895BE
S11312802F923F924F925F926F927F928F929F9292
S1131290AF92BF92CF92DF92EF92FF920F931F9380
S11312A0CF93DF933C011B015A012901CA010E941B
S11312B02E036C01892B71F088E290E00E942E03CA
S11312C0EC01892B19F0D88ECF8A06C0C6010E9482
S11312D0C30302C0C0E0D0E0209791F0950140E044
S11312E050E0812C912C5E016701E02E8201B10156
S11312F0C3010E945C07CE010E94130881E001C073
S11313008FEFDF91CF911F910F91FF90EF90DF90BE
S1131310CF90BF90AF909F908F907F906F905F9091
S11313204F903F902F900895EF92FF920F930F2EBE
S1131330F4E0EF2EF7E0FF2EF02D00E020E030E0A7
S113134045E550E063E071E086EB98E00E944009D7
S1131350813081F4F8948FEF9FEF90930707809387
S1131360060781E080930D071092100710920F0773
S11313700E94A601809102010F91FF90EF900895C1
S1131380809103078F5F8093030708950F931F9342
S1131390CF93DF9380910307811101C1C0910F079F
S11313A0D09110078E010F5F1F4F10931007009309
S11313B00F0701151105B9F4809130079091310799
S11313C020912E0730912F07309331072093300757
S11313D090932F0780932E07809109078F5F809346
S11313E009070E94330780910607909107070817A1
S11313F0190720F480E0B8C081E001C080E0E091EA
S11314003007F09131079081911107C02FEF3FEF22
S11314103093070720930607A7C0E0913007F091A7
S113142031070580F681E02D0680F781E02D2281C9
S113143033810217130728F4309307072093060714
S113144093C0A285B3852481358146815781E90102
S11314505D834C832681378144815581E9015B8317
S11314604A8311962D913C911297AF014E5F5F4FC5
S11314702417350731F42681378112963C932E9335
S11314801197138612869C9191509C93A489B589D7
S1131490109719F12685378560897189E9017D8363
S11314A06C832089318966857785E9017B836A832A
S11314B011966D917C9112979F01245F3F4F6217A3
S11314C0730731F42089318912963C932E93119736
S11314D0158A148A9C9191509C93268990910E07A9
S11314E0921710F420930E0730E0D901AA0FBB1F06
S11314F0AA0FBB1FAA0FBB1F2A0F3B1FD901AC5B4E
S1131500B84F11960D90BC91A02DB583A483149669
S11315102D913C9115973783268314962D913C91F8
S11315201597E9015B834A8315965C934E93149750
S1131530A689B0E09D01220F331F220F331F220F13
S1131540331FA20FB31FAC5BB84FB387A2879C9124
S11315509F5F9C932689E0916807F09169079689BB
S1131560291708F049CF4BCFE0916807F09169073C
S1131570268930E0F901EE0FFF1FEE0FFF1FEE0F7B
S1131580FF1F2E0F3F1FF901EC5BF84F9081923043
S113159008F081E090910A0791110CC00CC0809171
S11315A00B0790910C07019690930C0780930B07FF
S11315B080E001C081E0DF91CF911F910F910895E8
S11315C0CF93DF930FB6F8940F9280910307815065
S11315D080930307809103078111BFC08091110795
S11315E0811196C0BDC0E0912A07F0912B070680B7
S11315F0F781E02DA489B589C685D785808991892D
S11316009D838C83C089D189868597859B838A83B2
S113161011962D913C911297CF010C9628173907FA
S113162031F48089918912969C938E931197158A2F
S1131630148A8C9181508C93A285B385C481D58101
S1131640868197819D838C83C681D781848195818E
S11316509B838A8311968D919C9112979F012E5F93
S11316603F4F8217930731F48681978112969C939A
S11316708E931197138612868C9181508C93868950
S113168090910E07981710F480930E0790E0DC01F8
S1131690AA0FBB1FAA0FBB1FAA0FBB1F8A0F9B1F3A
S11316A0DC01AC5BB84F11960D90BC91A02DB583B5
S11316B0A48314968D919C91159797838683149691
S11316C0CD91DC9115973B832A8315963C932E93F9
S11316D01497A689B0E0CD01880F991F880F991F30
S11316E0880F991FA80FB91FAC5BB84FB387A287A7
S11316F08C918F5F8C939689A0916807B09169074C
S113170056968C91981730F081E080930A0702C0B6
S1131710E0E0F0E080912507811165CFEF2B11F017
S11317200E943307C0910B07D0910C07209769F0F2
S11317300E94C609882319F081E080930A07219743
S1131740B9F710920C0710920B0780910A078823AF
S113175031F00E94D50181E003C080E001C080E047
S11317600F900FBEDF91CF910895809103078823D6
S113177021F081E080930A07089510920A072091CE
S11317800E0701C02150822F90E0FC01EE0FFF1FD5
S1131790EE0FFF1FEE0FFF1FE80FF91FEC5BF84F72
S11317A03081332379F3AC01440F551F440F551F87
S11317B0440F551F480F591FDF010180F281E02DAE
S11317C00280F381E02D1296FC93EE931197495B0E
S11317D0584FE417F50729F442815381FD015283E0
S11317E04183FC01EE0FFF1FEE0FFF1FEE0FFF1FE3
S11317F08E0F9F1FFC01EC5BF84F0180F281E02DFE
S113180086819781909369078093680720930E07D8
S11318100895CF93DF93EB01609168077091690796
S1131820645F7F4F0E94080461E0CE010E94BF08FC
S1131830DF91CF910895CF93DF93DC011596ED915D
S1131840FC9116970680F781E02DA489B589C68599
S1131850D785808991899D838C83C089D189868528
S113186097859B838A8311968D919C9112979F01F2
S1131870245F3F4F8217930731F480899189129630
S11318809C938E931197158A148A8C9181508C9312
S113189080910307811160C0A285B385C481D5817D
S11318A0868197819D838C83C681D781848195812C
S11318B09B838A8311968D919C9112979F012E5F31
S11318C03F4F8217930731F48681978112969C9338
S11318D08E931197138612868C9181508C938689EE
S11318E090910E07981710F480930E0790E0DC0196
S11318F0AA0FBB1FAA0FBB1FAA0FBB1F8A0F9B1FD8
S1131900DC01AC5BB84F11960D90BC91A02DB58352
S1131910A48314968D919C9115979783868314962E
S1131920CD91DC9115973B832A8315963C932E9396
S11319301497A689B0E0CD01880F991F880F991FCD
S1131940880F991FA80FB91FAC5BB84FB387A28744
S11319508C918F5F8C931CC045E257E0DA0111969D
S1131960CD91DC911297D787C6878C819D81918B0D
S1131970808B8C819D81DC0113963C932E9312976E
S11319803D832C83558B448BDA018C918F5F8C9330
S11319909689E0916807F09169078689891720F490
S11319A081E080930A0701C080E0DF91CF91089520
S11319B0CF93DF93DC01706811967C936E93169637
S11319C0ED91FC91179718964D915C911997129689
S11319D08D919C91139714962D913C911597EC0140
S11319E03D832C8314968D919C91159712962D917D
S11319F03C911397EC013B832A83EA0189819A8104
S1131A00A817B90731F414968D919C9115979A8370
S1131A10898319961C921E921897DA018C91815031
S1131A208C93A285B385C481D581868197819D835A
S1131A308C83C681D781848195819B838A83119607
S1131A408D919C9112979F012E5F3F4F82179307B0
S1131A5031F48681978112969C938E931197138605
S1131A6012868C9181508C93868990910E079817D9
S1131A7010F480930E0790E0DC01AA0FBB1FAA0F9D
S1131A80BB1FAA0FBB1F8A0F9B1FDC01AC5BB84FA7
S1131A9011960D90BC91A02DB583A48314968D91BD
S1131AA09C911597978386831496CD91DC91159715
S1131AB03B832A8315963C932E931497A689B0E012
S1131AC0CD01880F991F880F991F880F991FA80FA0
S1131AD0B91FAC5BB84FB387A2878C918F5F8C938F
S1131AE09689E0916807F09169078689891718F447
S1131AF081E080930A07DF91CF910895209109072F
S1131B00FC01208320910F07309110073283218339
S1131B1008951F93CF93DF930FB6F8940F92E0913B
S1131B200F07F0911007DC0111964D915C9112970B
S1131B30DF01A41BB50BEB01288139812F3FDFEFB7
S1131B403D07F9F0EC011881C09109071C1741F019
S1131B50E417F50728F0FB011182108281E012C01E
S1131B60A217B30748F4FB012A1B3B0B31832083E4
S1131B700E947E0D80E006C0DB011D921C9281E074
S1131B8001C080E00F900FBEDF91CF911F910895A7
S1131B9081E080930A0708950F931F93CF93DF93F7
S1131BA0FC01892B09F484C02689A0916807B091AF
S1131BB0690756968C91281708F070C0848595851E
S1131BC0992364F0A0916807B091690756963C91F7
S1131BD084E090E0831B91099587848782859385AF
S1131BE030E0A901440F551F440F551F440F551FE2
S1131BF0240F351F2C5B384F8217930709F045C01B
S1131C00EF018F010E5F1F4FC8010E943904E0915C
S1131C106807F091690786898E8B90910E07981753
S1131C2010F480930E0790E0FC01EE0FFF1FEE0FFF
S1131C30FF1FEE0FFF1F8E0F9F1FFC01EC5BF84F81
S1131C400180F281E02DFD83EC83848195819F8363
S1131C508E83A481B58113961C930E9312971583DA
S1131C6004838E8990E0FC01EE0FFF1FEE0FFF1F2F
S1131C70EE0FFF1FE80FF91FEC5BF84FFB87EA87B5
S1131C8080818F5F808381E016C0A0916807B09146
S1131C90690756968C91868B81E00DC091A1E091E5
S1131CA06807F09169078689981720F080E003C0DF
S1131CB080E001C081E0DF91CF911F910F910895E1
S1131CC00F931F93CF93DF93FC01892B09F451C029
S1131CD082A1815082A3268991A1291709F44BC0BE
S1131CE081114BC0EF018F010E5F1F4FC8010E948D
S1131CF0390489A18E8B24E030E0281B31093D870B
S1131D002C8790910E07981710F480930E0790E09B
S1131D10FC01EE0FFF1FEE0FFF1FEE0FFF1F8E0FD4
S1131D209F1FFC01EC5BF84F0180F281E02DFD83E5
S1131D30EC83848195819F838E83A481B5811396DE
S1131D401C930E93129715830483EE89F0E0CF0160
S1131D50880F991F880F991F880F991FE80FF91F83
S1131D60EC5BF84FFB87EA8780818F5F808381E09B
S1131D7005C080E003C080E001C080E0DF91CF9126
S1131D801F910F9108950F931F93CF93DF93FC013D
S1131D90892B09F466C091A1961708F4962F8689B9
S1131DA0981709F45EC022A1213009F05AC0968B1D
S1131DB024853585332334F024E030E0291B3109B0
S1131DC0358724872285338590E0AC01440F551F65
S1131DD0440F551F440F551F840F951F8C5B984F5C
S1131DE028173907F1F5EF018F010E5F1F4FC80166
S1131DF00E9439048E8990910E07981710F48093ED
S1131E000E0790E0FC01EE0FFF1FEE0FFF1FEE0F19
S1131E10FF1F8E0F9F1FFC01EC5BF84F0180F281C6
S1131E20E02DFD83EC83848195819F838E83A4813F
S1131E30B58113961C930E931297158304838E8990
S1131E4090E0FC01EE0FFF1FEE0FFF1FEE0FFF1FD0
S1131E50E80FF91FEC5BF84FFB87EA8780818F5FFF
S1131E608083DF91CF911F910F910895809168072E
S1131E7090916907892B39F0E0916807F09169071F
S1131E8082A18F5F82A3809168079091690708956A
S1131E9060E070E080916C0790916D070E94A00251
S1131EA00697B1F78DE20E94C500F2CF68EE73E0A9
S1131EB080916A0790916B070E9482068130B1F786
S1131EC00E942401813641F462E070E080916C0745
S1131ED090916D070E94AF0220E040E050E060E086
S1131EE070E080916A0790916B070E94D205DECF63
S1131EF068EE73E080916A0790916B070E948206F6
S1131F008130B1F70E942401833741F464E070E02A
S1131F1080916C0790916D070E94AF0220E040E031
S1131F2050E060E070E080916A0790916B070E9436
S1131F30D205DECF6CE68DE20E9453000E941401AC
S1131F400895EF92FF920F93CF93DF9300D000D0C8
S1131F5000D0CDB7DEB70E949A0F81E00E947406CC
S1131F6090936B0780936A070E948D0290936D078C
S1131F7080936C07CE0101967C0101E020E030E003
S1131F804AEF50E068E071E088E79FE00E94400972
S1131F90CE0103967C0102E020E030E04AEF50E0FD
S1131FA060E171E086E59FE00E944009CE0105965C
S1131FB07C0103E020E030E04AEF50E068E171E0AA
S1131FC088E49FE00E9440090E94940980E090E028
S1131FD026960FB6F894DEBF0FBECDBFDF91CF912A
S1131FE00F91FF90EF900895AA1BBB1B51E107C00E
S1131FF0AA1FBB1FA617B70710F0A61BB70B881F95
S1132000991F5A95A9F780959095BC01CD01089523
S1132010FB01DC0102C001900D9241505040D8F701
S10920200895F894FFCFBF
S1132026DB050349444C450070726F6365737300A6
S111203668616E646C6572006E616D65000019
S9030000FC
