:100000000C9434000C9451000C9451000C94510049
:100010000C9451000C9451000C9451000C9451001C
:100020000C9451000C9451000C9451000C94C90193
:100030000C9451000C9451000C9451000C945100FC
:100040000C9451000C9451000C9451000C945100EC
:100050000C9451000C9451000C9451000C945100DC
:100060000C9451000C94510011241FBECFEFD8E026
:10007000DEBFCDBF11E0A0E0B1E0EAE9F0E102C0EF
:1000800005900D92A233B107D9F727E0A2E3B1E0C2
:1000900001C01D92AD37B207E1F70E9416080C941B
:1000A0004B080C940000E2ECF0E0808186608083D5
:1000B00087E68093C4001092C500E1ECF0E08081F7
:1000C0008861808308959091C00095FFFCCF809354
:1000D000C600089581E08093890087E380938800BB
:1000E0008BE080938100EFE6F0E080818260808386
:1000F000089531E1FC013083319722E2208331976A
:10010000A3E3A08331976083319770833197108286
:10011000319760E8608331971082319762E06083A5
:10012000319763E06083319764E06083319765E0E5
:100130006083319766E06083319767E06083319731
:1001400068E06083319769E06083319760E16083A4
:1001500031973083319732E13083319733E1308307
:10016000319734E13083319735E13083319736E18F
:100170003083319737E13083319738E130833197DD
:1001800039E13083319730E23083319731E2308387
:1001900031972083319723E2208331974083319731
:1001A0005083319726E22083319727E220833197CD
:1001B00028E22083319729E22083319720E32083AE
:1001C000319721E32083869708950E946A00A091C9
:1001D0007307B0917407CD91CDBFDD91DEBFFF9164
:1001E000EF91DF91CF91BF91AF919F918F917F91CF
:1001F0006F915F914F913F912F911F910F91FF90C0
:10020000EF90DF90CF90BF90AF909F908F907F90B6
:100210006F905F904F903F902F901F900F900FBE68
:100220000F90089581E008950F920FB6F8940F9201
:100230001F9211242F923F924F925F926F927F9262
:100240008F929F92AF92BF92CF92DF92EF92FF92E6
:100250000F931F932F933F934F935F936F937F93CE
:100260008F939F93AF93BF93CF93DF93EF93FF93BE
:10027000A0917307B09174070DB60D920EB60D9252
:100280000E946E07A0917307B0917407CD91CDBF06
:10029000DD91DEBFFF91EF91DF91CF91BF91AF91E3
:1002A0009F918F917F916F915F914F913F912F918E
:1002B0001F910F91FF90EF90DF90CF90BF90AF9084
:1002C0009F908F907F906F905F904F903F902F9076
:1002D0001F900F900FBE0F9008950F920FB6F894D5
:1002E0000F921F9211242F923F924F925F926F9222
:1002F0007F928F929F92AF92BF92CF92DF92EF92B6
:10030000FF920F931F932F933F934F935F936F939E
:100310007F938F939F93AF93BF93CF93DF93EF938D
:10032000FF93A0917307B09174070DB60D920EB6AE
:100330000D920E94690581110E946E07A0917307BA
:10034000B0917407CD91CDBFDD91DEBFFF91EF91EC
:10035000DF91CF91BF91AF919F918F917F916F91DD
:100360005F914F913F912F911F910F91FF90EF90CF
:10037000DF90CF90BF90AF909F908F907F906F90C5
:100380005F904F903F902F901F900F900FBE0F9057
:1003900008950E946D011895A7E3B1E0EBE3F1E049
:1003A0001196FC93EE9313961C921E921297A3E360
:1003B000B1E08BED95E013969C938E931297119676
:1003C0001C921E9293838283B183A0830895EF923F
:1003D000FF920F931F93CF93DF93EC010E9463056D
:1003E00080913201811105C00E94CC0181E080938F
:1003F0003201209771F0CE010496C817D90738F45E
:1004000025968C179D0728F0C0E0D0E002C0C0E020
:10041000D0E0209709F45EC02091000130910101E5
:100420002C173D0708F459C0E0913701F0913801CD
:10043000A7E3B1E002C0DF01FC01828193818C1748
:100440009D0720F4808191810097A9F781E0E33333
:10045000F80709F445C00D911C9111970C5F1F4FCF
:10046000808191818D939C93828193818C1B9D0BC4
:100470008930910530F1BF016C0F7D1FDB011396B0
:100480009C938E931297D383C28312964D915C9165
:1004900013970F2EF7E3EF2EF1E0FF2EF02D01C0A2
:1004A0007D01E701A881B98112968D919C911397E6
:1004B00084179507A8F3EB01B983A883D7016D933F
:1004C0007C9382819381281B390B30930101209307
:1004D000000108C000E010E005C000E010E002C02C
:1004E00000E010E00E948306C801DF91CF911F91C8
:1004F0000F91FF90EF9008950F931F93CF93DF9389
:10050000009741F1EC018C01045011090E94630530
:10051000F80142815381A7E3B1E001C0DF01ED9111
:10052000FC9111972281338124173507B8F3249762
:10053000F983E8830D931C938A819B8120910001AC
:1005400030910101820F931F90930101809300016C
:100550000E948306DF91CF911F910F910895FC01B6
:100560000396928381832FEF3FEF34832383968317
:1005700085839087878310820895FC0111861086F9
:100580000895CF93DF93EB01488159814F3F2FEFBF
:10059000520721F4FC01A781B0850DC0DC01139640
:1005A00001C0DF011296ED91FC91139720813181FA
:1005B00042175307B0F71296ED91FC911397FB8306
:1005C000EA83D583C483BD83AC831396DC93CE9337
:1005D000129799878887FC0120812F5F2083DF9104
:1005E000CF910895CF93DF93FC01A085B185C2819F
:1005F000D381848195819D838C83C481D5818281BF
:1006000093819B838A8311968D919C911297E81711
:10061000F90731F48481958112969C938E931197FA
:10062000118610868C9181508C938C91DF91CF91A3
:100630000895E0913B07F0913C078081811107C04C
:100640008FEF9FEF90931B0780931A070895E09117
:100650003B07F0913C070580F681E02D8081918178
:1006600090931B0780931A070895CF93DF93EC01B3
:100670008F89988D0E947C02CE010E947C02DF91BE
:10068000CF9108956F927F928F929F92AF92BF9277
:10069000CF92DF92EF920F931F93CF93DF93CDB75B
:1006A000DEB74C01D50157968D919C9158972150FA
:1006B00031093C01620E731E6115710589F416C083
:1006C000822F90E0FB01E80FF91F3081D501A80FC0
:1006D000B91F59963C938081882329F02F5F01C070
:1006E00020E0283068F3F50110A203C0D501599627
:1006F0001C92B3E0BE1520F40F2EF3E0EF2EF02D88
:10070000F501E68AC50102960E94BD02C5010C965C
:100710000E94BD02D5011996BC92AE92189784E052
:1007200090E08E1991091D969C938E931C97539679
:10073000BC92AE92529784E0F501B196DF011D9212
:100740008A95E9F7F50115A2A801B401C3010E9439
:100750007900D5018D939C93C114D10419F0F60151
:10076000B182A082DF91CF911F910F91EF90DF9026
:10077000CF90BF90AF909F908F907F906F90089593
:10078000CF93C0E010C08C2F90E09C01220F331F4C
:10079000220F331F220F331F820F931F815B984F4D
:1007A0000E94AF02CF5FC43070F386E497E00E94EE
:1007B000AF028DE397E00E94AF0280E397E00E94D2
:1007C000AF0287E297E00E94AF0286E497E0909341
:1007D0003C0780933B078DE397E090933A07809323
:1007E0003907CF910895CF93DF93EC010FB6F894BA
:1007F0000F92809125078F5F809325078091730763
:1008000090917407892B59F4D0937407C0937307A0
:1008100080912507813099F40E94C00310C0809117
:10082000210781110CC0E0917307F091740796893C
:100830008E89891720F0D0937407C0937307809135
:100840001C078F5F80931C078E8990912207981751
:1008500010F48093220790E0FC01EE0FFF1FEE0FD3
:10086000FF1FEE0FFF1F8E0F9F1FFC01E15BF84F74
:100870000180F281E02DFD83EC83848195819F834B
:100880008E83A481B581CE01029613969C938E939C
:10089000129795838483EE89F0E0CF01880F991F2A
:1008A000880F991F880F991FE80FF91FE15BF84F18
:1008B000FB87EA8780818F5F80830F900FBE8091D6
:1008C0002107882351F0E0917307F091740796890E
:1008D0008E89981710F40E941401DF91CF9108952A
:1008E000CF93DF931CC00FB6F8940F92E0912C07C2
:1008F000F0912D07C681D781CE0102960E94F202A7
:10090000809125078150809325078091260781508B
:10091000809326070F900FBECE010E943503809171
:1009200026078111E0CFDF91CF9108950E947004D6
:1009300080914F078230D0F30E941401F7CF0F93BC
:100940001F93CF93DF93EC010091230710912407AD
:10095000809173079091740702960E94F202C00F73
:10096000D11FE0917307F0917407D383C283C0173E
:10097000D10768F46091730770917407809139070B
:1009800090913A076E5F7F4F0E94C10217C060913D
:1009900073077091740780913B0790913C076E5FDD
:1009A0007F4F0E94C10280911A0790911B07C817C0
:1009B000D90720F4D0931B07C0931A07DF91CF917A
:1009C0001F910F9108952F923F924F925F926F92D5
:1009D0007F928F929F92AF92BF92CF92DF92EF92CF
:1009E000FF920F931F93CF93DF933C011B015A019A
:1009F0002901CA010E94E7016C01892B71F086E28E
:100A000090E00E94E701EC01892B19F0D88ECF8A83
:100A100006C0C6010E947C0202C0C0E0D0E0209760
:100A200091F0950140E050E0812C912C5E0167012E
:100A3000E02E8201B101C3010E944203CE010E9457
:100A4000F30381E001C08FEFDF91CF911F910F91F0
:100A5000FF90EF90DF90CF90BF90AF909F908F90DE
:100A60007F906F905F904F903F902F900895EF92FE
:100A7000FF920F930F2EF8E1EF2EF7E0FF2EF02DEF
:100A800000E020E030E045E550E063E071E086E919
:100A900094E00E94E304813081F4F8948FEF9FEF9B
:100AA00090931B0780931A0781E08093210710928F
:100AB0002407109223070E94E500809102010F9104
:100AC000FF90EF900895809117078F5F809317072D
:100AD00008950F931F93CF93DF9380911707811190
:100AE00001C1C0912307D09124078E010F5F1F4FD2
:100AF000109324070093230701151105B9F4809181
:100B00003B0790913C072091390730913A07309389
:100B10003C0720933B0790933A07809339078091D5
:100B20001D078F5F80931D070E94190380911A078C
:100B300090911B070817190720F480E0B8C081E0E6
:100B400001C080E0E0913B07F0913C07908191115A
:100B500007C02FEF3FEF30931B0720931A07A7C062
:100B6000E0913B07F0913C070580F681E02D06807F
:100B7000F781E02D228133810217130728F4309387
:100B80001B0720931A0793C0A285B3852481358162
:100B900046815781E9015D834C83268137814481F9
:100BA0005581E9015B834A8311962D913C911297FF
:100BB000AF014E5F5F4F2417350731F4268137812F
:100BC00012963C932E931197138612869C91915006
:100BD0009C93A489B589109719F12685378560897A
:100BE0007189E9017D836C832089318966857785E8
:100BF000E9017B836A8311966D917C9112979F0125
:100C0000245F3F4F6217730731F4208931891296B0
:100C10003C932E931197158A148A9C9191509C9322
:100C2000268990912207921710F42093220730E032
:100C3000D901AA0FBB1FAA0FBB1FAA0FBB1F2A0FE8
:100C40003B1FD901A15BB84F11960D90BC91A02D0F
:100C5000B583A48314962D913C91159737832683F1
:100C600014962D913C911597E9015B834A83159663
:100C70005C934E931497A689B0E09D01220F331F19
:100C8000220F331F220F331FA20FB31FA15BB84FD8
:100C9000B387A2879C919F5F9C932689E0917307FD
:100CA000F09174079689291708F049CF4BCFE0914E
:100CB0007307F0917407268930E0F901EE0FFF1FEA
:100CC000EE0FFF1FEE0FFF1F2E0F3F1FF901E15B1D
:100CD000F84F9081923008F081E090911E079111B9
:100CE0000CC00CC080911F07909120070196909333
:100CF000200780931F0780E001C081E0DF91CF9142
:100D00001F910F910895CF93DF930FB6F8940F9230
:100D100080911707815080931707809117078111E1
:100D2000BFC080912507811196C0BDC0E0913507F5
:100D3000F09136070680F781E02DA489B589C68534
:100D4000D785808991899D838C83C089D189868547
:100D500097859B838A8311962D913C911297CF01A1
:100D60000C962817390731F48089918912969C9343
:100D70008E931197158A148A8C9181508C93A28539
:100D8000B385C481D581868197819D838C83C681FB
:100D9000D781848195819B838A8311968D919C91C3
:100DA00012979F012E5F3F4F8217930731F4868180
:100DB000978112969C938E931197138612868C912D
:100DC00081508C93868990912207981710F4809314
:100DD000220790E0DC01AA0FBB1FAA0FBB1FAA0FBE
:100DE000BB1F8A0F9B1FDC01A15BB84F11960D90B2
:100DF000BC91A02DB583A48314968D919C911597D9
:100E0000978386831496CD91DC9115973B832A8333
:100E100015963C932E931497A689B0E0CD01880FC8
:100E2000991F880F991F880F991FA80FB91FA15BE1
:100E3000B84FB387A2878C918F5F8C939689A091CE
:100E40007307B091740756968C91981730F081E033
:100E500080931E0702C0E0E0F0E08091300781112E
:100E600065CFEF2B11F00E941903C0911F07D0919D
:100E70002007209769F00E946905882319F081E016
:100E800080931E072197B9F71092200710921F0731
:100E900080911E07882331F00E94140181E003C075
:100EA00080E001C080E00F900FBEDF91CF910895E8
:100EB000CF93DF93EC01892B49F00E94630560E03A
:100EC000CE010E949F040E94830601C080E0811130
:100ED00002C00E941401DF91CF91089580911707FD
:100EE000882321F081E080931E07089510921E0749
:100EF0002091220701C02150822F90E0FC01EE0FCB
:100F0000FF1FEE0FFF1FEE0FFF1FE80FF91FE15B42
:100F1000F84F3081332379F3AC01440F551F440F50
:100F2000551F440F551F480F591FDF010180F281E3
:100F3000E02D0280F381E02D1296FC93EE93119741
:100F40004E5A584FE417F50729F442815381FD01A9
:100F500052834183FC01EE0FFF1FEE0FFF1FEE0FC8
:100F6000FF1F8E0F9F1FFC01E15BF84F0180F28194
:100F7000E02D868197819093740780937307209367
:100F8000220708958091790790917A07A0917B07B5
:100F9000B0917C070196A11DB11D809379079093B4
:100FA0007A07A0937B07B0937C0780917507909197
:100FB0007607A0917707B09178070196A11DB11D22
:100FC0008093750790937607A0937707B09378077F
:100FD0000895409175075091760760917707709159
:100FE00078078091790790917A07A0917B07B0915B
:100FF0007C07481759076A077B0729F40FC00E942E
:101000006300219602C0C0E0D0E0FE01E85FFE4F21
:1010100080818111F4CF8AE00E9463008BE190E02F
:101020000E945807D6CF0E9453000895EF92FF9276
:101030000F93CF93DF9300D000D0CDB7DEB70E94DF
:101040001308CE0101967C0101E020E030E046E982
:1010500050E062E271E082EC97E00E94E304CE018E
:1010600003967C0102E020E030E046E950E06AE2CD
:1010700071E089EE97E00E94E3040E94370580E06A
:1010800090E00F900F900F900F90DF91CF910F9104
:0A109000FF90EF900895F894FFCF51
:10109A00DB050349444C450073686172656420644A
:1010AA006174612070726F626C656D20686572652B
:1010BA00200070726F636573730068616E646C659B
:0210CA007200B2
:00000001FF
