S00C00006C6162352E73726563B4
S11300000C9434000C9451000C9451000C94510045
S11300100C9451000C9451000C9451000C94510018
S11300200C9451000C9451000C9451000C947902DE
S11300300C9451000C9451000C9451000C945100F8
S11300400C9451000C9451000C9451000C945100E8
S11300500C9451000C9451000C9451000C945100D8
S11300600C9451000C94510011241FBECFEFD8E022
S1130070DEBFCDBF11E0A0E0B1E0EEE3FDE102C0E0
S113008005900D92A433B107D9F727E0A4E3B1E0BA
S113009001C01D92A238B207E1F70E944C0E0C94E5
S11300A09D0E0C9400002AE030E04AC0A901B90179
S11300B0625171096A30710590F4682F70E0261757
S11300C0370769F4ECEEE20F94B161E070E002C02E
S11300D0660F771FEA95E2F76095692364B9BA0160
S11300E06C5171096A30710590F4682F70E026171D
S11300F0370769F4E2EEE20F97B161E070E002C005
S1130100660F771FEA95E2F76095692367B946524F
S113011051094A30510590F4482F50E0241735070F
S113012069F468ED620F9AB141E050E002C0440FF7
S1130130551F6A95E2F7409549234AB92F5F3F4F0F
S1130140203331050CF4B2CF08952AE030E054C0D6
S1130150A901B901625171096A307105A0F4682FCF
S113016070E02617370779F4245183B190E0AC018D
S113017002C0559547952A95E2F7CA0181709927DF
S113018040FD3FC00895BA016C5171096A30710590
S1130190B0F4682F70E02617370789F42E5186B122
S11301A090E0AC0102C0559547952A95E2F7CA0143
S11301B08170992740FF27C081E090E0089546525E
S11301C051094A305105B0F4482F50E0241735073F
S11301D089F4285289B190E0AC0102C05595479545
S11301E02A95E2F7CA018170992740FF0CC081E08B
S11301F090E008952F5F3F4F203331050CF4A8CFD2
S1130200089581E090E00895E2ECF0E0808186605A
S1130210808387E68093C4001092C500E1ECF0E08F
S113022080818861808308959091C00095FFFCCF00
S11302308093C6000895109289008CE7809388000B
S11302408BE080938100EFE6F0E080818260808320
S1130250089531E1FC013083319722E22083319704
S1130260A3E3A08331976083319770833197108221
S1130270319760E8608331971082319762E0608340
S1130280319763E06083319764E06083319765E080
S11302906083319766E06083319767E060833197CC
S11302A068E06083319769E06083319760E160833F
S11302B031973083319732E13083319733E13083A2
S11302C0319734E13083319735E13083319736E12A
S11302D03083319737E13083319738E13083319778
S11302E039E13083319730E23083319731E2308322
S11302F031972083319723E22083319740833197CC
S11303005083319726E22083319727E22083319767
S113031028E22083319729E22083319720E3208348
S1130320319721E32083869708950E941B01A091B1
S11303307E07B0917F07CD91CDBFDD91DEBFFF91E8
S1130340EF91DF91CF91BF91AF919F918F917F9169
S11303506F915F914F913F912F911F910F91FF905A
S1130360EF90DF90CF90BF90AF909F908F907F9051
S11303706F905F904F903F902F901F900F900FBE03
S11303800F90089581E008950F920FB6F8940F929C
S11303901F9211242F923F924F925F926F927F92FD
S11303A08F929F92AF92BF92CF92DF92EF92FF9281
S11303B00F931F932F933F934F935F936F937F9369
S11303C08F939F93AF93BF93CF93DF93EF93FF9359
S11303D0A0917E07B0917F070DB60D920EB60D92D7
S11303E00E94000BA0917E07B0917F07CD91CDBFF5
S11303F0DD91DEBFFF91EF91DF91CF91BF91AF917E
S11304009F918F917F916F915F914F913F912F9128
S11304101F910F91FF90EF90DF90CF90BF90AF901E
S11304209F908F907F906F905F904F903F902F9010
S11304301F900F900FBE0F9008950F920FB6F8946F
S11304400F921F9211242F923F924F925F926F92BC
S11304507F928F929F92AF92BF92CF92DF92EF9250
S1130460FF920F931F932F933F934F935F936F9339
S11304707F938F939F93AF93BF93CF93DF93EF9328
S1130480FF93A0917E07B0917F070DB60D920EB633
S11304900D920E94110981110E94000BA0917E0708
S11304A0B0917F07CD91CDBFDD91DEBFFF91EF917C
S11304B0DF91CF91BF91AF919F918F917F916F9178
S11304C05F914F913F912F911F910F91FF90EF906A
S11304D0DF90CF90BF90AF909F908F907F906F9060
S11304E05F904F903F902F901F900F900FBE0F90F2
S11304F008950E941D021895A9E3B1E0EDE3F1E02F
S11305001196FC93EE9313961C921E921297A5E3F8
S1130510B1E08BED95E013969C938E931297119610
S11305201C921E9293838283B183A0830895EF92D9
S1130530FF920F931F93CF93DF93EC010E940B095B
S113054080913401811105C00E947C0281E0809376
S11305503401209771F0CE010496C817D90738F4F6
S113056025968C179D0728F0C0E0D0E002C0C0E0BB
S1130570D0E0209709F45EC0209100013091010180
S11305802C173D0708F459C0E0913901F0913A0164
S1130590A9E3B1E002C0DF01FC01828193818C17E1
S11305A09D0720F4808191810097A9F781E0E533CC
S11305B0F80709F445C00D911C9111970C5F1F4F6A
S11305C0808191818D939C93828193818C1B9D0B5F
S11305D08930910530F1BF016C0F7D1FDB0113964B
S11305E09C938E931297D383C28312964D915C9100
S11305F013970F2EF9E3EF2EF1E0FF2EF02D01C03B
S11306007D01E701A881B98112968D919C91139780
S113061084179507A8F3EB01B983A883D7016D93D9
S11306207C9382819381281B390B309301012093A1
S1130630000108C000E010E005C000E010E002C0C6
S113064000E010E00E942B0AC801DF91CF911F91B6
S11306500F91FF90EF9008950F931F93CF93DF9323
S1130660009741F1EC018C01045011090E940B091F
S1130670F80142815381A9E3B1E001C0DF01ED91AA
S1130680FC9111972281338124173507B8F32497FD
S1130690F983E8830D931C938A819B812091000147
S11306A030910101820F931F909301018093000107
S11306B00E942B0ADF91CF911F910F910895FC01A5
S11306C00396928381832FEF3FEF348323839683B2
S11306D085839087878310820895FC011186108694
S11306E00895CF93DF93EB01488159814F3F2FEF5A
S11306F0520721F4FC01A781B0850DC0DC011396DB
S113070001C0DF011296ED91FC9113972081318194
S113071042175307B0F71296ED91FC911397FB83A0
S1130720EA83D583C483BD83AC831396DC93CE93D1
S1130730129799878887FC0120812F5F2083DF919E
S1130740CF910895CF93DF93FC01A085B185C28139
S1130750D381848195819D838C83C481D581828159
S113076093819B838A8311968D919C911297E817AC
S1130770F90731F48481958112969C938E93119795
S1130780118610868C9181508C938C91DF91CF913E
S11307900895DC0151962C915197222341F05696ED
S11307A0ED91FC915797908184E0891B089580E036
S11307B008950FB6F8940F92FC01828D811102C046
S11307C081E001C080E00F900FBE08950FB6F89449
S11307D00F92FC01228D838D281302C081E001C099
S11307E080E00F900FBE08950F931F93CF93DF9374
S11307F0EC01042F1A8D4C8D41110CC08881998114
S1130800892B09F042C08C819D810E94050D1D82B7
S11308101C8242C0011117C050E08A819B810E9452
S1130820940E2C8D8A819B81820F911D9B838A83D8
S11308302C813D818217930750F1888199819B8394
S11308408A8380E029C050E08E819F810E94940EAB
S11308508C8D90E09195819591092E813F81280F8F
S1130860391F3F832E83488159812417350730F47B
S11308702C813D81820F931F9F838E83023049F424
S1130880112349F0115080E007C080E005C080E0EA
S113089003C080E001C080E01F5F1A8FDF91CF9119
S11308A01F910F9108951F93CF93DF93EC010FB61F
S11308B0F8940F921E8D0BC08989882351F0CE01C4
S11308C041960E94660B81110E946D0C1150111605
S11308D09CF38FEF8E8F0F900FBE0FB6F8940F928C
S11308E01D8D0BC08885882351F0CE0108960E9487
S11308F0660B81110E946D0C115011169CF38FEF41
S11309008D8F0F900FBEDF91CF911F9108950F939C
S11309101F93CF93DF93FC01362F892B09F44DC02D
S1130920238D222309F44BC0022F10E08FEF9FEF99
S1130930B8010E94800E448D842F90E068177907D7
S113094008F43FC0EF010FB6F8940F9260817181F3
S1130950FB01249FE00DF11D1124FD83EC831A8E0D
S11309607B836A8301501109809FA001819F500DF0
S1130970909F500D1124CB01840F951F9F838E836C
S11309808FEF8D8F8E8F31110CC08885882389F06D
S1130990CE0108960E94660B882359F00E94C40178
S11309A008C0CE0108960E945F03CE0141960E94C2
S11309B05F030F900FBE81E005C080E003C080E0BC
S11309C001C080E0DF91CF911F910F9108950F93A3
S11309D01F93F801611103C01183008302C0518386
S11309E04083838F648F61E0CF010E9487041F914D
S11309F00F910895DF92EF92FF920F931F93CF937D
S1130A00DF93382FE62F882329F1682F70E08FEFCA
S1130A109FEF0E94800E8E2F90E068177907E8F010
S1130A203E9FC0011124813E2FEF9207C8F4D42EBB
S1130A30DE2FC32F4F960E9497027C01009791F0FE
S1130A408C012D2DAC01415E5F4F6D2F8C2F0E94C8
S1130A50E70408C0E12CF12C05C0E12CF12C02C004
S1130A60E12CF12CC701DF91CF911F910F91FF90E1
S1130A70EF90DF900895CF92DF92EF92FF920F9361
S1130A801F93CF93DF9300D000D01F92CDB7DEB772
S1130A908C017B015D834C83C22ED12C0FB6F8945C
S1130AA00F92F801928D838D981718F0F2E0CF120F
S1130AB019C04C2DB701C8010E94F403F8019189B3
S1130AC0992349F0C80141960E94660B882331F0AE
S1130AD00E94C40103C081110E94C4010F900FBE83
S1130AE081E04DC08C819D81892B21F40F900FBE34
S1130AF080E045C0D11006C0CE0101960E94230CAF
S1130B00DD24D3940F900FBE0E940B090FB6F89406
S1130B100F92F801858D8F3F09F4158EF801868DAB
S1130B208F3F09F4168E0F900FBEBE016C5F7F4F8E
S1130B30CE0101960E942E0C81111BC0C8010E9497
S1130B40E603882381F06C817D81C80108960E94A8
S1130B50540BC8010E9453040E942B0A81119ECF9A
S1130B600E94C4019BCFC8010E9453040E942B0A17
S1130B7095CFC8010E9453040E942B0A80E00F9075
S1130B800F900F900F900F90DF91CF911F910F91C5
S1130B90FF90EF90DF90CF900895EF92FF920F9324
S1130BA01F93CF93DF9300D000D01F92CDB7DEB751
S1130BB08C017D836C83E12CF12C0FB6F8940F9299
S1130BC0F801828D8823D1F08150828F80819181B8
S1130BD0892B29F40E94DB0DF80195838483F801A5
S1130BE08085882339F0C80108960E94660B81111C
S1130BF00E94C4010F900FBE81E074C08C819D815E
S1130C00892B21F40F900FBE80E06CC0F11006C058
S1130C10CE0101960E94230CFF24F3940F900FBE83
S1130C200E940B090FB6F8940F92F801858D8F3F3F
S1130C3009F4158EF801868D8F3F09F4168E0F90F6
S1130C400FBEBE016C5F7F4FCE0101960E942E0C39
S1130C5081112AC0C8010E94D9038823F9F0F80140
S1130C6080819181892B51F40FB6F8940F9284817D
S1130C7095810E94710CE82E0F900FBE6C817D81CE
S1130C80C80141960E94540BC8010E9453040E945B
S1130C902B0A811192CF0E94C4018FCFC8010E94F8
S1130CA053040E942B0A89CFC8010E9453040E9456
S1130CB02B0AC8010E94D903882309F47ECFEE20B1
S1130CC081F00FB6F8940F92C8010E94C903682FEF
S1130CD0F801848195810E94680D0F900FBE80E019
S1130CE001C080E00F900F900F900F900F90DF9154
S1130CF0CF911F910F91FF90EF900895E0914607D7
S1130D00F09147078081811107C08FEF9FEF909387
S1130D101D0780931C070895E0914607F09147074B
S1130D200580F681E02D8081918190931D07809349
S1130D301C070895CF93DF93EC018F89988D0E944F
S1130D402C03CE010E942C03DF91CF9108956F9262
S1130D507F928F929F92AF92BF92CF92DF92EF9247
S1130D600F931F93CF93DF93CDB7DEB74C01D5011B
S1130D7057968D919C915897215031093C01620EF0
S1130D80731E6115710589F416C0822F90E0FB0172
S1130D90E80FF91F3081D501A80FB91F59963C936C
S1130DA08081882329F02F5F01C020E0283068F378
S1130DB0F50110A203C0D50159961C92B3E0BE15EB
S1130DC020F40F2EF3E0EF2EF02DF501E68AE1A2D8
S1130DD012A2C50102960E946D03C5010C960E94E1
S1130DE06D03D5011996BC92AE92189784E090E0F9
S1130DF08E1991091D969C938E931C975396BC92C1
S1130E00AE92529784E0F501B396DF011D928A9564
S1130E10E9F7F50117A2A801B401C3010E94290151
S1130E20D5018D939C93C114D10419F0F601B182BC
S1130E30A082DF91CF911F910F91EF90DF90CF901F
S1130E40BF90AF909F908F907F906F900895CF93B5
S1130E50C0E010C08C2F90E09C01220F331F220FA2
S1130E60331F220F331F820F931F865A984F0E94FD
S1130E705F03CF5FC43070F381E597E00E945F03A6
S1130E8088E497E00E945F038BE397E00E945F038E
S1130E9082E397E00E945F0388E297E00E945F0389
S1130EA081E597E0909347078093460788E497E0AD
S1130EB09093450780934407CF910895CF93DF9390
S1130EC0EC010FB6F8940F92809127078F5F8093FF
S1130ED0270780917E0790917F07892B59F4D0933F
S1130EE07F07C0937E0780912707813099F40E9481
S1130EF0270710C08091230781110CC0E0917E0761
S1130F00F0917F0796898E89891720F0D0937F0707
S1130F10C0937E0780911E078F5F80931E078E8982
S1130F2090912407981710F48093240790E0FC0113
S1130F30EE0FFF1FEE0FFF1FEE0FFF1F8E0F9F1F01
S1130F40FC01E65AF84F0180F281E02DFD83EC8329
S1130F50848195819F838E83A481B581CE0102967D
S1130F6013969C938E93129795838483EE89F0E075
S1130F70CF01880F991F880F991F880F991FE80FB9
S1130F80F91FE65AF84FFB87EA8780818F5F8083D9
S1130F900F900FBE80912307882351F0E0917E07C4
S1130FA0F0917F0796898E89981710F40E94C401E6
S1130FB0DF91CF910895CF93DF931CC00FB6F894BF
S1130FC00F92E0913707F0913807C681D781CE019F
S1130FD002960E94A20380912707815080932707DD
S1130FE0809131078150809331070F900FBECE015D
S1130FF00E949A06809131078111E0CFDF91CF9151
S113100008950E94DB0780915A078230D0F30E9432
S1131010C401F7CFFF920F931F93CF93DF93EC019B
S1131020F62E009125071091260780917E07909156
S11310307F0702960E94A203CF3F8FEFD807B1F536
S1131040FF20A1F1E8E2F7E0A181B281C0917E071F
S1131050D0917F07BD83AC83C0917E07D0917F0779
S113106014968D919C9115979F838E831496CD91A0
S1131070DC91159780917E0790917F0702969B8360
S11310808A8380917E0790917F07029615969C93A0
S11310908E931497A0917E07B0917F071B96FC93C3
S11310A0EE931A9780818F5F80832FC0C00FD11F6A
S11310B0E0917E07F0917F07D383C283C017D107E5
S11310C068F460917E0770917F0780914407909146
S11310D045076E5F7F4F0E94710317C060917E07C2
S11310E070917F0780914607909147076E5F7F4F0D
S11310F00E94710380911C0790911D07C817D9079E
S113110020F4D0931D07C0931C07DF91CF911F914A
S11311100F91FF9008952F923F924F925F926F929A
S11311207F928F929F92AF92BF92CF92DF92EF9273
S1131130FF920F931F93CF93DF933C011B015A013E
S11311402901CA010E9497026C01892B71F088E27F
S113115090E00E949702EC01892B19F0D88ECF8A77
S113116006C0C6010E942C0302C0C0E0D0E0209754
S113117091F0950140E050E0812C912C5E016701D3
S1131180E02E8201B101C3010E94A706CE010E9494
S11311905E0781E001C08FEFDF91CF911F910F9126
S11311A0FF90EF90DF90CF90BF90AF909F908F9083
S11311B07F906F905F904F903F902F900895EF92A3
S11311C0FF920F930F2EFAE1EF2EF7E0FF2EF02D92
S11311D000E020E030E045E550E063E071E081E0CC
S11311E098E00E948B08813081F4F8948FEF9FEF90
S11311F090931D0780931C0781E08093230710922E
S11312002607109225070E949501809102010F91F3
S1131210FF90EF900895809119078F5F80931907CD
S113122008950F931F93CF93DF9380911907811132
S113123001C1C0912507D09126078E010F5F1F4F72
S1131240109326070093250701151105B9F4809121
S11312504607909147072091440730914507309302
S1131260470720934607909345078093440780914E
S11312701F078F5F80931F070E947E0680911C07C3
S113128090911D070817190720F480E0B8C081E089
S113129001C080E0E0914607F091470790819111E9
S11312A007C02FEF3FEF30931D0720931C07A7C003
S11312B0E0914607F09147070580F681E02D06800E
S11312C0F781E02D228133810217130728F430932C
S11312D01D0720931C0793C0A285B3852481358103
S11312E046815781E9015D834C832681378144819E
S11312F05581E9015B834A8311962D913C911297A4
S1131300AF014E5F5F4F2417350731F426813781D3
S113131012963C932E931197138612869C919150AA
S11313209C93A489B589109719F12685378560891E
S11313307189E9017D836C8320893189668577858C
S1131340E9017B836A8311966D917C9112979F01C9
S1131350245F3F4F6217730731F420893189129655
S11313603C932E931197158A148A9C9191509C93C7
S1131370268990912407921710F42093240730E0D3
S1131380D901AA0FBB1FAA0FBB1FAA0FBB1F2A0F8D
S11313903B1FD901A65AB84F11960D90BC91A02DB0
S11313A0B583A48314962D913C9115973783268396
S11313B014962D913C911597E9015B834A83159608
S11313C05C934E931497A689B0E09D01220F331FBE
S11313D0220F331F220F331FA20FB31FA65AB84F79
S11313E0B387A2879C919F5F9C932689E0917E0797
S11313F0F0917F079689291708F049CF4BCFE091E8
S11314007E07F0917F07268930E0F901EE0FFF1F78
S1131410EE0FFF1FEE0FFF1F2E0F3F1FF901E65ABD
S1131420F84F9081923008F081E09091200791115B
S11314300CC00CC0809121079091220701969093D3
S113144022078093210780E001C081E0DF91CF91E2
S11314501F910F910895CF93DF930FB6F8940F92D5
S11314608091190781508093190780911907811180
S1131470BFC080912707811196C0BDC0E09140078D
S1131480F09141070680F781E02DA489B589C685CE
S1131490D785808991899D838C83C089D1898685EC
S11314A097859B838A8311962D913C911297CF0146
S11314B00C962817390731F48089918912969C93E8
S11314C08E931197158A148A8C9181508C93A285DE
S11314D0B385C481D581868197819D838C83C681A0
S11314E0D781848195819B838A8311968D919C9168
S11314F012979F012E5F3F4F8217930731F4868125
S1131500978112969C938E931197138612868C91D1
S113151081508C93868990912407981710F48093B6
S1131520240790E0DC01AA0FBB1FAA0FBB1FAA0F60
S1131530BB1F8A0F9B1FDC01A65AB84F11960D9052
S1131540BC91A02DB583A48314968D919C9115977D
S1131550978386831496CD91DC9115973B832A83D8
S113156015963C932E931497A689B0E0CD01880F6D
S1131570991F880F991F880F991FA80FB91FA65A82
S1131580B84FB387A2878C918F5F8C939689A09173
S11315907E07B0917F0756968C91981730F081E0C2
S11315A08093200702C0E0E0F0E080913B078111C6
S11315B065CFEF2B11F00E947E06C0912107D091D8
S11315C02207209769F00E941109882319F081E00D
S11315D0809320072197B9F71092220710922107D0
S11315E080912007882331F00E94C40181E003C068
S11315F080E001C080E00F900FBEDF91CF9108958D
S113160080911907882321F081E0809320070895B1
S1131610109220072091240701C02150822F90E0CE
S1131620FC01EE0FFF1FEE0FFF1FEE0FFF1FE80F71
S1131630F91FE65AF84F3081332379F3AC01440F94
S1131640551F440F551F440F551F480F591FDF01E5
S11316500180F281E02D0280F381E02D1296FC934B
S1131660EE931197435A584FE417F50729F4428132
S11316705381FD0152834183FC01EE0FFF1FEE0FE6
S1131680FF1FEE0FFF1F8E0F9F1FFC01E65AF84F3E
S11316900180F281E02D8681978190937F0780936A
S11316A07E07209324070895CF93DF93EB01609185
S11316B07E0770917F07645F7F4F0E94710361E032
S11316C0CE010E940A08DF91CF910895CF93DF9352
S11316D0DC011596ED91FC9116970680F781E02DBB
S11316E0A489B589C685D785808991899D838C8392
S11316F0C089D189868597859B838A8311968D912C
S11317009C9112979F01245F3F4F8217930731F4F6
S11317108089918912969C938E931197158A148AC5
S11317208C9181508C9380911907811160C0A2859E
S1131730B385C481D581868197819D838C83C6813D
S1131740D781848195819B838A8311968D919C9105
S113175012979F012E5F3F4F8217930731F48681C2
S1131760978112969C938E931197138612868C916F
S113177081508C93868990912407981710F4809354
S1131780240790E0DC01AA0FBB1FAA0FBB1FAA0FFE
S1131790BB1F8A0F9B1FDC01A65AB84F11960D90F0
S11317A0BC91A02DB583A48314968D919C9115971B
S11317B0978386831496CD91DC9115973B832A8376
S11317C015963C932E931497A689B0E0CD01880F0B
S11317D0991F880F991F880F991FA80FB91FA65A20
S11317E0B84FB387A2878C918F5F8C931CC04BE357
S11317F057E0DA011196CD91DC911297D787C6870D
S11318008C819D81918B808B8C819D81DC011396D1
S11318103C932E9312973D832C83558B448BDA0192
S11318208C918F5F8C939689E0917E07F0917F076E
S11318308689891720F481E08093200701C080E025
S1131840DF91CF91089520911F07FC0120832091FF
S11318502507309126073283218308951F93CF9360
S1131860DF930FB6F8940F92E0912507F0912607C5
S1131870DC0111964D915C911297DF01A41BB50B0D
S1131880EB01288139812F3FDFEF3D07F9F0EC01AF
S11318901881C0911F071C1741F0E417F50728F0C1
S11318A0FB011182108281E012C0A217B30748F431
S11318B0FB012A1B3B0B318320830E94230C80E015
S11318C006C0DB011D921C9281E001C080E00F90F4
S11318D00FBEDF91CF911F91089581E0809320077F
S11318E008950F931F93CF93DF93FC01892B09F481
S11318F084C02689A0917E07B0917F0756968C916B
S1131900281708F070C084859585992364F0A09108
S11319107E07B0917F0756963C9184E090E0831B4C
S11319209109958784878285938530E0A901440FC6
S1131930551F440F551F440F551F240F351F265A9A
S1131940384F8217930709F045C0EF018F010E5FEE
S11319501F4FC8010E94A203E0917E07F0917F0708
S113196086898E8B90912407981710F4809324070E
S113197090E0FC01EE0FFF1FEE0FFF1FEE0FFF1FA5
S11319808E0F9F1FFC01E65AF84F0180F281E02D73
S1131990FD83EC83848195819F838E83A481B581AB
S11319A013961C930E931297158304838E8990E0EB
S11319B0FC01EE0FFF1FEE0FFF1FEE0FFF1FE80FDE
S11319C0F91FE65AF84FFB87EA8780818F5F80838F
S11319D081E016C0A0917E07B0917F0756968C9146
S11319E0868B81E00DC091A1E0917E07F0917F0785
S11319F08689981720F080E003C080E001C081E070
S1131A00DF91CF911F910F9108950F931F93CF935F
S1131A10DF93FC01892B09F451C082A1815082A378
S1131A20268991A1291709F44BC081114BC0EF01FC
S1131A308F010E5F1F4FC8010E94A20389A18E8BE4
S1131A4024E030E0281B31093D872C87909124073E
S1131A50981710F48093240790E0FC01EE0FFF1F09
S1131A60EE0FFF1FEE0FFF1F8E0F9F1FFC01E65AA4
S1131A70F84F0180F281E02DFD83EC838481958110
S1131A809F838E83A481B58113961C930E93129722
S1131A9015830483EE89F0E0CF01880F991F880F26
S1131AA0991F880F991FE80FF91FE65AF84FFB8713
S1131AB0EA8780818F5F808381E005C080E003C076
S1131AC080E001C080E0DF91CF911F910F910895D4
S1131AD00F931F93CF93DF93FC01892B09F466C006
S1131AE091A1961708F4962F8689981709F45EC079
S1131AF022A1213009F05AC0968B248535853323E1
S1131B0034F024E030E0291B31093587248722850D
S1131B10338590E0AC01440F551F440F551F440F0B
S1131B20551F840F951F865A984F28173907F1F5CA
S1131B30EF018F010E5F1F4FC8010E94A2038E891F
S1131B4090912407981710F48093240790E0FC01E7
S1131B50EE0FFF1FEE0FFF1FEE0FFF1F8E0F9F1FD5
S1131B60FC01E65AF84F0180F281E02DFD83EC83FD
S1131B70848195819F838E83A481B58113961C9360
S1131B800E931297158304838E8990E0FC01EE0F67
S1131B90FF1FEE0FFF1FEE0FFF1FE80FF91FE65A9E
S1131BA0F84FFB87EA8780818F5F8083DF91CF9135
S1131BB01F910F91089580917E0790917F07892B43
S1131BC039F0E0917E07F0917F0782A18F5F82A3B5
S1131BD080917E0790917F07089584E10E94A5007B
S1131BE00197D9F72FEF84E39CE021508040904087
S1131BF0E1F700C0000020E040E050E060E070E069
S1131C0080918007909181070E943B05E6CF80E098
S1131C1090E008950F931F93CF938C01C0E007C009
S1131C20F801EC0FF11D80810E941401CF5F0115B2
S1131C301105B1F7CF911F910F91089543E060E032
S1131C4081E00E94FA04909381078093800760E00A
S1131C5070E00E94CD05C0E0D0E06AE070E08091C1
S1131C608007909181070E94CD058130B1F788E00B
S1131C7091E00E940A0ECE010E94070E0E940A0EF5
S1131C8021968AE090E00E940A0EE7CF0E940401A8
S1131C9084E10E9453000895EF92FF920F93CF9333
S1131CA0DF9300D000D0CDB7DEB70E94460ECE0140
S1131CB001967C0101E020E030E046E950E063E277
S1131CC071E08EE19EE00E948B08CE0103967C01B8
S1131CD020E030E046E950E06BE271E08DEE9DE0FB
S1131CE00E948B080E94DF0880E090E00F900F9024
S1131CF00F900F90DF91CF910F91FF90EF90089587
S1131D00AA1BBB1B51E107C0AA1FBB1FA617B7071D
S1131D1010F0A61BB70B881F991F5A95A9F7809539
S1131D209095BC01CD010895FB01DC0102C0019036
S1111D300D9241505040D8F70895F894FFCF1B
S1131D3EDB050349444C45005365727665722052A7
S1131D4E6573706F6E6420546F20436C696E7420DB
S1131D5E3A200070726F636573730068616E646C11
S1071D6E6572000096
S9030000FC
