S00C00006C6162362E73726563B3
S11300000C9434000C9451000C9451000C94510045
S11300100C9451000C9451000C9451000C94510018
S11300200C9451000C9451000C9451000C943B021C
S11300300C9451000C9451000C9451000C945100F8
S11300400C9451000C9451000C9451000C945100E8
S11300500C9451000C9451000C9451000C945100D8
S11300600C9451000C94510011241FBECFEFD8E022
S1130070DEBFCDBF11E0A0E0B1E0E6E1FFE102C0E8
S113008005900D92AE38B107D9F727E0AEE8B1E09C
S113009001C01D92A03EB207E1F70E94310F0C94FB
S11300A0890F0C9400002AE030E06AC0A901F9012C
S11300B072973A97F0F4E82FF0E02E173F07C9F44F
S11300C0245134B181E090E002C0880F991F2A9531
S11300D0E2F7232F282B24B9683611F0683421F471
S11300E095B1892B85B9089595B18095892385B9F2
S11300F00895FA017C973A97F0F4E82FF0E02E1770
S11301003F07C9F42E5137B181E090E002C0880F57
S1130110991F2A95E2F7232F282B27B9683611F067
S1130120683421F498B1892B88B9089598B18095E1
S1130130892388B90895465251094A305105F0F48B
S1130140482F50E024173507C9F428523AB181E00A
S113015090E002C0880F991F2A95E2F7232F282BDD
S11301602AB9683611F0683421F49BB1892B8BB914
S113017008959BB1809589238BB908952F5F3F4FD4
S1130180203331050CF492CF0895E2ECF0E0808145
S11301908660808387E68093C4001092C500E1ECFA
S11301A0F0E080818861808308959091C00095FF7C
S11301B0FCCF8093C600089581E08093890083EF8B
S11301C0809388008BE080938100EFE6F0E08081EB
S11301D082608083089531E1FC013083319722E20B
S11301E020833197A3E3A083319760833197708391
S11301F031971082319760E860833197108231978C
S113020062E06083319763E06083319764E06083E8
S1130210319765E06083319766E06083319767E0EA
S11302206083319768E06083319769E06083319738
S113023060E1608331973083319732E130833197C5
S113024033E13083319734E13083319735E13083C2
S1130250319736E13083319737E13083319738E194
S11302603083319739E13083319730E230833197ED
S113027031E2308331972083319723E22083319711
S1130280408331975083319726E22083319727E2C8
S11302902083319728E22083319729E22083319704
S11302A020E32083319721E32083869708950E94D9
S11302B0DC00A091D807B091D907CD91CDBFDD91D5
S11302C0DEBFFF91EF91DF91CF91BF91AF919F91ED
S11302D08F917F916F915F914F913F912F911F91DA
S11302E00F91FF90EF90DF90CF90BF90AF909F90D1
S11302F08F907F906F905F904F903F902F901F90C2
S11303000F900FBE0F90089581E008950F920FB6DD
S1130310F8940F921F9211242F923F924F925F9262
S11303206F927F928F929F92AF92BF92CF92DF9201
S1130330EF92FF920F931F932F933F934F935F93EB
S11303406F937F938F939F93AF93BF93CF93DF93D9
S1130350EF93FF93A091D807B091D9070DB60D92F2
S11303600EB60D920E94E00AA091D807B091D90769
S1130370CD91CDBFDD91DEBFFF91EF91DF91CF91A4
S1130380BF91AF919F918F917F916F915F914F91A9
S11303903F912F911F910F91FF90EF90DF90CF909D
S11303A0BF90AF909F908F907F906F905F904F9091
S11303B03F902F901F900F900FBE0F9008950F92B3
S11303C00FB6F8940F921F9211242F923F924F92DE
S11303D05F926F927F928F929F92AF92BF92CF92D1
S11303E0DF92EF92FF920F931F932F933F934F93BC
S11303F05F936F937F938F939F93AF93BF93CF93A9
S1130400DF93EF93FF93A091D807B091D9070DB66E
S11304100D920EB60D920E94F10881110E94E00A1D
S1130420A091D807B091D907CD91CDBFDD91DEBFA2
S1130430FF91EF91DF91CF91BF91AF919F918F91F8
S11304407F916F915F914F913F912F911F910F91E8
S1130450FF90EF90DF90CF90BF90AF909F908F90E0
S11304607F906F905F904F903F902F901F900F90D0
S11304700FBE0F9008950E94DF011895A3E9B1E023
S1130480E7E9F1E01196FC93EE9313961C921E9209
S11304901297AFE8B1E08BED95E013969C938E93A1
S11304A0129711961C921E9293838283B183A08328
S11304B00895EF92FF920F931F93CF93DF93EC0174
S11304C00E94EB0880918E01811105C00E943E02BA
S11304D081E080938E01209771F0CE010496C817B5
S11304E0D90738F425968C179D0728F0C0E0D0E092
S11304F002C0C0E0D0E0209709F45EC02091000162
S1130500309101012C173D0708F459C0E091930183
S1130510F0919401A3E9B1E002C0DF01FC01828102
S113052093818C179D0720F4808191810097A9F70E
S113053081E0EF38F80709F445C00D911C9111973B
S11305400C5F1F4F808191818D939C938281938155
S11305508C1B9D0B8930910530F1BF016C0F7D1F01
S1130560DB0113969C938E931297D383C2831296C6
S11305704D915C9113970F2EF3E9EF2EF1E0FF2ECE
S1130580F02D01C07D01E701A881B98112968D91FA
S11305909C91139784179507A8F3EB01B983A8835B
S11305A0D7016D937C9382819381281B390B3093FF
S11305B001012093000108C000E010E005C000E044
S11305C010E002C000E010E00E940B0AC801DF91B5
S11305D0CF911F910F91FF90EF9008950F931F9368
S11305E0CF93DF93009741F1EC018C010450110982
S11305F00E94EB08F80142815381A3E9B1E001C0F4
S1130600DF01ED91FC911197228133812417350785
S1130610B8F32497F983E8830D931C938A819B8113
S11306202091000130910101820F931F90930101E9
S1130630809300010E940B0ADF91CF911F910F91CB
S11306400895FC010396928381832FEF3FEF348357
S11306502383968385839087878310820895FC0182
S1130660118610860895CF93DF93EB014881598159
S11306704F3F2FEF520721F4FC01A781B0850DC035
S1130680DC01139601C0DF011296ED91FC911397E2
S11306902081318142175307B0F71296ED91FC91F6
S11306A01397FB83EA83D583C483BD83AC831396FA
S11306B0DC93CE93129799878887FC0120812F5F62
S11306C02083DF91CF910895CF93DF93FC01A08520
S11306D0B185C281D381848195819D838C83C481BA
S11306E0D581828193819B838A8311968D919C917C
S11306F01297E817F90731F48481958112969C9337
S11307008E931197118610868C9181508C938C91C5
S1130710DF91CF910895DC0151962C9151972223BA
S113072041F05696ED91FC915797908184E0891B96
S1130730089580E008950FB6F8940F92FC01828D1D
S1130740811102C081E001C080E00F900FBE0895C6
S11307500FB6F8940F92FC01228D838D281302C0EA
S113076081E001C080E00F900FBE08950F931F93A6
S1130770CF93DF93EC01042F1A8D4C8D41110CC0E3
S113078088819981892B09F042C08C819D810E94C6
S1130790E50C1D821C8242C0011117C050E08A8101
S11307A09B810E94800F2C8D8A819B81820F911DD9
S11307B09B838A832C813D818217930750F1888122
S11307C099819B838A8380E029C050E08E819F8138
S11307D00E94800F8C8D90E09195819591092E81D6
S11307E03F81280F391F3F832E8348815981241765
S11307F0350730F42C813D81820F931F9F838E83B4
S1130800023049F4112349F0115080E007C080E020
S113081005C080E003C080E001C080E01F5F1A8F44
S1130820DF91CF911F910F9108951F93CF93DF9381
S1130830EC010FB6F8940F921E8D0BC089898823A2
S113084051F0CE0141960E94460B81110E944D0C3D
S1130850115011169CF38FEF8E8F0F900FBE0FB6B1
S1130860F8940F921D8D0BC08885882351F0CE011A
S113087008960E94460B81110E944D0C11501116CE
S11308809CF38FEF8D8F0F900FBEDF91CF911F914F
S113089008950F931F93CF93DF93FC01362F892B79
S11308A009F44DC0238D222309F44BC0022F10E01C
S11308B08FEF9FEFB8010E946C0F448D842F90E05E
S11308C06817790708F43FC0EF010FB6F8940F9248
S11308D060817181FB01249FE00DF11D1124FD83D2
S11308E0EC831A8E7B836A8301501109809FA001D7
S11308F0819F500D909F500D1124CB01840F951FA3
S11309009F838E838FEF8D8F8E8F31110CC08885DE
S1130910882389F0CE0108960E94460B882359F05B
S11309200E94860108C0CE0108960E942103CE01D0
S113093041960E9421030F900FBE81E005C080E024
S113094003C080E001C080E0DF91CF911F910F913F
S113095008950F931F93F801611103C0118300835D
S113096002C051834083838F648F61E0CF010E9472
S113097049041F910F910895DF92EF92FF920F9314
S11309801F93CF93DF93382FE62F882329F1682F05
S113099070E08FEF9FEF0E946C0F8E2F90E068172E
S11309A07907E8F03E9FC0011124813E2FEF9207A2
S11309B0C8F4D42EDE2FC32F4F960E9459027C0117
S11309C0009791F08C012D2DAC01415E5F4F6D2F8E
S11309D08C2F0E94A90408C0E12CF12C05C0E12C45
S11309E0F12C02C0E12CF12CC701DF91CF911F91B2
S11309F00F91FF90EF90DF900895CF92DF92EF92E6
S1130A00FF920F931F93CF93DF9300D000D01F92D8
S1130A10CDB7DEB78C017B015D834C83C22ED12C14
S1130A200FB6F8940F92F801928D838D981718F0F1
S1130A30F2E0CF1219C04C2DB701C8010E94B603D1
S1130A40F8019189992349F0C80141960E94460B07
S1130A50882331F00E94860103C081110E9486011F
S1130A600F900FBE81E04DC08C819D81892B21F4B4
S1130A700F900FBE80E045C0D11006C0CE01019694
S1130A800E94030CDD24D3940F900FBE0E94EB0848
S1130A900FB6F8940F92F801858D8F3F09F4158EE7
S1130AA0F801868D8F3F09F4168E0F900FBEBE019C
S1130AB06C5F7F4FCE0101960E940E0C81111BC00A
S1130AC0C8010E94A803882381F06C817D81C8013C
S1130AD008960E94340BC8010E9415040E940B0A58
S1130AE081119ECF0E9486019BCFC8010E941504EC
S1130AF00E940B0A95CFC8010E9415040E940B0A9C
S1130B0080E00F900F900F900F900F90DF91CF9196
S1130B101F910F91FF90EF90DF90CF900895009771
S1130B2069F0FC011582148211821082168220E081
S1130B3040E050E060E070E00E94FD040895CF932F
S1130B40DF93482F60E081E00E94BC04EC010E9426
S1130B508F05CE01DF91CF910895EF92FF920F930D
S1130B601F93CF93DF9300D000D01F92CDB7DEB791
S1130B708C017D836C83E12CF12C0FB6F8940F92D9
S1130B80F801828D8823D1F08150828F80819181F8
S1130B90892B29F40E94BB0DF80195838483F80105
S1130BA08085882339F0C80108960E94460B81117C
S1130BB00E9486010F900FBE81E074C08C819D81DC
S1130BC0892B21F40F900FBE80E06CC0F11006C099
S1130BD0CE0101960E94030CFF24F3940F900FBEE4
S1130BE00E94EB080FB6F8940F92F801858D8F3FA1
S1130BF009F4158EF801868D8F3F09F4168E0F9037
S1130C000FBEBE016C5F7F4FCE0101960E940E0C99
S1130C1081112AC0C8010E949B038823F9F0F801BE
S1130C2080819181892B51F40FB6F8940F928481BD
S1130C3095810E94510CE82E0F900FBE6C817D812E
S1130C40C80141960E94340BC8010E9415040E94F9
S1130C500B0A811192CF0E9486018FCFC8010E9496
S1130C6015040E940B0A89CFC8010E9415040E9432
S1130C700B0AC8010E949B03882309F47ECFEE204F
S1130C8081F00FB6F8940F92C8010E948B03682F6D
S1130C90F801848195810E94480D0F900FBE80E079
S1130CA001C080E00F900F900F900F900F90DF9194
S1130CB0CF911F910F91FF90EF900895E091A007BD
S1130CC0F091A1078081811107C08FEF9FEF90936E
S1130CD07707809376070895E091A007F091A10724
S1130CE00580F681E02D8081918190937707809330
S1130CF076070895CF93DF93EC018F89988D0E9436
S1130D00EE02CE010E94EE02DF91CF9108956F9220
S1130D107F928F929F92AF92BF92CF92DF92EF9287
S1130D200F931F93CF93DF93CDB7DEB74C01D5015B
S1130D3057968D919C915897215031093C01620E30
S1130D40731E6115710589F416C0822F90E0FB01B2
S1130D50E80FF91F3081D501A80FB91F59963C93AC
S1130D608081882329F02F5F01C020E0283068F3B8
S1130D70F50110A203C0D50159961C92B3E0BE152B
S1130D8020F40F2EF3E0EF2EF02DF501E68AE1A218
S1130D9012A2C50102960E942F03C5010C960E945F
S1130DA02F03D5011996BC92AE92189784E090E077
S1130DB08E1991091D969C938E931C975396BC9201
S1130DC0AE92529784E0F501B396DF011D928A95A5
S1130DD0E9F7F50117A2A801B401C3010E94EB00D1
S1130DE0D5018D939C93C114D10419F0F601B182FD
S1130DF0A082DF91CF911F910F91EF90DF90CF9060
S1130E00BF90AF909F908F907F906F900895CF93F5
S1130E10C0E010C08C2F90E09C01220F331F220FE2
S1130E20331F220F331F820F931F8C54984F0E943D
S1130E302103CF5FC43070F38BEA97E00E94210353
S1130E4082EA97E00E94210385E997E00E9421034A
S1130E508CE897E00E94210382E897E00E94210336
S1130E608BEA97E09093A1078093A00782EA97E02A
S1130E7090939F0780939E07CF910895CF93DF931C
S1130E80EC010FB6F8940F92809181078F5F8093E5
S1130E9081078091D8079091D907892B59F4D09371
S1130EA0D907C093D80780918107813099F40E94B3
S1130EB0070710C080917D0781110CC0E091D8070D
S1130EC0F091D90796898E89891720F0D093D90794
S1130ED0C093D807809178078F5F809378078E89B5
S1130EE090917E07981710F480937E0790E0FC01A0
S1130EF0EE0FFF1FEE0FFF1FEE0FFF1F8E0F9F1F42
S1130F00FC01EC54F84F0180F281E02DFD83EC8369
S1130F10848195819F838E83A481B581CE010296BD
S1130F2013969C938E93129795838483EE89F0E0B5
S1130F30CF01880F991F880F991F880F991FE80FF9
S1130F40F91FEC54F84FFB87EA8780818F5F808319
S1130F500F900FBE80917D07882351F0E091D80750
S1130F60F091D90796898E89981710F40E9486010A
S1130F70DF91CF910895CF93DF931CC00FB6F894FF
S1130F800F92E0919107F0919207C681D781CE012B
S1130F9002960E94640380918107815080938107A7
S1130FA080918B07815080938B070F900FBECE01E9
S1130FB00E947A0680918B078111E0CFDF91CF9157
S1130FC008950E94BB078091B4078230D0F30E9439
S1130FD08601F7CFFF920F931F93CF93DF93EC011A
S1130FE0F62E00917F07109180078091D807909189
S1130FF0D90702960E946403CF3F8FEFD807B1F55B
S1131000FF20A1F1E2E8F7E0A181B281C091D80705
S1131010D091D907BD83AC83C091D807D091D907AB
S113102014968D919C9115979F838E831496CD91E0
S1131030DC9115978091D8079091D90702969B83EC
S11310408A838091D8079091D907029615969C932C
S11310508E931497A091D807B091D9071B96FC934F
S1131060EE931A9780818F5F80832FC0C00FD11FAA
S1131070E091D807F091D907D383C283C017D10771
S113108068F46091D8077091D90780919E07909178
S11310909F076E5F7F4F0E94330317C06091D8078C
S11310A07091D9078091A0079091A1076E5F7F4F3F
S11310B00E9433038091760790917707C817D90768
S11310C020F4D0937707C0937607DF91CF911F91D7
S11310D00F91FF9008952F923F924F925F926F92DB
S11310E07F928F929F92AF92BF92CF92DF92EF92B4
S11310F0FF920F931F93CF93DF933C011B015A017F
S11311002901CA010E9459026C01892B71F088E2FD
S113111090E00E945902EC01892B19F0D88ECF8AF5
S113112006C0C6010E94EE0202C0C0E0D0E02097D3
S113113091F0950140E050E0812C912C5E01670113
S1131140E02E8201B101C3010E948706CE010E94F4
S11311503E0781E001C08FEFDF91CF911F910F9186
S1131160FF90EF90DF90CF90BF90AF909F908F90C3
S11311707F906F905F904F903F902F900895EF92E3
S1131180FF920F930F2EF4E7EF2EF7E0FF2EF02DD2
S113119000E020E030E045E550E06DE071E081EEF4
S11311A097E00E946B08813081F4F8948FEF9FEFF1
S11311B0909377078093760781E080937D07109260
S11311C0800710927F070E945701809102010F91BE
S11311D0FF90EF900895809173078F5F809373075A
S11311E008950F931F93CF93DF9380917307811119
S11311F001C1C0917F07D09180078E010F5F1F4FFF
S11312001093800700937F0701151105B9F48091AD
S1131210A0079091A10720919E0730919F073093DA
S1131220A1072093A00790939F0780939E07809126
S113123079078F5F809379070E945E068091760715
S1131240909177070817190720F480E0B8C081E06F
S113125001C080E0E091A007F091A1079081911175
S113126007C02FEF3FEF3093770720937607A7C08F
S1131270E091A007F091A1070580F681E02D06809A
S1131280F781E02D228133810217130728F430936C
S113129077072093760793C0A285B385248135818F
S11312A046815781E9015D834C83268137814481DE
S11312B05581E9015B834A8311962D913C911297E4
S11312C0AF014E5F5F4F2417350731F42681378114
S11312D012963C932E931197138612869C919150EB
S11312E09C93A489B589109719F12685378560895F
S11312F07189E9017D836C832089318966857785CD
S1131300E9017B836A8311966D917C9112979F0109
S1131310245F3F4F6217730731F420893189129695
S11313203C932E931197158A148A9C9191509C9307
S1131330268990917E07921710F420937E0730E05F
S1131340D901AA0FBB1FAA0FBB1FAA0FBB1F2A0FCD
S11313503B1FD901AC54B84F11960D90BC91A02DF0
S1131360B583A48314962D913C91159737832683D6
S113137014962D913C911597E9015B834A83159648
S11313805C934E931497A689B0E09D01220F331FFE
S1131390220F331F220F331FA20FB31FAC54B84FB9
S11313A0B387A2879C919F5F9C932689E091D8077D
S11313B0F091D9079689291708F049CF4BCFE091CE
S11313C0D807F091D907268930E0F901EE0FFF1F05
S11313D0EE0FFF1FEE0FFF1F2E0F3F1FF901EC54FE
S11313E0F84F9081923008F081E090917A07911142
S11313F00CC00CC080917B0790917C070196909360
S11314007C0780937B0780E001C081E0DF91CF916E
S11314101F910F910895CF93DF930FB6F8940F9215
S113142080917307815080937307809173078111B2
S1131430BFC080918107811196C0BDC0E0919A0719
S1131440F0919B070680F781E02DA489B589C685B4
S1131450D785808991899D838C83C089D18986852C
S113146097859B838A8311962D913C911297CF0186
S11314700C962817390731F48089918912969C9328
S11314808E931197158A148A8C9181508C93A2851E
S1131490B385C481D581868197819D838C83C681E0
S11314A0D781848195819B838A8311968D919C91A8
S11314B012979F012E5F3F4F8217930731F4868165
S11314C0978112969C938E931197138612868C9112
S11314D081508C93868990917E07981710F480939D
S11314E07E0790E0DC01AA0FBB1FAA0FBB1FAA0F47
S11314F0BB1F8A0F9B1FDC01AC54B84F11960D9093
S1131500BC91A02DB583A48314968D919C911597BD
S1131510978386831496CD91DC9115973B832A8318
S113152015963C932E931497A689B0E0CD01880FAD
S1131530991F880F991F880F991FA80FB91FAC54C2
S1131540B84FB387A2878C918F5F8C939689A091B3
S1131550D807B091D90756968C91981730F081E04E
S113156080937A0702C0E0E0F0E080919507811152
S113157065CFEF2B11F00E945E06C0917B07D091DE
S11315807C07209769F00E94F108882319F081E014
S113159080937A072197B9F710927C0710927B0702
S11315A080917A07882331F00E94860181E003C08C
S11315B080E001C080E00F900FBEDF91CF910895CD
S11315C080917307882321F081E080937A0708953E
S11315D010927A0720917E0701C02150822F90E05B
S11315E0FC01EE0FFF1FEE0FFF1FEE0FFF1FE80FB2
S11315F0F91FEC54F84F3081332379F3AC01440FD5
S1131600551F440F551F440F551F480F591FDF0125
S11316100180F281E02D0280F381E02D1296FC938B
S1131620EE9311974954584FE417F50729F4428172
S11316305381FD0152834183FC01EE0FFF1FEE0F26
S1131640FF1FEE0FFF1F8E0F9F1FFC01EC54F84F7E
S11316500180F281E02D868197819093D907809350
S1131660D80720937E070895CF93DF93EB01609111
S1131670D8077091D907645F7F4F0E94330361E0FC
S1131680CE010E94EA07DF91CF910895CF93DF93B3
S1131690DC011596ED91FC9116970680F781E02DFB
S11316A0A489B589C685D785808991899D838C83D2
S11316B0C089D189868597859B838A8311968D916C
S11316C09C9112979F01245F3F4F8217930731F437
S11316D08089918912969C938E931197158A148A06
S11316E08C9181508C9380917307811160C0A28585
S11316F0B385C481D581868197819D838C83C6817E
S1131700D781848195819B838A8311968D919C9145
S113171012979F012E5F3F4F8217930731F4868102
S1131720978112969C938E931197138612868C91AF
S113173081508C93868990917E07981710F480933A
S11317407E0790E0DC01AA0FBB1FAA0FBB1FAA0FE4
S1131750BB1F8A0F9B1FDC01AC54B84F11960D9030
S1131760BC91A02DB583A48314968D919C9115975B
S1131770978386831496CD91DC9115973B832A83B6
S113178015963C932E931497A689B0E0CD01880F4B
S1131790991F880F991F880F991FA80FB91FAC5460
S11317A0B84FB387A2878C918F5F8C931CC045E997
S11317B057E0DA011196CD91DC911297D787C6874D
S11317C08C819D81918B808B8C819D81DC01139612
S11317D03C932E9312973D832C83558B448BDA01D3
S11317E08C918F5F8C939689E091D807F091D907FB
S11317F08689891720F481E080937A0701C080E00C
S1131800DF91CF91089520917907FC0120832091E5
S11318107F07309180073283218308951F93CF93EC
S1131820DF930FB6F8940F92E0917F07F091800751
S1131830DC0111964D915C911297DF01A41BB50B4D
S1131840EB01288139812F3FDFEF3D07F9F0EC01EF
S11318501881C09179071C1741F0E417F50728F0A7
S1131860FB011182108281E012C0A217B30748F471
S1131870FB012A1B3B0B318320830E94030C80E075
S113188006C0DB011D921C9281E001C080E00F9034
S11318900FBEDF91CF911F91089581E080937A0765
S11318A008950F931F93CF93DF93FC01892B09F4C1
S11318B084C02689A091D807B091D90756968C91F7
S11318C0281708F070C084859585992364F0A09149
S11318D0D807B091D90756963C9184E090E0831BD9
S11318E09109958784878285938530E0A901440F07
S11318F0551F440F551F440F551F240F351F2C54DB
S1131900384F8217930709F045C0EF018F010E5F2E
S11319101F4FC8010E946403E091D807F091D907D2
S113192086898E8B90917E07981710F480937E079A
S113193090E0FC01EE0FFF1FEE0FFF1FEE0FFF1FE5
S11319408E0F9F1FFC01EC54F84F0180F281E02DB3
S1131950FD83EC83848195819F838E83A481B581EB
S113196013961C930E931297158304838E8990E02B
S1131970FC01EE0FFF1FEE0FFF1FEE0FFF1FE80F1E
S1131980F91FEC54F84FFB87EA8780818F5F8083CF
S113199081E016C0A091D807B091D90756968C91D2
S11319A0868B81E00DC091A1E091D807F091D90711
S11319B08689981720F080E003C080E001C081E0B0
S11319C0DF91CF911F910F9108950F931F93CF93A0
S11319D0DF93FC01892B09F451C082A1815082A3B9
S11319E0268991A1291709F44BC081114BC0EF013D
S11319F08F010E5F1F4FC8010E94640389A18E8B63
S1131A0024E030E0281B31093D872C8790917E0724
S1131A10981710F480937E0790E0FC01EE0FFF1FEF
S1131A20EE0FFF1FEE0FFF1F8E0F9F1FFC01EC54E4
S1131A30F84F0180F281E02DFD83EC838481958150
S1131A409F838E83A481B58113961C930E93129762
S1131A5015830483EE89F0E0CF01880F991F880F66
S1131A60991F880F991FE80FF91FEC54F84FFB8753
S1131A70EA8780818F5F808381E005C080E003C0B6
S1131A8080E001C080E0DF91CF911F910F91089514
S1131A900F931F93CF93DF93FC01892B09F466C046
S1131AA091A1961708F4962F8689981709F45EC0B9
S1131AB022A1213009F05AC0968B24853585332321
S1131AC034F024E030E0291B31093587248722854E
S1131AD0338590E0AC01440F551F440F551F440F4C
S1131AE0551F840F951F8C54984F28173907F1F50B
S1131AF0EF018F010E5F1F4FC8010E9464038E899E
S1131B0090917E07981710F480937E0790E0FC0173
S1131B10EE0FFF1FEE0FFF1FEE0FFF1F8E0F9F1F15
S1131B20FC01EC54F84F0180F281E02DFD83EC833D
S1131B30848195819F838E83A481B58113961C93A0
S1131B400E931297158304838E8990E0FC01EE0FA7
S1131B50FF1FEE0FFF1FEE0FFF1FE80FF91FEC54DE
S1131B60F84FFB87EA8780818F5F8083DF91CF9175
S1131B701F910F9108958091D8079091D907892BCF
S1131B8039F0E091D807F091D90782A18F5F82A341
S1131B908091D8079091D90708950F931F93CF93FD
S1131BA08C01C0E003C00E94D500CF5FF801EC0FA8
S1131BB0F11D80818111F7CFCF911F910F9108956D
S1131BC01F93CF93DF93CDB7DEB72A970FB6F89460
S1131BD0DEBF0FBECDBF9AE0E3E0F1E0DE01119677
S1131BE001900D929A95E1F73DEC839F912D11247C
S1131BF0969596959695990F292F220F220F920F5D
S1131C00282F291B922F29E2829F212D112422950E
S1131C102F7044E6249F80191124839F812D112461
S1131C20869586958695E1E0F0E0EC0FFD1FE90FBF
S1131C30F11D1081E1E0F0E0EC0FFD1FE80FF11D54
S1131C4080810E94D500812F0E94D5002A960FB66C
S1131C50F894DEBF0FBECDBFDF91CF911F910895E1
S1131C6068EE73E08091DE079091DF070E94AD0576
S1131C708130B1F78091DC079091DD070196909354
S1131C80DD078093DC0782E191E00E94CD0D89E4B9
S1131C9091E00E94CD0D8091DC070E94E00D8AE066
S1131CA090E00E94CD0D8091DA079091DB0782309D
S1131CB0910508F444C02091DC073091DD0721151B
S1131CC03105E9F1215031093093DD072093DC0718
S1131CD002979093DB078093DA0789E291E00E94F0
S1131CE0CD0D82E491E00E94CD0D8091DA070E942F
S1131CF0E00D88E491E00E94CD0D8091DC070E9404
S1131D00E00D8AE090E00E94CD0D68E68CE20E942E
S1131D1053002FEF89E698E1215080409040E1F78D
S1131D2000C000006CE68CE20E9453002FEF89E6AD
S1131D3098E1215080409040E1F700C000002FEF6F
S1131D408BE792E9215080409040E1F700C0000009
S1131D5020E040E050E060E070E08091DE07909188
S1131D60DF070E94FD047CCF8091DA079091DB07A6
S1131D7001969093DB078093DA078EE491E00E944A
S1131D80CD0D83E491E00E94CD0D8091DA070E948D
S1131D90E00D8AE090E00E94CD0D8091DA079091E9
S1131DA0DB078230910508F444C02091DC073091B0
S1131DB0DD0721153105E9F1215031093093DD07A3
S1131DC02093DC0702979093DB078093DA0785E67C
S1131DD091E00E94CD0D82E491E00E94CD0D8091AE
S1131DE0DA070E94E00D88E491E00E94CD0D809115
S1131DF0DC070E94E00D8AE090E00E94CD0D68E6C9
S1131E008CE20E9453002FEF89E698E12150804034
S1131E109040E1F700C000006CE68CE20E945300A1
S1131E202FEF89E698E1215080409040E1F700C00F
S1131E3000002FEF83ED90E3215080409040E1F7C4
S1131E4000C0000020E040E050E060E070E08091DD
S1131E50DE079091DF070E94FD0486CF0E94C50033
S1131E600895EF92FF920F93CF93DF9300D000D0A9
S1131E70CDB7DEB70E942E0F81E00E949F0590939C
S1131E80DF078093DE07CE0101967C0101E020E0AC
S1131E9030E04AEF50E06DE771E084EB9EE00E9491
S1131EA06B08CE0103967C0120E030E04AEF50E05D
S1131EB065E871E080E39EE00E946B080E94BF0821
S1131EC080E090E00F900F900F900F90DF91CF91F2
S1131ED00F91FF90EF900895AA1BBB1B51E107C01F
S1131EE0AA1FBB1FA617B70710F0A61BB70B881FA6
S1131EF0991F5A95A9F780959095BC01CD01089535
S1131F00FB01DC0102C001900D9241505040D8F712
S1091F100895F894FFCFD0
S1131F16DB05033031323334353637383949444CEE
S1131F2645006F20697320696E6372656D656E7412
S1131F366564202E2E2E200A006E65772077617444
S1131F4665722063726561746564202E2E2E2E20C0
S1131F560A002068203D2000206F203D20006820D4
S1131F66697320696E6372656D656E746564202E8F
S1131F762E2E200A006E65772077617465722063C1
S1131F86726561746564202E2E2E2E0A0070726F9F
S1111F96636573730068616E646C65720000AD
S9030000FC
