S00C00006C6162372E73726563B2
S11300000C943D000C945A000C945A000C945A0021
S11300100C945A000C945A000C945A000C945A00F4
S11300200C945A000C945A000C945A000C949302A9
S11300300C945A000C945A000C945A000C945A00D4
S11300400C945A000C945A000C945A000C945A00C4
S11300500C945A000C945A000C945A000C945A00B4
S11300600C945A000C945A00E00EE00E0F0F140F7B
S11300702A0FE00EE00E0F0F140F11241FBECFEF56
S1130080D8E0DEBFCDBF11E0A0E0B1E0EAE1F2E2EA
S113009002C005900D92A032B107D9F727E0A0E283
S11300A0B1E001C01D92AA38B207E1F70E94A51081
S11300B00C940B110C9400002AE030E06AC0A901F2
S11300C0F90172973A97F0F4E82FF0E02E173F0702
S11300D0C9F4245134B181E090E002C0880F991F23
S11300E02A95E2F7232F282B24B9683611F06834B7
S11300F021F495B1892B85B9089595B1809589230B
S113010085B90895FA017C973A97F0F4E82FF0E066
S11301102E173F07C9F42E5137B181E090E002C099
S1130120880F991F2A95E2F7232F282B27B96836C1
S113013011F0683421F498B1892B88B9089598B1E5
S11301408095892388B90895465251094A3051054A
S1130150F0F4482F50E024173507C9F428523AB177
S113016081E090E002C0880F991F2A95E2F7232FBF
S1130170282B2AB9683611F0683421F49BB1892BF5
S11301808BB908959BB1809589238BB908952F5F0E
S11301903F4F203331050CF492CF08952AE030E02C
S11301A047C0A901B901625171096A30710588F427
S11301B0682F70E02617370761F4ECEEE20F95B173
S11301C061E070E002C0660F771FEA95E2F76927E5
S11301D065B9BA016C5171096A30710588F4682FE8
S11301E070E02617370761F4E2EEE20F98B161E0A0
S11301F070E002C0660F771FEA95E2F7692768B9D5
S1130200465251094A30510588F4482F50E02417CA
S1130210350761F468ED620F9BB141E050E002C024
S1130220440F551F6A95E2F749274BB92F5F3F4F9B
S1130230203331050CF4B5CF0895E2ECF0E0808171
S11302408660808387E68093C4001092C500E1EC49
S1130250F0E080818861808308958091C0008823C4
S1130260E4F78091C600089581E08093890083EFCC
S1130270809388008BE080938100EFE6F0E080813A
S113028082608083089531E1FC013083319722E25A
S113029020833197A3E3A0833197608331977083E0
S11302A031971082319760E86083319710823197DB
S11302B062E06083319763E06083319764E0608338
S11302C0319765E06083319766E06083319767E03A
S11302D06083319768E06083319769E06083319788
S11302E060E1608331973083319732E13083319715
S11302F033E13083319734E13083319735E1308312
S1130300319736E13083319737E13083319738E1E3
S11303103083319739E13083319730E2308331973C
S113032031E2308331972083319723E22083319760
S1130330408331975083319726E22083319727E217
S11303402083319728E22083319729E22083319753
S113035020E32083319721E32083869708950E9428
S11303603401A0916A07B0916B07CD91CDBFDD91A7
S1130370DEBFFF91EF91DF91CF91BF91AF919F913C
S11303808F917F916F915F914F913F912F911F9129
S11303900F91FF90EF90DF90CF90BF90AF909F9020
S11303A08F907F906F905F904F903F902F901F9011
S11303B00F900FBE0F90089581E008950F920FB62D
S11303C0F8940F921F9211242F923F924F925F92B2
S11303D06F927F928F929F92AF92BF92CF92DF9251
S11303E0EF92FF920F931F932F933F934F935F933B
S11303F06F937F938F939F93AF93BF93CF93DF9329
S1130400EF93FF93A0916A07B0916B070DB60D921D
S11304100EB60D920E94690BA0916A07B0916B070A
S1130420CD91CDBFDD91DEBFFF91EF91DF91CF91F3
S1130430BF91AF919F918F917F916F915F914F91F8
S11304403F912F911F910F91FF90EF90DF90CF90EC
S1130450BF90AF909F908F907F906F905F904F90E0
S11304603F902F901F900F900FBE0F9008950F9202
S11304700FB6F8940F921F9211242F923F924F922D
S11304805F926F927F928F929F92AF92BF92CF9220
S1130490DF92EF92FF920F931F932F933F934F930B
S11304A05F936F937F938F939F93AF93BF93CF93F8
S11304B0DF93EF93FF93A0916A07B0916B070DB69A
S11304C00D920EB60D920E947A0981110E94690B59
S11304D0A0916A07B0916B07CD91CDBFDD91DEBFCE
S11304E0FF91EF91DF91CF91BF91AF919F918F9148
S11304F07F916F915F914F913F912F911F910F9138
S1130500FF90EF90DF90CF90BF90AF909F908F902F
S11305107F906F905F904F903F902F901F900F901F
S11305200FBE0F9008950E9437021895A5E2B1E01E
S1130530E9E2F1E01196FC93EE9313961C921E925D
S11305401297A1E2B1E08BED95E013969C938E9304
S1130550129711961C921E9293838283B183A08377
S11305600895EF92FF920F931F93CF93DF93EC01C3
S11305700E946A0980912001811105C00E9496029F
S113058081E080932001209771F0CE010496C81772
S1130590D90738F425968C179D0728F0C0E0D0E0E1
S11305A002C0C0E0D0E0209709F45EC020910001B1
S11305B0309101012C173D0708F459C0E091250141
S11305C0F0912601A5E2B1E002C0DF01FC018281C5
S11305D093818C179D0720F4808191810097A9F75E
S11305E081E0E132F80709F445C00D911C9111979F
S11305F00C5F1F4F808191818D939C9382819381A5
S11306008C1B9D0B8930910530F1BF016C0F7D1F50
S1130610DB0113969C938E931297D383C283129615
S11306204D915C9113970F2EF5E2EF2EF1E0FF2E22
S1130630F02D01C07D01E701A881B98112968D9149
S11306409C91139784179507A8F3EB01B983A883AA
S1130650D7016D937C9382819381281B390B30934E
S113066001012093000108C000E010E005C000E093
S113067010E002C000E010E00E94940AC801DF917B
S1130680CF911F910F91FF90EF9008950F931F93B7
S1130690CF93DF93009741F1EC018C0104501109D1
S11306A00E946A09F80142815381A5E2B1E001C0C8
S11306B0DF01ED91FC9111972281338124173507D5
S11306C0B8F32497F983E8830D931C938A819B8163
S11306D02091000130910101820F931F9093010139
S11306E0809300010E94940ADF91CF911F910F9192
S11306F00895FC010396928381832FEF3FEF3483A7
S11307002383968385839087878310820895FC01D1
S1130710118610860895CF93DF93EB0148815981A8
S11307204F3F2FEF520721F4FC01A781B0850DC084
S1130730DC01139601C0DF011296ED91FC91139731
S11307402081318142175307B0F71296ED91FC9145
S11307501397FB83EA83D583C483BD83AC83139649
S1130760DC93CE93129799878887FC0120812F5FB1
S11307702083DF91CF910895CF93DF93FC01A0856F
S1130780B185C281D381848195819D838C83C48109
S1130790D581828193819B838A8311968D919C91CB
S11307A01297E817F90731F48481958112969C9386
S11307B08E931197118610868C9181508C938C9115
S11307C0DF91CF9108950FB6F8940F92FC01828DBA
S11307D0811102C081E001C080E00F900FBE089536
S11307E00FB6F8940F92FC01228D838D281302C05A
S11307F081E001C080E00F900FBE08950F931F9316
S1130800CF93DF93EC01042F1A8D4C8D41110CC052
S113081088819981892B09F042C08C819D810E9435
S1130820310D1D821C8242C0011117C050E08A8123
S11308309B810E9402112C8D8A819B81820F911DC4
S11308409B838A832C813D818217930750F1888191
S113085099819B838A8380E029C050E08E819F81A7
S11308600E9402118C8D90E09195819591092E81C1
S11308703F81280F391F3F832E83488159812417D4
S1130880350730F42C813D81820F931F9F838E8323
S1130890023049F4112349F0115080E007C080E090
S11308A005C080E003C080E001C080E01F5F1A8FB4
S11308B0DF91CF911F910F910895FC01448D442342
S11308C0A9F050E026813781240F351F3783268312
S11308D0848195812817390720F08081918197833D
S11308E08683CB01668177810E94021108951F934C
S11308F0CF93DF93EC010FB6F8940F921E8D0BC0CB
S11309008989882351F0CE0141960E94180C8111E7
S11309100E941F0D115011169CF38FEF8E8F0F90B4
S11309200FBE0FB6F8940F921D8D0BC088858823D7
S113093051F0CE0108960E94180C81110E941F0DDF
S1130940115011169CF38FEF8D8F0F900FBEDF9116
S1130950CF911F9108950F931F93CF93DF93FC01C1
S1130960362F892B09F44DC0238D222309F44BC063
S1130970022F10E08FEF9FEFB8010E94E810448D22
S1130980842F90E06817790708F43FC0EF010FB691
S1130990F8940F9260817181FB01249FE00DF11D99
S11309A01124FD83EC831A8E7B836A830150110921
S11309B0809FA001819F500D909F500D1124CB0169
S11309C0840F951F9F838E838FEF8D8F8E8F3111B0
S11309D00CC08885882389F0CE0108960E94180CE3
S11309E0882359F00E94DE0108C0CE0108960E94B7
S11309F07903CE0141960E9479030F900FBE81E0E6
S1130A0005C080E003C080E001C080E0DF91CF91A9
S1130A101F910F9108950F931F93F801611103C063
S1130A201183008302C051834083838F648F61E00C
S1130A30CF010E94AB041F910F910895DF92EF92B2
S1130A40FF920F931F93CF93DF93382FE62F8823C2
S1130A5029F1682F70E08FEF9FEF0E94E8108E2F2E
S1130A6090E068177907E8F03E9FC0011124813EA9
S1130A702FEF9207C8F4D42EDE2FC32F4F960E9477
S1130A80B1027C01009791F08C012D2DAC01415EE7
S1130A905F4F6D2F8C2F0E940B0508C0E12CF12CA9
S1130AA005C0E12CF12C02C0E12CF12CC701DF912F
S1130AB0CF911F910F91FF90EF90DF900895CF9207
S1130AC0DF92EF92FF920F931F93CF93DF9300D0A7
S1130AD000D01F92CDB7DEB78C017B015D834C83C0
S1130AE0C22ED12C0FB6F8940F92F801928D838DFB
S1130AF0981718F0F2E0CF1219C04C2DB701C801B5
S1130B000E94FE03F8019189992349F0C801419696
S1130B100E94180C882331F00E94DE0103C0811169
S1130B200E94DE010F900FBE81E04DC08C819D813B
S1130B30892B21F40F900FBE80E045C0D11006C070
S1130B40CE0101960E94D50CDD24D3940F900FBEE4
S1130B500E946A090FB6F8940F92F801858D8F3FB1
S1130B6009F4158EF801868D8F3F09F4168E0F90C7
S1130B700FBEBE016C5F7F4FCE0101960E94E00C58
S1130B8081111BC0C8010E94F003882381F06C818D
S1130B907D81C80108960E94BD0BC8010E9477049C
S1130BA00E94940A81119ECF0E94DE019BCFC8014E
S1130BB00E9477040E94940A95CFC8010E9477048A
S1130BC00E94940A80E00F900F900F900F900F9066
S1130BD0DF91CF911F910F91FF90EF90DF90CF9015
S1130BE00895EF92FF920F931F93CF93DF938A019F
S1130BF0FC01528D338D531710F0223001F5422F32
S1130C007801EC011E8D8A8DCE010E94FE031F3FE8
S1130C1081F489898823A9F0CE0141960E94180C99
S1130C20882389F0E114F10481F081E0F7018083E5
S1130C300DC0FF24F394F10EFE8E81E007C080E026
S1130C4005C081E003C081E001C081E0DF91CF9164
S1130C501F910F91FF90EF900895CF92DF92EF9242
S1130C60FF920F931F93CF93DF9300D000D01F9276
S1130C70CDB7DEB78C016B015D834C83E12C0FB6DD
S1130C80F8940F92F801F28CFF20A9F0B601C80184
S1130C900E945D04FA94F801F28E8085882339F06D
S1130CA0C80108960E94180C81110E94DE010F9061
S1130CB00FBE81E053C08C819D81892B21F40F905C
S1130CC00FBE80E04BC0E11006C0CE0101960E9429
S1130CD0D50CEE24E3940F900FBE0E946A090FB660
S1130CE0F8940F92F801858D8F3F09F4158EF80161
S1130CF0868D8F3F09F4168E0F900FBEBE016C5F78
S1130D007F4FCE0101960E94E00C81111BC0C801E7
S1130D100E94E303882381F06C817D81C8014196A0
S1130D200E94BD0BC8010E9477040E94940A81119D
S1130D30A6CF0E94DE01A3CFC8010E9477040E94BF
S1130D40940A9DCFC8010E9477040E94940AC801A6
S1130D500E94E303882309F492CF80E00F900F9060
S1130D600F900F900F90DF91CF911F910F91FF90F3
S1130D70EF90DF90CF900895CF93DF93EC010FB6FF
S1130D80F8940F928D8D8F3F09F41D8E8E8D8F3FB9
S1130D9009F41E8E0F900FBE8A8D811104C0CE01FE
S1130DA041960E94CF0BCE010E947704DF91CF9130
S1130DB00895E0913207F09133078081811107C0D3
S1130DC08FEF9FEF90930907809308070895E091B0
S1130DD03207F09133070580F681E02D80819181FF
S1130DE090930907809308070895CF93DF93EC014C
S1130DF08F89988D0E944603CE010E944603DF919D
S1130E00CF9108956F927F928F929F92AF92BF92EB
S1130E10CF92DF92EF920F931F93CF93DF93CDB7CF
S1130E20DEB74C01D50157968D919C91589721506E
S1130E3031093C01620E731E6115710589F416C0F7
S1130E40822F90E0FB01E80FF91F3081D501A80F34
S1130E50B91F59963C938081882329F02F5F01C0E4
S1130E6020E0283068F3F50110A203C0D50159969B
S1130E701C92B3E0BE1520F40F2EF3E0EF2EF02DFC
S1130E80F501E68AE1A212A2C50102960E94870337
S1130E90C5010C960E948703D5011996BC92AE92A7
S1130EA0189784E090E08E1991091D969C938E9377
S1130EB01C975396BC92AE92529784E0F501B39678
S1130EC0DF011D928A95E9F7F50117A2A801B40183
S1130ED0C3010E944301D5018D939C93C114D10495
S1130EE019F0F601B182A082DF91CF911F910F9189
S1130EF0EF90DF90CF90BF90AF909F908F907F90B6
S1130F006F900895CF93C0E010C08C2F90E09C01A7
S1130F10220F331F220F331F220F331F820F931F01
S1130F208A5B984F0E947903CF5FC43070F38DE3DE
S1130F3097E00E94790384E397E00E94790387E2B3
S1130F4097E00E9479038EE197E00E94790384E19F
S1130F5097E00E9479038DE397E0909333078093A1
S1130F60320784E397E09093310780933007CF9161
S1130F700895CF93DF93EC010FB6F8940F9280910C
S1130F8013078F5F8093130780916A0790916B0713
S1130F90892B59F4D0936B07C0936A078091130788
S1130FA0813099F40E94820710C080910F0781114B
S1130FB00CC0E0916A07F0916B0796898E898917B6
S1130FC020F0D0936B07C0936A0780910A078F5F64
S1130FD080930A078E8990911007981710F48093D4
S1130FE0100790E0FC01EE0FFF1FEE0FFF1FEE0F46
S1130FF0FF1F8E0F9F1FFC01EA5BF84F0180F281F7
S1131000E02DFD83EC83848195819F838E83A4816D
S1131010B581CE01029613969C938E931297958375
S11310208483EE89F0E0CF01880F991F880F991F00
S1131030880F991FE80FF91FEA5BF84FFB87EA87CF
S113104080818F5F80830F900FBE80910F0788236C
S113105051F0E0916A07F0916B0796898E89981791
S113106010F40E94DE01DF91CF910895CF93DF93B6
S11310701CC00FB6F8940F92E0912307F091240757
S1131080C681D781CE0102960E94BC0380911307CA
S113109081508093130780911D07815080931D0711
S11310A00F900FBECE010E94F50680911D0781119D
S11310B0E0CFDF91CF9108950E94360880914607D2
S11310C08230D0F30E94DE01F7CFFF920F931F937B
S11310D0CF93DF93EC01F62E0091110710911207C4
S11310E080916A0790916B0702960E94BC03CF3FE0
S11310F08FEFD807B1F5FF20A1F1E4E1F7E0A1817A
S1131100B281C0916A07D0916B07BD83AC83C09153
S11311106A07D0916B0714968D919C9115979F83C4
S11311208E831496CD91DC91159780916A079091E6
S11311306B0702969B838A8380916A0790916B0761
S1131140029615969C938E931497A0916A07B0917A
S11311506B071B96FC93EE931A9780818F5F8083B5
S11311602FC0C00FD11FE0916A07F0916B07D383A2
S1131170C283C017D10768F460916A0770916B0746
S113118080913007909131076E5F7F4F0E948B03EF
S113119017C060916A0770916B0780913207909134
S11311A033076E5F7F4F0E948B03809108079091F5
S11311B00907C817D90720F4D0930907C093080773
S11311C0DF91CF911F910F91FF9008952F923F923D
S11311D04F925F926F927F928F929F92AF92BF9243
S11311E0CF92DF92EF92FF920F931F93CF93DF93EF
S11311F03C011B015A012901CA010E94B1026C0180
S1131200892B71F088E290E00E94B102EC01892BF5
S113121019F0D88ECF8A06C0C6010E94460302C0C8
S1131220C0E0D0E0209791F0950140E050E0812C9F
S1131230912C5E016701E02E8201B101C3010E947D
S11312400207CE010E94B90781E001C08FEFDF9150
S1131250CF911F910F91FF90EF90DF90CF90BF90AF
S1131260AF909F908F907F906F905F904F903F9042
S11312702F900895EF92FF920F930F2EF6E0EF2E2A
S1131280F7E0FF2EF02D00E020E030E045E550E0EF
S113129063E071E08CE598E00E94E608813011F487
S11312A00E94B90F813081F4F8948FEF9FEF9093EF
S11312B009078093080781E080930F0710921207B3
S11312C0109211070E94AF01809102010F91FF90CB
S11312D0EF900895809105078F5F80930507089527
S11312E00FB6F8940F9280911107909112070F9006
S11312F00FBE08950F931F93CF93DF93809105073B
S1131300811101C1C0911107D09112078E010F5FA5
S11313101F4F109312070093110701151105B9F41B
S11313208091320790913307209130073091310733
S1131330309333072093320790933107809330071B
S113134080910B078F5F80930B070E94D9068091D1
S11313500807909109070817190720F480E0B8C01E
S113136081E001C080E0E0913207F0913307908181
S1131370911107C02FEF3FEF30930907209308071F
S1131380A7C0E0913207F09133070580F681E02D84
S11313900680F781E02D228133810217130728F498
S11313A0309309072093080793C0A285B38524814D
S11313B0358146815781E9015D834C8326813781DC
S11313C044815581E9015B834A8311962D913C91B7
S11313D01297AF014E5F5F4F2417350731F4268112
S11313E0378112963C932E931197138612869C9103
S11313F091509C93A489B589109719F12685378556
S113140060897189E9017D836C83208931896685CE
S11314107785E9017B836A8311966D917C9112979C
S11314209F01245F3F4F6217730731F4208931898C
S113143012963C932E931197158A148A9C9191507D
S11314409C93268990911007921710F4209310070B
S113145030E0D901AA0FBB1FAA0FBB1FAA0FBB1FE5
S11314602A0F3B1FD901AA5BB84F11960D90BC916E
S1131470A02DB583A48314962D913C9115973783A1
S1131480268314962D913C911597E9015B834A8339
S113149015965C934E931497A689B0E09D01220F94
S11314A0331F220F331F220F331FA20FB31FAA5B58
S11314B0B84FB387A2879C919F5F9C932689E09144
S11314C06A07F0916B079689291708F049CF4BCF2B
S11314D0E0916A07F0916B07268930E0F901EE0F7D
S11314E0FF1FEE0FFF1FEE0FFF1F2E0F3F1FF9010F
S11314F0EA5BF84F9081923008F081E090910C07FC
S113150091110CC00CC080910D0790910E070196AB
S113151090930E0780930D0780E001C081E0DF9176
S1131520CF911F910F910895CF93DF930FB6F89445
S11315300F928091050781508093050780910507DC
S11315408111BFC080911307811196C0BDC0E09185
S11315502C07F0912D070680F781E02DA489B58929
S1131560C685D785808991899D838C83C089D189DB
S1131570868597859B838A8311962D913C9112973A
S1131580CF010C962817390731F480899189129676
S11315909C938E931197158A148A8C9181508C9305
S11315A0A285B385C481D581868197819D838C83EF
S11315B0C681D781848195819B838A8311968D917D
S11315C09C9112979F012E5F3F4F8217930731F42E
S11315D08681978112969C938E9311971386128617
S11315E08C9181508C93868990911007981710F4F0
S11315F08093100790E0DC01AA0FBB1FAA0FBB1F4A
S1131600AA0FBB1F8A0F9B1FDC01AA5BB84F119660
S11316100D90BC91A02DB583A48314968D919C91BB
S11316201597978386831496CD91DC9115973B8308
S11316302A8315963C932E931497A689B0E0CD0186
S1131640880F991F880F991F880F991FA80FB91F1A
S1131650AA5BB84FB387A2878C918F5F8C939689CE
S1131660A0916A07B0916B0756968C91981730F049
S113167081E080930C0702C0E0E0F0E0809127074E
S1131680811165CFEF2B11F00E94D906C0910D078F
S1131690D0910E07209769F00E947A09882319F0E7
S11316A081E080930C072197B9F710920E071092EE
S11316B00D0780910C07882331F00E94DE0181E040
S11316C003C080E001C080E00F900FBEDF91CF9196
S11316D0089580910507882321F081E080930C0709
S11316E0089510920C072091100701C02150822FF9
S11316F090E0FC01EE0FFF1FEE0FFF1FEE0FFF1F28
S1131700E80FF91FEA5BF84F3081332379F3AC011A
S1131710440F551F440F551F440F551F480F591FA1
S1131720DF010180F281E02D0280F381E02D129629
S1131730FC93EE931197475B584FE417F50729F490
S113174042815381FD0152834183FC01EE0FFF1F4F
S1131750EE0FFF1FEE0FFF1F8E0F9F1FFC01EA5BB2
S1131760F84F0180F281E02D8681978190936B0779
S113177080936A07209310070895CF93DF93EB01BA
S113178060916A0770916B07645F7F4F0E948B03BF
S113179061E0CE010E946508DF91CF9108950F9317
S11317A01F93CF93DF93FC018B01A181B2818091C0
S11317B06A0790916B07EC01BF87AE8780916A0737
S11317C090916B0714962D913C911597EC01398BF0
S11317D0288B14968D919C91159720916A073091CE
S11317E06B07245F3F4FEC013B832A8320916A07F8
S11317F030916B07245F3F4F15963C932E931497BB
S1131800A0916A07B0916B075596FC93EE93549799
S113181090819F5F9083442311F00FEF1FEF642F9B
S1131820C8010E946508DF91CF911F910F9108951F
S1131830CF93DF93DC011596ED91FC91169706800A
S1131840F781E02DA489B589C685D78580899189DA
S11318509D838C83C089D189868597859B838A8360
S113186011968D919C9112979F01245F3F4F82178F
S1131870930731F48089918912969C938E931197E2
S1131880158A148A8C9181508C938091050781115B
S113189060C0A285B385C481D581868197819D83EB
S11318A08C83C681D781848195819B838A83119699
S11318B08D919C9112979F012E5F3F4F8217930742
S11318C031F48681978112969C938E931197138697
S11318D012868C9181508C93868990911007981769
S11318E010F48093100790E0DC01AA0FBB1FAA0F2D
S11318F0BB1FAA0FBB1F8A0F9B1FDC01AA5BB84F3B
S113190011960D90BC91A02DB583A48314968D914E
S11319109C911597978386831496CD91DC911597A6
S11319203B832A8315963C932E931497A689B0E0A3
S1131930CD01880F991F880F991F880F991FA80F31
S1131940B91FAA5BB84FB387A2878C918F5F8C9322
S11319501CC047E257E0DA011196CD91DC91129751
S1131960D787C6878C819D81918B808B8C819D814B
S1131970DC0113963C932E9312973D832C83558B55
S1131980448BDA018C918F5F8C939689E0916A077E
S1131990F0916B078689891720F481E080930C0706
S11319A001C080E0DF91CF91089520910B07FC01E5
S11319B020832091110730911207328321830895E7
S11319C01F93CF93DF930FB6F8940F92E091110712
S11319D0F0911207DC0111964D915C911297DF0191
S11319E0A41BB50BEB01288139812F3FDFEF3D07A5
S11319F0F9F0EC011881C0910B071C1741F0E417B2
S1131A00F50728F0FB011182108281E012C0A217B1
S1131A10B30748F4FB012A1B3B0B318320830E944C
S1131A20D50C80E006C0DB011D921C9281E001C050
S1131A3080E00F900FBEDF91CF911F91089581E058
S1131A4080930C07089580910F07882331F08091CB
S1131A500507811104C082E0089581E0089580E0C3
S1131A6008950F931F93CF93DF93FC01892B09F4FF
S1131A7051C082A1815082A3268991A1291709F41A
S1131A804BC081114BC0EF018F010E5F1F4FC80186
S1131A900E94BC0389A18E8B24E030E0281B31090D
S1131AA03D872C8790911007981710F480931007A6
S1131AB090E0FC01EE0FFF1FEE0FFF1FEE0FFF1F64
S1131AC08E0F9F1FFC01EA5BF84F0180F281E02D2D
S1131AD0FD83EC83848195819F838E83A481B5816A
S1131AE013961C930E93129715830483EE89F0E0EA
S1131AF0CF01880F991F880F991F880F991FE80F2E
S1131B00F91FEA5BF84FFB87EA8780818F5F808348
S1131B1081E005C080E003C080E001C080E0DF9187
S1131B20CF911F910F910895DC01E0917407F0911A
S1131B307507808191E0811190E09C93911106C01A
S1131B400580F681E02D80819181089580E090E008
S1131B500895FC0173836283918780874617570732
S1131B6090F0421B530B8485958548175907E0F480
S1131B70BF016E5F7F4F80917207909173070E943F
S1131B808B0380E008954217530718F46217730714
S1131B9068F4BF016E5F7F4F809174079091750761
S1131BA00E948B0380E0089581E0089581E0089508
S1131BB0EF92FF920F931F93CF93DF93EC018B016E
S1131BC07A0108C08C859D85080F191FE889F98959
S1131BD0CE0109956C857D85600F711F9801A70161
S1131BE0CE010E94A90D8111EDCFDF91CF911F91FC
S1131BF00F91FF90EF900895EF92FF920F931F9330
S1131C00CF93DF938C017B01E0917407F09175070A
S1131C100580F681E02DC681D781CE0102960E940F
S1131C20BC038A8982FF06C0A701B801CE010E94C5
S1131C30D80D02C08E7F8A8BE889F989CE01099577
S1131C40DF91CF911F910F91FF90EF90089509C0FC
S1131C500580F681E02D6FEF7FEF808191810E94F6
S1131C60FC0DE0917407F091750780818111F0CF2C
S1131C70809172079091730790937507809374070E
S1131C80F0937307E093720708950F931F93CF9314
S1131C90DF938C010E947009EC0180916C07909194
S1131CA06D07C817D90730F40E94270E81E0F801A8
S1131CB0808302C0F8011082D0936D07C0936C0733
S1131CC0CE01DF91CF911F910F910895CF92DF92B2
S1131CD0EF92FF921F93CF93DF931F92CDB7DEB79E
S1131CE07C01162F0E946A09CE0101960E94450EBE
S1131CF06C018981811127C011110AC0CE14DF043F
S1131D0038F00E94940AB601C7010E94FC0D1DC060
S1131D10112341F0E0917207F0917307808111E083
S1131D20811110E0B7016C197D09412F8091700772
S1131D30909171070E94BC060E94940A811105C00B
S1131D400E94DE0102C00E94940A0F90DF91CF919D
S1131D501F91FF90EF90DF90CF900895EF92FF9244
S1131D600F931F93CF93DF9300D000D000D0CDB753
S1131D70DEB77AC0898188230CF476C00C811D817A
S1131D80D8011A968D919C911B97892B21F0C8013B
S1131D9002960E94BC03CE0106960E94450E7C0169
S1131DA0E9818E2FEE0F990BAA0BBB0BFC01319727
S1131DB0E930F10508F058C0EC5CFF4F0C94FC10BE
S1131DC0F80182898160828B2A813B8164857585D3
S1131DD0620F731FA701C8010E94A90D882309F48B
S1131DE043C0D80152968C91529782FF0DC06A81EC
S1131DF07B811C968D919C911D97680F791FA7017B
S1131E00C8010E94D80D03C08E7FF801828BD801CF
S1131E105096ED91FC915197C801099525C0F801A0
S1131E2082898E7F828B20C0D80152968C915297E2
S1131E30816052968C9352976A817B811D967C9324
S1131E406E931C976E0D7F1D9701A701C8010E9418
S1131E50A90D0AC0F801828981FD04C0C8010E944D
S1131E60460302C08E7F828B40E050E0BE016F5F6C
S1131E707F4F80917007909171070E942D06811108
S1131E8079CF26960FB6F894DEBF0FBECDBFDF9193
S1131E90CF911F910F91FF90EF900895CF93DF930F
S1131EA01F92CDB7DEB7CE0101960E94940D6981D1
S1131EB00E94660E0E94AE0EF6CF0FB6F8940F92F3
S1131EC08091700790917107892BE9F48FE797E06F
S1131ED00E94790386E797E00E9479038FE797E0F1
S1131EE0909375078093740786E797E09093730740
S1131EF08093720740E065E08AE00E941E0590939B
S1131F007107809370070F900FBE08957F928F9290
S1131F109F92AF92BF92CF92DF92EF92FF920F9374
S1131F201F93CF93DF934C015B01742E6901E7018A
S1131F300E945D0F99828882BD86AC86DF86CE863C
S1131F40198B088BC70102960E948703772019F02A
S1131F508A8984608A8BDF91CF911F910F91FF90C2
S1131F60EF90DF90CF90BF90AF909F908F907F9035
S1131F700895EF92FF920F930E945D0F8091700776
S1131F8090917107892B91F00F2EFEE6EF2EF7E06A
S1131F90FF2EF02D03E020E030E045E550E068E05E
S1131FA071E08EE49FE00E94E60801C080E00F919A
S1131FB0FF90EF9008957F928F929F92AF92BF927D
S1131FC0CF92DF92EF92FF920F931F93CF93DF9301
S1131FD06C015B01742E490183E190E00E94B1021F
S1131FE0EC01009741F01A8A7C019401472DB50158
S1131FF0C6010E94860FCE01DF91CF911F910F91F0
S1132000FF90EF90DF90CF90BF90AF909F908F9014
S11320107F9008950F931F93CF93DF9300D000D048
S11320201F92CDB7DEB7E0917007F091710730973A
S113203071F1D90169835B834A839D838C83663004
S1132040ECF40E94230D823061F420E0A801BE016B
S11320506F5F7F4F80917007909171070E945F05B9
S113206017C020E040E050E0BE016F5F7F4F8091D9
S11320707007909171070E945F050AC020E0AD01CE
S1132080BE016F5F7F4FCF010E94F10501C080E068
S11320900F900F900F900F900F90DF91CF911F91A1
S11320A00F9108958CE20E94CE0008950F2EF4E65D
S11320B0EF2EF12CF02D0E942D01C82F833769F4E7
S11320C008EE13E020E030E040E050E063E080916F
S11320D08807909189070E940A10C93671F4F69412
S11320E0E79408EE13E020E030E0A70164E080917B
S11320F08807909189070E940A10C43671F4EE0C87
S1132100FF1C08EE13E020E030E0A70164E08091BA
S11321108807909189070E940A10C23761F60E94CD
S1132120700908EE13E020E030E0AC0162E0809139
S11321308807909189070E940A10BDCF60E08CE265
S11321400E945C000E941D010895EF92FF920F937C
S11321501F93CF93DF9300D0CDB7DEB70E949E10BC
S113216002E510E120E030E041E064E670E080E167
S113217091E00E94DB0F90938907809388070E9467
S1132180700900E010E020E030E0AC0161E08091F3
S11321908807909189070E940A10CE0101967C015C
S11321A001E020E030E04AEF50E068E171E086E5CC
S11321B090E10E94E6080E943A0980E090E00F90C6
S11321C00F90DF91CF911F910F91FF90EF900895A1
S11321D0AA1BBB1B51E107C0AA1FBB1FA617B70749
S11321E010F0A61BB70B881F991F5A95A9F7809565
S11321F09095BC01CD010895EE0FFF1F0590F49159
S1132200E02D0994FB01DC0102C001900D924150C4
S10D22105040D8F70895F894FFCF6A
S113221ADB050349444C4500546D72205376630030
S113222A4D7954696D65720070726F6365737300DA
S9030000FC
